:100000000C942A000C94570C0C948A0C0C94BD0C84
:100010000C9447000C9447000C9447000C94470044
:100020000C9447000C9447000C9447000C94B505C1
:100030000C9447000C9447000C9447000C94470024
:100040000C9447000C9447000C9447000C94470014
:100050000C94470011241FBECFE5D4E0DEBFCDBF16
:1000600011E0A0E6B0E0EEE7F4E402C005900D92E6
:10007000AA34B107D9F711E0AAE4B1E001C01D929A
:10008000A636B107E1F70E94B1210C943D220C94F1
:100090000000EF92FF920F931F937B018C0120E0F1
:1000A00030E040E05FE40E94490388238CF0C801FF
:1000B000B70120E030E040E05FE40E94C1010E940F
:1000C000A9039B01AC01205030404040504806C07D
:1000D000C801B7010E94A9039B01AC01B901CA0183
:1000E0001F910F91FF90EF900895A0E0B0E0EBE733
:1000F000F0E00C94C121DC012B01FA019C919230BB
:1001000008F439C1EB018881823008F433C194309E
:1001100069F4843009F02FC111969C91119789815F
:10012000981709F428C1A0EEB0E025C1843009F485
:1001300021C18230A9F4923009F01DC19A01AD01AC
:1001400088E0EA010990AE01E90109929E0181501F
:10015000C1F7E201898111969C918923818308C1AD
:10016000923009F407C112962D903C901397EB0141
:100170008A819B811496AD90BD90CD90DC901797AD
:10018000EC80FD800E811F819101281B390BB90184
:1001900037FF04C066277727621B730B6032710537
:1001A0000CF061C0121613066CF537014801062EDB
:1001B00004C096948794779467940A94D2F721E0C8
:1001C00030E040E050E004C0220F331F441F551FB1
:1001D0006A95D2F721503040404050402E213F21B7
:1001E00040235123211531054105510521F021E01E
:1001F00030E040E050E079018A01E628F72808293C
:1002000019293CC0232BD1F1260E371E350146019A
:10021000062E04C096948794779467940A94D2F734
:1002200021E030E040E050E004C0220F331F441FC3
:10023000551F6A95D2F721503040404050402A2146
:100240003B214C215D21211531054105510521F04E
:1002500021E030E040E050E059016A01A628B728CB
:10026000C828D9280BC0821593052CF01C01AA249C
:10027000BB24650103C0EE24FF24870111969C91E5
:10028000D20111968C91981709F445C0992339F041
:10029000A80197012A193B094C095D0906C0A6016E
:1002A00095012E193F09400B510B57FD08C01182D3
:1002B0003382228224833583468357831DC081E0A5
:1002C00081833382228288279927DC01821B930B4A
:1002D000A40BB50B84839583A683B7830DC0220F2F
:1002E000331F441F551F24833583468357838281E0
:1002F000938101979383828324813581468157813D
:10030000DA01C9010197A109B1098F5F9F4FAF4F72
:10031000BF4328F30BC0918333822282EA0CFB1C7B
:100320000C1D1D1DE482F5820683178383E0808304
:10033000248135814681578157FF1AC0C901AA27F8
:1003400097FDA095BA2F81709070A070B0705695EF
:10035000479537952795822B932BA42BB52B848318
:100360009583A683B7838281938101969383828349
:10037000DF0101C0D201CD01CDB7DEB7E2E10C94BF
:10038000DD21A0E2B0E0E7ECF1E00C94CD2169833F
:100390007A838B839C832D833E834F835887E9E048
:1003A000EE2EF12CEC0EFD1ECE010196B7010E943F
:1003B000D2048E010F5E1F4FCE010596B8010E9438
:1003C000D2048A8991E089278A8BC701B801AE01DE
:1003D000475E5F4F0E9475000E94FD03A096E6E015
:1003E0000C94E921A0E2B0E0E8EFF1E00C94CD211B
:1003F00069837A838B839C832D833E834F835887C5
:10040000F9E0EF2EF12CEC0EFD1ECE010196B701A6
:100410000E94D2048E010F5E1F4FCE010596B801D7
:100420000E94D204C701B801AE01475E5F4F0E942F
:1004300075000E94FD03A096E6E00C94E921A0E27D
:10044000B0E0E5E2F2E00C94C12169837A838B830A
:100450009C832D833E834F835887CE010196BE0136
:10046000675F7F4F0E94D204CE010596BE016F5E8A
:100470007F4F0E94D2049985923088F0898982301A
:10048000C8F0943019F4823051F404C0843029F457
:10049000923081F480EE90E0C6C0923049F420E0C2
:1004A0009A858A89981321E02A87CE010996BBC0D4
:1004B000823049F420E09A858A89981321E02A8BBA
:1004C000CE014196B0C02D843E844F8458886D88FB
:1004D0007E888F88988CEE24FF248701AA24BB2471
:1004E000650140E050E060E070E0E0E0F0E0C10174
:1004F00081709070892BE9F0E60CF71C081D191D1E
:100500009A01AB012A0D3B1D4C1D5D1D80E090E062
:10051000A0E0B0E0E614F7040805190520F481E036
:1005200090E0A0E0B0E0BA01A901480F591F6A1F8E
:100530007B1FAA0CBB1CCC1CDD1C97FE08C081E0F5
:1005400090E0A0E0B0E0A82AB92ACA2ADB2A3196B6
:10055000E032F10549F0660C771C881C991C569412
:10056000479437942794C3CFFA85EA892B893C892D
:100570008B859C85280F391F2E5F3F4F17C0CA01FE
:1005800081709070892B61F016950795F794E79428
:1005900080E090E0A0E0B0E8E82AF92A0A2B1B2BC3
:1005A00076956795579547952F5F3F4F77FDE7CF36
:1005B0000CC0440F551F661F771F17FD4160EE0CDE
:1005C000FF1C001F111F21503040403090E05907A0
:1005D00090E0690790E4790760F32B8F3C8FDB0193
:1005E000CA018F779070A070B07080349105A1051A
:1005F000B10561F447FD0AC0E114F10401051105DC
:1006000029F0405C5F4F6F4F7F4F40781A8EFE1786
:1006100011F081E08A8F4D8F5E8F6F8F78A383E01A
:10062000898FCE0149960E94FD03A096E2E10C94C9
:10063000DD21A8E1B0E0EFE1F3E00C94CD21698386
:100640007A838B839C832D833E834F83588789E0F5
:10065000E82EF12CEC0EFD1ECE010196B7010E9492
:10066000D2048E010F5E1F4FCE010596B8010E9485
:10067000D2048985823040F08989823028F0C70110
:10068000B8010E944A0501C08FEF6896E6E00C941D
:10069000E921A8E1B0E0EFE4F3E00C94CD21698317
:1006A0007A838B839C832D833E834F83588789E095
:1006B000E82EF12CEC0EFD1ECE010196B7010E9432
:1006C000D2048E010F5E1F4FCE010596B8010E9425
:1006D000D2048985823040F08989823028F0C701B0
:1006E000B8010E944A0501C08FEF6896E6E00C94BD
:1006F000E921A8E1B0E0EFE7F3E00C94CD216983B4
:100700007A838B839C832D833E834F83588789E034
:10071000E82EF12CEC0EFD1ECE010196B7010E94D1
:10072000D2048E010F5E1F4FCE010596B8010E94C4
:10073000D2048985823040F08989823028F0C7014F
:10074000B8010E944A0501C081E06896E6E00C9479
:10075000E921ACE0B0E0EFEAF3E00C94D121698349
:100760007A838B839C83CE010196BE016B5F7F4FA2
:100770000E94D2048D81823061F1823050F1843048
:1007800021F48E81882351F12EC02F81388537FDC9
:1007900020C06E812F3131051CF06623F9F023C093
:1007A0008EE190E0821B930B29853A854B855C8511
:1007B00004C056954795379527958A95D2F76623B5
:1007C000B1F050954095309521953F4F4F4F5F4F79
:1007D0000EC020E030E040E050E009C02FEF3FEFD6
:1007E0004FEF5FE704C020E030E040E050E8B9019F
:1007F000CA012C96E2E00C94ED21DF92EF92FF9279
:100800000F931F93FC01E480F58006811781D1804E
:100810008081823048F480E090E0A0E1B0E0E82AF6
:10082000F92A0A2B1B2BA5C0843009F49FC0823003
:1008300021F4EE24FF24870105C0E114F104010531
:10084000110519F4E0E0F0E096C0628173819FEF3A
:10085000623879070CF05BC022E83FEF261B370BAC
:100860002A3131052CF020E030E040E050E02AC091
:10087000B801A701022E04C0769567955795479554
:100880000A94D2F781E090E0A0E0B0E004C0880FC5
:10089000991FAA1FBB1F2A95D2F70197A109B10979
:1008A0008E219F21A023B1230097A105B10521F03E
:1008B00081E090E0A0E0B0E09A01AB01282B392B59
:1008C0004A2B5B2BDA01C9018F779070A070B07052
:1008D00080349105A105B10539F427FF09C0205CDA
:1008E0003F4F4F4F5F4F04C0215C3F4F4F4F5F4F13
:1008F000E0E0F0E02030A0E03A07A0E04A07A0E402
:100900005A0710F0E1E0F0E079018A0127C0603871
:10091000710564F5FB01E158FF4FD801C7018F77DE
:100920009070A070B07080349105A105B10539F4C4
:10093000E7FE0DC080E490E0A0E0B0E004C08FE3EB
:1009400090E0A0E0B0E0E80EF91E0A1F1B1F17FFA1
:1009500005C016950795F794E794319687E01695AC
:100960000795F794E7948A95D1F705C0EE24FF2404
:100970008701EFEFF0E06E2F679566276795902F60
:100980009F77D794DD24D7948E2F8695492F462BB9
:10099000582F5D29B701CA011F910F91FF90EF9069
:1009A000DF900895FC01DB01408151812281622F9B
:1009B0006F7770E0221F2227221F9381892F880FD3
:1009C000822B282F30E0991F9927991F11969C930D
:1009D000119721153105A9F54115510561057105DD
:1009E00011F482E037C082E89FEF13969C938E93B8
:1009F00012979A01AB0167E0220F331F441F551F66
:100A00006A95D1F783E08C930DC0220F331F441FEA
:100A1000551F12968D919C911397019713969C9355
:100A20008E931297203080E0380780E0480780E4FA
:100A3000580758F314962D933D934D935C93179755
:100A400008952F3F310579F4411551056105710570
:100A500019F484E08C93089564FF03C081E08C93C3
:100A600012C01C9210C02F57304013963C932E9307
:100A7000129783E08C9387E0440F551F661F771F02
:100A80008A95D1F7706414964D935D936D937C9322
:100A9000179708951F93DC01FB019C91923008F495
:100AA00047C08081823008F443C0943051F41196DD
:100AB0001C91843099F58181682F70E0611B710968
:100AC0003FC0843021F0923031F48230B9F181811D
:100AD000882389F12DC011961C9111978230F1F075
:100AE00081811817D9F412962D913C911397828128
:100AF00093818217930794F028173907BCF0149656
:100B00008D919D910D90BC91A02D248135814681C0
:100B10005781281739074A075B0718F4112341F05A
:100B20000AC082179307A407B50740F4112319F0F0
:100B300061E070E005C06FEF7FEF02C060E070E041
:100B4000CB011F910895DF93CF9300D0CDB7DEB7CF
:100B50009A83898389819A8190934B0180934A017A
:100B60000F900F90CF91DF9108951F920F920FB6C3
:100B70000F9211242F933F934F935F936F937F9323
:100B80008F939F93AF93BF93EF93FF93DF93CF9395
:100B9000CDB7DEB780914A0190914B01009729F0C3
:100BA000E0914A01F0914B010995CF91DF91FF91BE
:100BB000EF91BF91AF919F918F917F916F915F91D5
:100BC0004F913F912F910F900FBE0F901F9018954E
:100BD000DF93CF93CDB7DEB7A3E5B0E0E3E5F0E078
:100BE000808180688C93A3E5B0E0E3E5F0E080814C
:100BF0008F7B8C93A3E5B0E0E3E5F0E08081877F15
:100C00008C93AFE5B0E0EFE5F0E0808180688C93F5
:100C1000A9E5B0E0E9E5F0E0808181608C9380E0B7
:100C20000E941506CF91DF910895DF93CF930F9225
:100C3000CDB7DEB78983E2E5F0E0898180830F904C
:100C4000CF91DF910895DF93CF93CDB7DEB7A3E5C2
:100C5000B0E0E3E5F0E08081887F8C93CF91DF9175
:100C60000895DF93CF93CDB7DEB7A3E5B0E0E3E51A
:100C7000F0E08081982F987F8091E800892B8C93F9
:100C8000CF91DF910895DF93CF93CDB7DEB70E9468
:100C90003106CF91DF910895DF93CF93CDB7DEB7C3
:100CA000A9E5B0E0E9E5F0E080818E7F8C93CF91FB
:100CB000DF910895DF93CF93CDB7DEB7A9E5B0E01C
:100CC000E9E5F0E0808181608C93CF91DF91089518
:100CD000DF93CF930F92CDB7DEB7198257C08981CA
:100CE000282F30E0C901880F991F820F931FFC0144
:100CF000E651FF4F80818830E9F48981282F30E068
:100D0000C901880F991F820F931FFC01E751FF4F04
:100D100040818981282F30E0C901880F991F820FF7
:100D2000931FFC01E551FF4F9081842F692F0E9492
:100D3000D60A29C08981282F30E0C901880F991F60
:100D4000820F931FFC01E751FF4F50818981282FAB
:100D500030E0C901880F991F820F931FFC01E651F3
:100D6000FF4F40818981282F30E0C901880F991FEA
:100D7000820F931FFC01E551FF4F9081852F642F57
:100D8000492F0E94CE0689818F5F898389818823BC
:100D900009F4A5CF0F90CF91DF910895DF93CF9302
:100DA00000D000D00F92CDB7DEB789836A834B8322
:100DB0008981843008F0D8C18A81883008F0D4C194
:100DC0008981282F30E03D832C838C819D81813067
:100DD000910509F484C02C813D81223031052CF429
:100DE0008C819D81009771F0BFC12C813D812230A3
:100DF000310509F4E1C08C819D818330910509F4AE
:100E000048C1B2C18B81882341F5AAE3B0E0EAE38F
:100E1000F0E08081482F8A81282F30E081E090E047
:100E200002C0880F991F2A95E2F7809584238C933E
:100E3000ABE3B0E0EBE3F0E08081482F8A81282F1C
:100E400030E081E090E0022E02C0880F991F0A94E2
:100E5000E2F7809584238C9387C18B81813039F5AB
:100E6000AAE3B0E0EAE3F0E08081482F8A81282FEE
:100E700030E081E090E002C0880F991F2A95E2F7E8
:100E8000809584238C93ABE3B0E0EBE3F0E08081CA
:100E9000482F8A81282F30E081E090E0022E02C0A6
:100EA000880F991F0A94E2F7842B8C935DC18B8184
:100EB000823009F059C1AAE3B0E0EAE3F0E08081B2
:100EC000482F8A81282F30E081E090E0022E02C076
:100ED000880F991F0A94E2F7842B8C9345C18B816C
:100EE000882341F5A7E3B0E0E7E3F0E08081482FF5
:100EF0008A81282F30E081E090E002C0880F991F9E
:100F00002A95E2F7809584238C93A8E3B0E0E8E388
:100F1000F0E08081482F8A81282F30E081E090E046
:100F2000022E02C0880F991F0A94E2F7809584234D
:100F30008C931AC18B81813039F5A7E3B0E0E7E3E8
:100F4000F0E08081482F8A81282F30E081E090E016
:100F500002C0880F991F2A95E2F7809584238C930D
:100F6000A8E3B0E0E8E3F0E08081482F8A81282FF1
:100F700030E081E090E0022E02C0880F991F0A94B1
:100F8000E2F7842B8C93F0C08B81823009F0ECC0A7
:100F9000A7E3B0E0E7E3F0E08081482F8A81282FC3
:100FA00030E081E090E0022E02C0880F991F0A9481
:100FB000E2F7842B8C93D8C08B81882341F5A4E37E
:100FC000B0E0E4E3F0E08081482F8A81282F30E010
:100FD00081E090E002C0880F991F2A95E2F7809582
:100FE00084238C93A5E3B0E0E5E3F0E08081482F13
:100FF0008A81282F30E081E090E0022E02C0880F25
:10100000991F0A94E2F7809584238C93ADC08B815D
:10101000813039F5A4E3B0E0E4E3F0E08081482FCB
:101020008A81282F30E081E090E002C0880F991F6C
:101030002A95E2F7809584238C93A5E3B0E0E5E35D
:10104000F0E08081482F8A81282F30E081E090E015
:10105000022E02C0880F991F0A94E2F7842B8C930A
:1010600083C08B81823009F07FC0A4E3B0E0E4E369
:10107000F0E08081482F8A81282F30E081E090E0E5
:10108000022E02C0880F991F0A94E2F7842B8C93DA
:101090006BC08B81882341F5A1E3B0E0E1E3F0E090
:1010A0008081482F8A81282F30E081E090E002C0C3
:1010B000880F991F2A95E2F7809584238C93A2E3E9
:1010C000B0E0E2E3F0E08081482F8A81282F30E011
:1010D00081E090E0022E02C0880F991F0A94E2F787
:1010E000809584238C9340C08B81813039F5A1E3B6
:1010F000B0E0E1E3F0E08081482F8A81282F30E0E2
:1011000081E090E002C0880F991F2A95E2F7809550
:1011100084238C93A2E3B0E0E2E3F0E08081482FE7
:101120008A81282F30E081E090E0022E02C0880FF3
:10113000991F0A94E2F7842B8C9316C08B8182301E
:1011400099F4A1E3B0E0E1E3F0E08081482F8A81E7
:10115000282F30E081E090E0022E02C0880F991F16
:101160000A94E2F7842B8C930F900F900F900F90BE
:101170000F90CF91DF910895DF93CF9300D000D0EF
:101180000F92CDB7DEB78A836B8319828A81843050
:1011900008F084C08B81883008F080C08A81282FB5
:1011A00030E03D832C834C815D814130510579F1E4
:1011B0008C819D818230910534F42C813D812115F3
:1011C000310569F06BC04C815D8142305105B9F148
:1011D0008C819D818330910509F449C05FC0E9E3AA
:1011E000F0E08081282F30E08B81882F90E0A901EA
:1011F00002C0559547958A95E2F7CA0181709070B3
:10120000882319F081E0898349C0198247C0E6E349
:10121000F0E08081282F30E08B81882F90E0A901B9
:1012200002C0559547958A95E2F7CA018170907082
:10123000882319F081E0898331C019822FC0E3E34C
:10124000F0E08081282F30E08B81882F90E0A90189
:1012500002C0559547958A95E2F7CA018170907052
:10126000882319F081E0898319C0198217C0E0E34F
:10127000F0E08081282F30E08B81882F90E0A90159
:1012800002C0559547958A95E2F7CA018170907022
:10129000882319F081E0898301C0198289810F9028
:1012A0000F900F900F900F90CF91DF910895DF93E3
:1012B000CF9300D000D00F92CDB7DEB789836A8379
:1012C0004B838981843008F0E4C08A81883008F03B
:1012D000E0C08981282F30E03D832C838C819D8163
:1012E0008130910509F447C02C813D8122303105C0
:1012F0002CF48C819D81009771F0CBC02C813D81B5
:101300002230310509F467C08C819D8183309105BD
:1013100009F491C0BEC08B818130A1F4ABE3B0E091
:10132000EBE3F0E08081482F8A81282F30E081E0D4
:1013300090E0022E02C0880F991F0A94E2F7842BD6
:101340008C93A7C08B81882309F0A3C0ABE3B0E0E6
:10135000EBE3F0E08081482F8A81282F30E081E0A4
:1013600090E0022E02C0880F991F0A94E2F7809540
:1013700084238C938EC08B818130A1F4A8E3B0E0EC
:10138000E8E3F0E08081482F8A81282F30E081E077
:1013900090E0022E02C0880F991F0A94E2F7842B76
:1013A0008C9377C08B81882309F073C0A8E3B0E0E9
:1013B000E8E3F0E08081482F8A81282F30E081E047
:1013C00090E0022E02C0880F991F0A94E2F78095E0
:1013D00084238C935EC08B818130A1F4A5E3B0E0BF
:1013E000E5E3F0E08081482F8A81282F30E081E01A
:1013F00090E0022E02C0880F991F0A94E2F7842B16
:101400008C9347C08B81882309F043C0A5E3B0E0EB
:10141000E5E3F0E08081482F8A81282F30E081E0E9
:1014200090E0022E02C0880F991F0A94E2F780957F
:1014300084238C932EC08B818130A1F4A2E3B0E091
:10144000E2E3F0E08081482F8A81282F30E081E0BC
:1014500090E0022E02C0880F991F0A94E2F7842BB5
:101460008C9317C08B818823A1F4A2E3B0E0E2E360
:10147000F0E08081482F8A81282F30E081E090E0E1
:10148000022E02C0880F991F0A94E2F780958423E8
:101490008C930F900F900F900F900F90CF91DF9142
:1014A0000895DF93CF9300D000D0CDB7DEB7898306
:1014B0006A838981843008F072C08A81883008F09C
:1014C0006EC08981282F30E03C832B838B819C81E7
:1014D0008130910549F12B813C81223031052CF47A
:1014E0008B819C81009761F05AC02B813C81223016
:1014F000310571F18B819C8183309105E9F14FC0F9
:10150000ABE3B0E0EBE3F0E08081482F8A81282F45
:1015100030E081E090E0022E02C0880F991F0A940B
:10152000E2F784278C933BC0A8E3B0E0E8E3F0E067
:101530008081482F8A81282F30E081E090E0022EC0
:1015400002C0880F991F0A94E2F784278C9327C062
:10155000A5E3B0E0E5E3F0E08081482F8A81282F01
:1015600030E081E090E0022E02C0880F991F0A94BB
:10157000E2F784278C9313C0A2E3B0E0E2E3F0E04B
:101580008081482F8A81282F30E081E090E0022E70
:1015900002C0880F991F0A94E2F784278C930F905A
:1015A0000F900F900F90CF91DF910895DF93CF931D
:1015B00000D000D0CDB7DEB789836A8389818430BB
:1015C00008F096C08981282F30E03C832B838B81E3
:1015D0009C8181309105A9F12B813C81223031051C
:1015E0002CF48B819C81009771F082C02B813C810F
:1015F0002230310509F443C08B819C8183309105F1
:1016000009F45AC075C08A81882339F4EAE3F0E00E
:101610001082EBE3F0E010826BC08A81813041F4EC
:10162000EAE3F0E01082EBE3F0E08FEF808360C04C
:101630008A818F3F09F05CC0EAE3F0E08FEF80839E
:1016400057C08A81882339F4E7E3F0E01082E8E3A9
:10165000F0E010824DC08A81813041F4E7E3F0E090
:101660001082E8E3F0E08FEF808342C08A818F3FF1
:1016700009F03EC0E7E3F0E08FEF808339C08A8154
:10168000882339F4E4E3F0E01082E5E3F0E010822F
:101690002FC08A81813041F4E4E3F0E01082E5E379
:1016A000F0E08FEF808324C08A818F3F09F5E4E367
:1016B000F0E08FEF80831CC08A81882339F4E1E356
:1016C000F0E01082E2E3F0E0108212C08A81813003
:1016D00041F4E1E3F0E01082E2E3F0E08FEF808399
:1016E00007C08A818F3F21F4E1E3F0E08FEF808330
:1016F0000F900F900F900F90CF91DF910895DF938F
:10170000CF9300D000D0CDB7DEB78A8319828A810B
:10171000843090F58A81282F30E03C832B838B81A5
:101720009C8181309105D1F02B813C8122303105A3
:101730002CF48B819C81009761F01EC02B813C8131
:101740002230310581F08B819C818330910581F0BD
:1017500013C0E9E3F0E0808189830EC0E6E3F0E0A6
:101760008081898309C0E3E3F0E08081898304C03C
:10177000E0E3F0E08081898389810F900F900F90E2
:101780000F90CF91DF910895DF93CF9300D000D0D9
:10179000CDB7DEB789836A838981843090F58981EA
:1017A000282F30E03C832B838B819C8181309105F5
:1017B000D1F02B813C81223031052CF48B819C812E
:1017C000009761F01EC02B813C812230310581F0F1
:1017D0008B819C818330910581F013C0EBE3F0E0B5
:1017E0008A8180830EC0E8E3F0E08A81808309C0AB
:1017F000E5E3F0E08A81808304C0E2E3F0E08A81DF
:1018000080830F900F900F900F90CF91DF910895EC
:10181000DF93CF9300D00F92CDB7DEB78983898154
:10182000843008F03EC08981282F30E03B832A8332
:101830008A819B8181309105E9F02A813B812230A8
:1018400031052CF48A819B81009761F02AC02A819E
:101850003B8122303105B1F08A819B818330910533
:10186000C9F01FC0ABE3B0E0EBE3F0E0808180950E
:101870008C9317C0A8E3B0E0E8E3F0E080818095A6
:101880008C930FC0A5E3B0E0E5E3F0E080818095A4
:101890008C9307C0A2E3B0E0E2E3F0E080818095A2
:1018A0008C930F900F900F90CF91DF9108951F921E
:1018B0000F920FB60F9211242F933F934F935F9384
:1018C0006F937F938F939F93AF93BF93EF93FF9308
:1018D000DF93CF93CDB7DEB780914C0190914D014E
:1018E000009729F0E0914C01F0914D010995CF91BD
:1018F000DF91FF91EF91BF91AF919F918F917F9178
:101900006F915F914F913F912F910F900FBE0F906C
:101910001F9018951F920F920FB60F9211242F93BC
:101920003F934F935F936F937F938F939F93AF9367
:10193000BF93EF93FF93DF93CF93CDB7DEB7809143
:101940004E0190914F01009729F0E0914E01F091E6
:101950004F010995CF91DF91FF91EF91BF91AF9129
:101960009F918F917F916F915F914F913F912F91B7
:101970000F900FBE0F901F9018951F920F920FB6E9
:101980000F9211242F933F934F935F936F937F9305
:101990008F939F93AF93BF93EF93FF93DF93CF9377
:1019A000CDB7DEB78091500190915101009729F099
:1019B000E0915001F09151010995CF91DF91FF9194
:1019C000EF91BF91AF919F918F917F916F915F91B7
:1019D0004F913F912F910F900FBE0F901F90189530
:1019E000DF93CF9300D0CDB7DEB79A838983898107
:1019F0009A8190934D0180934C010F900F90CF915D
:101A0000DF910895DF93CF9300D0CDB7DEB79A83EF
:101A1000898389819A8190934F0180934E010F9021
:101A20000F90CF91DF910895DF93CF9300D0CDB782
:101A3000DEB79A83898389819A819093510180933B
:101A400050010F900F90CF91DF910895DF93CF93C6
:101A500000D0CDB7DEB789836A8383E062E04A8134
:101A60000E94CE06A5E5B0E0E5E5F0E08081982F84
:101A70009C7F8981892B8C93ABE5B0E0EBE5F0E0AE
:101A8000808180648C930F900F90CF91DF910895A7
:101A9000DF93CF9300D0CDB7DEB789836A8383E02D
:101AA00063E04A810E94CE06A5E5B0E0E5E5F0E0FE
:101AB0008081282F237F8981882F90E0880F991FAC
:101AC000880F991F822B8C93ABE5B0E0EBE5F0E03B
:101AD000808180688C930F900F90CF91DF91089553
:101AE000DF93CF9300D0CDB7DEB789836A8381E0DF
:101AF00062E04A810E94CE068981823041F4A4E5E9
:101B0000B0E0E4E5F0E080818F7B8C930AC08981AE
:101B1000833039F4A4E5B0E0E4E5F0E0808180644E
:101B20008C93ABE5B0E0EBE5F0E0808180628C93D4
:101B30000F900F90CF91DF910895DF93CF93CDB7A2
:101B4000DEB7ABE5B0E0EBE5F0E080818F7B8C9316
:101B5000CF91DF910895DF93CF93CDB7DEB7ABE59B
:101B6000B0E0EBE5F0E080818F778C93CF91DF914F
:101B70000895DF93CF93CDB7DEB7ABE5B0E0EBE5EB
:101B8000F0E080818F7D8C93CF91DF910895DF937A
:101B9000CF930F92CDB7DEB7898389818770898310
:101BA000A7E2B0E0E7E2F0E08081982F907E8981A3
:101BB000892B8C93A6E2B0E0E6E2F0E080818064BD
:101BC0008C930F90CF91DF910895DF93CF93CDB792
:101BD000DEB7A7E2B0E0E7E2F0E08081282F2F73C4
:101BE0008091ED00882F90E00024969587950794CA
:101BF000969587950794982F802D822B8C938091B2
:101C0000EE00882341F4A7E2B0E0E7E2F0E0808153
:101C10008F7D8C930BC08091EE00813039F4A7E268
:101C2000B0E0E7E2F0E0808180628C93A6E2B0E071
:101C3000E6E2F0E0808180688C938091EC0088235C
:101C400099F18091EC00813079F4A6E2B0E0E6E20F
:101C5000F0E0808180628C93A0E5B0E0E0E5F0E008
:101C600080818F708C9320C08091EC008230E1F4F1
:101C7000A6E2B0E0E6E2F0E0808180628C93A0E52D
:101C8000B0E0E0E5F0E08081282F2F708091F00037
:101C9000882F90E0880F991F82959295907F9827C2
:101CA000807F9827822B8C93A6E2B0E0E6E2F0E0FA
:101CB0008081982F987F8091EF008770892B8C937B
:101CC000A6E2B0E0E6E2F0E08081877F8C93CF91DE
:101CD000DF910895DF93CF930F92CDB7DEB789835D
:101CE00089810E94C70DE6E2F0E08081882F90E0B4
:101CF000807190700097B9F30E949E0E90935301EB
:101D000080935201A6E2B0E0E6E2F0E080818061DB
:101D10008C9380915201909153010F90CF91DF915C
:101D20000895DF93CF930F92CDB7DEB78983898172
:101D30000E94C70D0F90CF91DF910895DF93CF934D
:101D400000D0CDB7DEB71A8219828091EE008823C9
:101D5000B9F4E4E2F0E08081882F90E09A838983EF
:101D6000E5E2F0E08081882F90E083709070382F5A
:101D7000222789819A81822B932B9A83898320C081
:101D80008091EE008130E1F4E4E2F0E08081829520
:101D9000869586958370882F90E090709A838983CA
:101DA000E5E2F0E08081882F90E09C01220F331F54
:101DB000220F331F89819A81822B932B9A838983E7
:101DC00089819A810F900F90CF91DF910895DF93D1
:101DD000CF930F92CDB7DEB7898380E0698140E071
:101DE0000E94CE060F90CF91DF910895DF93CF939D
:101DF00000D00F92CDB7DEB789830F900F900F9070
:101E0000CF91DF910895DF93CF9300D0CDB7DEB7A8
:101E100089836A8389816A8142E00E94CE060F909D
:101E20000F90CF91DF910895DF93CF9300D00F9261
:101E3000CDB7DEB789836A834B838B81882331F4E6
:101E400089816A8140E00E94570908C08B818130F6
:101E500029F489816A8141E00E9457090F900F900F
:101E60000F90CF91DF910895DF93CF9300D00F9221
:101E7000CDB7DEB789836A834B838B81882331F4A6
:101E800089816A8141E00E94570908C08B818130B5
:101E900029F489816A8140E00E9457090F900F90D0
:101EA0000F90CF91DF910895DF93CF9300D0CDB7FE
:101EB000DEB789836A8389816A810E94510A0F9003
:101EC0000F90CF91DF910895DF93CF93CDB7DEB719
:101ED00080E063E042E00E94CE0680E062E042E003
:101EE0000E94CE0681E060E042E00E94CE0681E0E2
:101EF00061E042E00E94CE0681E062E042E00E94A2
:101F0000CE0681E064E042E00E94CE0682E00E94BC
:101F1000950F88E20E94950F8CE00E94950F81E05A
:101F20000E94950FCF91DF9108950F931F93DF9338
:101F3000CF93CDB7DEB7C456D0400FB6F894DEBF0E
:101F40000FBECDBFFE01EC59FF4F808380E063E000
:101F500040E00E945709FE01E15AFF4F80E090E007
:101F6000A0E8BFE380839183A283B3838E01055AE7
:101F70001F4FFE01E15AFF4F608171818281938181
:101F800020E030E04AE755E40E941F02DC01CB016B
:101F9000F80180839183A283B383FE01E55AFF4F4A
:101FA000608171818281938120E030E040E85FE3CD
:101FB0000E947903882344F4FE01E75AFF4F81E031
:101FC00090E09183808364C0FE01E55AFF4F6081F9
:101FD00071818281938120E03FEF4FE757E40E94B7
:101FE000190318160CF043C0FE01E15AFF4F60813F
:101FF00071818281938120E030E040E251E40E94CF
:102000001F02DC01CB018E01075A1F4FBC01CD011D
:102010000E944900DC01CB01F801918380831FC03D
:10202000FE01E95AFF4F80E991E091838083FE0130
:10203000E95AFF4F808191810197F1F7FE01E95A3A
:10204000FF4F91838083DE01A75ABF4FFE01E75AFD
:10205000FF4F80819181019711969C938E93FE0191
:10206000E75AFF4F808191810097D1F627C08E01FA
:10207000075A1F4FFE01E55AFF4F6081718182812F
:1020800093810E944900DC01CB01F8019183808398
:10209000DE01AB5ABF4FFE01E75AFF4F80819181AD
:1020A0008D939C93FE01EB5AFF4F808191810197A4
:1020B000F1F7FE01EB5AFF4F9183808380E062E0ED
:1020C00041E00E945709FE01EF5AFF4F80E090E087
:1020D000A0E8BFE380839183A283B3838E01035B77
:1020E0001F4FFE01EF5AFF4F608171818281938102
:1020F00020E030E04AE755E40E941F02DC01CB01FA
:10210000F80180839183A283B383FE01E35BFF4FD9
:10211000608171818281938120E030E040E85FE35B
:102120000E947903882344F4FE01E55BFF4F81E0C0
:1021300090E09183808364C0FE01E35BFF4F608188
:1021400071818281938120E03FEF4FE757E40E9445
:10215000190318160CF043C0FE01EF5AFF4F6081BF
:1021600071818281938120E030E040E251E40E945D
:102170001F02DC01CB018E01055B1F4FBC01CD01AD
:102180000E944900DC01CB01F801918380831FC0CC
:10219000FE01E75BFF4F80E991E091838083FE01C0
:1021A000E75BFF4F808191810197F1F7FE01E75BCB
:1021B000FF4F91838083DE01A55BBF4FFE01E55B8E
:1021C000FF4F80819181019711969C938E93FE0120
:1021D000E55BFF4F808191810097D1F627C08E018A
:1021E000055B1F4FFE01E35BFF4F608171818281C0
:1021F00093810E944900DC01CB01F8019183808327
:10220000DE01A95BBF4FFE01E55BFF4F808191813D
:102210008D939C93FE01E95BFF4F80819181019733
:10222000F1F7FE01E95BFF4F91838083DE01AD5939
:10223000BF4FFE01EC59FF4F808182958F708C93C8
:10224000FE01ED59FF4F8081982F917081E060E091
:10225000492F0E945709FE01ED59FF4F8081869555
:10226000982F917081E061E0492F0E945709FE018B
:10227000ED59FF4F808186958695982F917081E06A
:1022800062E0492F0E945709FE01ED59FF4F8081FE
:10229000869586958695982F917081E064E0492F08
:1022A0000E945709FE01ED5BFF4F80E090E0A0E83F
:1022B000BFE380839183A283B3838E01015C1F4FB0
:1022C000FE01ED5BFF4F608171818281938120E08F
:1022D00030E04AE755E40E941F02DC01CB01F8011F
:1022E00080839183A283B383FE01FF966081718115
:1022F0008281938120E030E040E85FE30E9479032F
:1023000088232CF481E090E09EAF8DAF46C0FE01A3
:10231000FF96608171818281938120E03FEF4FE7DA
:1023200057E40E941903181664F5FE01ED5BFF4F98
:10233000608171818281938120E030E040E251E44C
:102340000E941F02DC01CB01BC01CD010E944900AB
:10235000DC01CB019EAF8DAF0FC080E991E09CAF57
:102360008BAF8BAD9CAD0197F1F79CAF8BAF8DAD73
:102370009EAD01979EAF8DAF8DAD9EAD009769F775
:1023800016C0FE01FF9660817181828193810E9457
:102390004900DC01CB019EAF8DAF8DAD9EAD9AAFF4
:1023A00089AF89AD9AAD0197F1F79AAF89AF80E017
:1023B00062E040E00E94570980E090E0A0E8BFE3BF
:1023C0008DAB9EABAFABB8AF6DA97EA98FA998AD11
:1023D00020E030E04AE755E40E941F02DC01CB0117
:1023E00089AB9AABABABBCAB69A97AA98BA99CA909
:1023F00020E030E040E85FE30E94790388232CF47A
:1024000081E090E098AB8FA73FC069A97AA98BA91A
:102410009CA920E03FEF4FE757E40E9419031816EC
:102420004CF56DA97EA98FA998AD20E030E040E27F
:1024300051E40E941F02DC01CB01BC01CD010E94CE
:102440004900DC01CB0198AB8FA70FC080E991E078
:102450009EA78DA78DA59EA50197F1F79EA78DA795
:102460008FA598A9019798AB8FA78FA598A90097DA
:1024700069F714C069A97AA98BA99CA90E9449008F
:10248000DC01CB0198AB8FA78FA598A99CA78BA740
:102490008BA59CA50197F1F79CA78BA780E062E034
:1024A00041E00E94570980E090E0A0E8BFE38FA3DD
:1024B00098A7A9A7BAA76FA178A589A59AA520E092
:1024C00030E04AE755E40E941F02DC01CB018BA3F8
:1024D0009CA3ADA3BEA36BA17CA18DA19EA120E076
:1024E00030E040E85FE30E94790388232CF481E028
:1024F00090E09AA389A33FC06BA17CA18DA19EA16E
:1025000020E03FEF4FE757E40E94190318164CF5FF
:102510006FA178A589A59AA520E030E040E251E4BA
:102520000E941F02DC01CB01BC01CD010E944900C9
:10253000DC01CB019AA389A30FC080E991E098A3A5
:102540008F8F8F8D98A10197F1F798A38F8F89A115
:102550009AA101979AA389A389A19AA1009769F7E3
:1025600014C06BA17CA18DA19EA10E944900DC0139
:10257000CB019AA389A389A19AA19E8F8D8F8D8D5E
:102580009E8D0197F1F79E8F8D8FDE01AD59BF4F64
:10259000FE01EC59FF4F80818F708C93FE01ED5945
:1025A000FF4F8081982F917081E060E0492F0E9459
:1025B0005709FE01ED59FF4F80818695982F917044
:1025C00081E061E0492F0E945709FE01ED59FF4F5C
:1025D000808186958695982F917081E062E0492FE1
:1025E0000E945709FE01ED59FF4F8081869586951F
:1025F0008695982F917081E064E0492F0E945709D9
:1026000080E090E0A0E8BFE3898F9A8FAB8FBC8F0A
:10261000698D7A8D8B8D9C8D20E030E04AE755E402
:102620000E941F02DC01CB018D8B9E8BAF8BB88F7C
:102630006D897E898F89988D20E030E040E85FE3E6
:102640000E94790388232CF481E090E09C8B8B8B93
:102650003FC06D897E898F89988D20E03FEF4FE7DD
:1026600057E40E94190318164CF5698D7A8D8B8DED
:102670009C8D20E030E040E251E40E941F02DC012A
:10268000CB01BC01CD010E944900DC01CB019C8B38
:102690008B8B0FC080E991E09A8B898B89899A890D
:1026A0000197F1F79A8B898B8B899C8901979C8B79
:1026B0008B8B8B899C89009769F714C06D897E8903
:1026C0008F89988D0E944900DC01CB019C8B8B8BFC
:1026D0008B899C89988B8F878F8598890197F1F7D3
:1026E000988B8F8780E062E040E00E94570980E08D
:1026F00090E0A0E8BFE38B879C87AD87BE876B85A2
:102700007C858D859E8520E030E04AE755E40E9477
:102710001F02DC01CB018F839887A987BA876F815D
:10272000788589859A8520E030E040E85FE30E9463
:10273000790388232CF481E090E09E838D833FC051
:102740006F81788589859A8520E03FEF4FE757E4D0
:102750000E94190318164CF56B857C858D859E8526
:1027600020E030E040E251E40E941F02DC01CB0196
:10277000BC01CD010E944900DC01CB019E838D8309
:102780000FC080E991E09C838B838B819C810197B2
:10279000F1F79C838B838D819E8101979E838D832E
:1027A0008D819E81009769F714C06F817885898536
:1027B0009A850E944900DC01CB019E838D838D8127
:1027C0009E819A83898389819A810197F1F79A83FF
:1027D0008983CC59DF4F0FB6F894DEBF0FBECDBF53
:1027E000CF91DF911F910F9108950F931F93DF9366
:1027F000CF93CDB7DEB7C456D0400FB6F894DEBF46
:102800000FBECDBFFE01EC59FF4F808380E063E037
:1028100041E00E945709FE01E15AFF4F80E090E03D
:10282000A0E8BFE380839183A283B3838E01055A1E
:102830001F4FFE01E15AFF4F6081718182819381B8
:1028400020E030E04AE755E40E941F02DC01CB01A2
:10285000F80180839183A283B383FE01E55AFF4F81
:10286000608171818281938120E030E040E85FE304
:102870000E947903882344F4FE01E75AFF4F81E068
:1028800090E09183808364C0FE01E55AFF4F608130
:1028900071818281938120E03FEF4FE757E40E94EE
:1028A000190318160CF043C0FE01E15AFF4F608176
:1028B00071818281938120E030E040E251E40E9406
:1028C0001F02DC01CB018E01075A1F4FBC01CD0155
:1028D0000E944900DC01CB01F801918380831FC075
:1028E000FE01E95AFF4F80E991E091838083FE0168
:1028F000E95AFF4F808191810197F1F7FE01E95A72
:10290000FF4F91838083DE01A75ABF4FFE01E75A34
:10291000FF4F80819181019711969C938E93FE01C8
:10292000E75AFF4F808191810097D1F627C08E0131
:10293000075A1F4FFE01E55AFF4F60817181828166
:1029400093810E944900DC01CB01F80191838083CF
:10295000DE01AB5ABF4FFE01E75AFF4F80819181E4
:102960008D939C93FE01EB5AFF4F808191810197DB
:10297000F1F7FE01EB5AFF4F9183808380E062E024
:1029800041E00E945709FE01EF5AFF4F80E090E0BE
:10299000A0E8BFE380839183A283B3838E01035BAE
:1029A0001F4FFE01EF5AFF4F608171818281938139
:1029B00020E030E04AE755E40E941F02DC01CB0131
:1029C000F80180839183A283B383FE01E35BFF4F11
:1029D000608171818281938120E030E040E85FE393
:1029E0000E947903882344F4FE01E55BFF4F81E0F8
:1029F00090E09183808364C0FE01E35BFF4F6081C0
:102A000071818281938120E03FEF4FE757E40E947C
:102A1000190318160CF043C0FE01EF5AFF4F6081F6
:102A200071818281938120E030E040E251E40E9494
:102A30001F02DC01CB018E01055B1F4FBC01CD01E4
:102A40000E944900DC01CB01F801918380831FC003
:102A5000FE01E75BFF4F80E991E091838083FE01F7
:102A6000E75BFF4F808191810197F1F7FE01E75B02
:102A7000FF4F91838083DE01A55BBF4FFE01E55BC5
:102A8000FF4F80819181019711969C938E93FE0157
:102A9000E55BFF4F808191810097D1F627C08E01C1
:102AA000055B1F4FFE01E35BFF4F608171818281F7
:102AB00093810E944900DC01CB01F801918380835E
:102AC000DE01A95BBF4FFE01E55BFF4F8081918175
:102AD0008D939C93FE01E95BFF4F8081918101976B
:102AE000F1F7FE01E95BFF4F91838083DE01AD5971
:102AF000BF4FFE01EC59FF4F808182958F708C9300
:102B0000FE01ED59FF4F8081982F917081E060E0C8
:102B1000492F0E945709FE01ED59FF4F808186958C
:102B2000982F917081E061E0492F0E945709FE01C2
:102B3000ED59FF4F808186958695982F917081E0A1
:102B400062E0492F0E945709FE01ED59FF4F808135
:102B5000869586958695982F917081E064E0492F3F
:102B60000E945709FE01ED5BFF4F80E090E0A0E876
:102B7000BFE380839183A283B3838E01015C1F4FE7
:102B8000FE01ED5BFF4F608171818281938120E0C6
:102B900030E04AE755E40E941F02DC01CB01F80156
:102BA00080839183A283B383FE01FF96608171814C
:102BB0008281938120E030E040E85FE30E94790366
:102BC00088232CF481E090E09EAF8DAF46C0FE01DB
:102BD000FF96608171818281938120E03FEF4FE712
:102BE00057E40E941903181664F5FE01ED5BFF4FD0
:102BF000608171818281938120E030E040E251E484
:102C00000E941F02DC01CB01BC01CD010E944900E2
:102C1000DC01CB019EAF8DAF0FC080E991E09CAF8E
:102C20008BAF8BAD9CAD0197F1F79CAF8BAF8DADAA
:102C30009EAD01979EAF8DAF8DAD9EAD009769F7AC
:102C400016C0FE01FF9660817181828193810E948E
:102C50004900DC01CB019EAF8DAF8DAD9EAD9AAF2B
:102C600089AF89AD9AAD0197F1F79AAF89AF80E04E
:102C700062E040E00E94570980E090E0A0E8BFE3F6
:102C80008DAB9EABAFABB8AF6DA97EA98FA998AD48
:102C900020E030E04AE755E40E941F02DC01CB014E
:102CA00089AB9AABABABBCAB69A97AA98BA99CA940
:102CB00020E030E040E85FE30E94790388232CF4B1
:102CC00081E090E098AB8FA73FC069A97AA98BA952
:102CD0009CA920E03FEF4FE757E40E941903181624
:102CE0004CF56DA97EA98FA998AD20E030E040E2B7
:102CF00051E40E941F02DC01CB01BC01CD010E9406
:102D00004900DC01CB0198AB8FA70FC080E991E0AF
:102D10009EA78DA78DA59EA50197F1F79EA78DA7CC
:102D20008FA598A9019798AB8FA78FA598A9009711
:102D300069F714C069A97AA98BA99CA90E944900C6
:102D4000DC01CB0198AB8FA78FA598A99CA78BA777
:102D50008BA59CA50197F1F79CA78BA780E062E06B
:102D600041E00E94570980E090E0A0E8BFE38FA314
:102D700098A7A9A7BAA76FA178A589A59AA520E0C9
:102D800030E04AE755E40E941F02DC01CB018BA32F
:102D90009CA3ADA3BEA36BA17CA18DA19EA120E0AD
:102DA00030E040E85FE30E94790388232CF481E05F
:102DB00090E09AA389A33FC06BA17CA18DA19EA1A5
:102DC00020E03FEF4FE757E40E94190318164CF537
:102DD0006FA178A589A59AA520E030E040E251E4F2
:102DE0000E941F02DC01CB01BC01CD010E94490001
:102DF000DC01CB019AA389A30FC080E991E098A3DD
:102E00008F8F8F8D98A10197F1F798A38F8F89A14C
:102E10009AA101979AA389A389A19AA1009769F71A
:102E200014C06BA17CA18DA19EA10E944900DC0170
:102E3000CB019AA389A389A19AA19E8F8D8F8D8D95
:102E40009E8D0197F1F79E8F8D8FDE01AD59BF4F9B
:102E5000FE01EC59FF4F80818F708C93FE01ED597C
:102E6000FF4F8081982F917081E060E0492F0E9490
:102E70005709FE01ED59FF4F80818695982F91707B
:102E800081E061E0492F0E945709FE01ED59FF4F93
:102E9000808186958695982F917081E062E0492F18
:102EA0000E945709FE01ED59FF4F80818695869556
:102EB0008695982F917081E064E0492F0E94570910
:102EC00080E090E0A0E8BFE3898F9A8FAB8FBC8F42
:102ED000698D7A8D8B8D9C8D20E030E04AE755E43A
:102EE0000E941F02DC01CB018D8B9E8BAF8BB88FB4
:102EF0006D897E898F89988D20E030E040E85FE31E
:102F00000E94790388232CF481E090E09C8B8B8BCA
:102F10003FC06D897E898F89988D20E03FEF4FE714
:102F200057E40E94190318164CF5698D7A8D8B8D24
:102F30009C8D20E030E040E251E40E941F02DC0161
:102F4000CB01BC01CD010E944900DC01CB019C8B6F
:102F50008B8B0FC080E991E09A8B898B89899A8944
:102F60000197F1F79A8B898B8B899C8901979C8BB0
:102F70008B8B8B899C89009769F714C06D897E893A
:102F80008F89988D0E944900DC01CB019C8B8B8B33
:102F90008B899C89988B8F878F8598890197F1F70A
:102FA000988B8F8780E062E040E00E94570980E0C4
:102FB00090E0A0E8BFE38B879C87AD87BE876B85D9
:102FC0007C858D859E8520E030E04AE755E40E94AF
:102FD0001F02DC01CB018F839887A987BA876F8195
:102FE000788589859A8520E030E040E85FE30E949B
:102FF000790388232CF481E090E09E838D833FC089
:103000006F81788589859A8520E03FEF4FE757E407
:103010000E94190318164CF56B857C858D859E855D
:1030200020E030E040E251E40E941F02DC01CB01CD
:10303000BC01CD010E944900DC01CB019E838D8340
:103040000FC080E991E09C838B838B819C810197E9
:10305000F1F79C838B838D819E8101979E838D8365
:103060008D819E81009769F714C06F81788589856D
:103070009A850E944900DC01CB019E838D838D815E
:103080009E819A83898389819A810197F1F79A8336
:103090008983809155018F5F8093550180915501FF
:1030A000843169F4809154018F5F809354011092B0
:1030B000550180915401843111F410925401CC597E
:1030C000DF4F0FB6F894DEBF0FBECDBFCF91DF91BB
:1030D0001F910F910895DF93CF9300D00F92CDB73A
:1030E000DEB79B838A8319820EC08981282F30E046
:1030F0008A819B81FC01E20FF31F80810E94F513FE
:1031000089818F5F89838981282F30E08A819B8123
:10311000FC01E20FF31F8081882339F70F900F9095
:103120000F90CF91DF910895DF93CF9300D000D01F
:103130000F92CDB7DEB78A836B838A81282F30E068
:103140003D832C838C819D8181309105E9F02C8118
:103150003D81223031052CF48C819D81009761F0F6
:1031600030C02C813D8122303105C1F08C819D81A0
:1031700083309105E9F025C08B8189838B81809311
:103180005501109254011DC08B81805C89838B8115
:103190008093550181E08093540113C08B818C5E34
:1031A00089838B818093550182E08093540109C00B
:1031B0008B818C5A89838B818093550183E0809326
:1031C0005401898180680E94950F0F900F900F9095
:1031D0000F900F90CF91DF910895DF93CF9300D0A0
:1031E00000D0CDB7DEB79A8389836B834C838B8104
:1031F0006C810E94941889819A810E946B180F90AB
:103200000F900F900F90CF91DF910895DF93CF93A0
:10321000CDB7DEB7109255011092540181E00E94A3
:10322000950FCF91DF910895DF93CF93CDB7DEB7A0
:1032300080915501833189F480915401882369F488
:103240001092550181E08093540180915401909136
:103250005501692F0E94941846C080915501833111
:1032600089F480915401813069F41092550182E013
:10327000809354018091540190915501692F0E94CF
:10328000941831C080915501833189F480915401A3
:10329000823069F41092550183E08093540180914B
:1032A000540190915501692F0E9494181CC080917F
:1032B0005501833181F480915401833061F410927F
:1032C0005501109254018091540190915501692F3C
:1032D0000E94941808C084E10E94950F80915501C6
:1032E0008F5F80935501CF91DF910895DF93CF9346
:1032F000CDB7DEB780915501882391F480915401B8
:10330000882371F483E18093550183E08093540115
:103310008091540190915501692F0E94941849C0E1
:1033200080915501882389F480915401813069F49A
:1033300083E1809355011092540180915401909142
:103340005501692F0E94941834C08091550188233B
:1033500091F480915401823071F483E1809355019E
:1033600081E0809354018091540190915501692F1F
:103370000E9494181EC080915501882391F4809179
:103380005401833071F483E18093550182E080938E
:1033900054018091540190915501692F0E94941815
:1033A00008C080E10E94950F809155018150809363
:1033B0005501CF91DF910895DF93CF93CDB7DEB75D
:1033C0008CE10E94950FCF91DF910895DF93CF9309
:1033D000CDB7DEB788E10E94950FCF91DF910895B8
:1033E000DF93CF9300D000D0CDB7DEB79B838A8325
:1033F0006C838C81882F90E00896880F991F880F26
:10340000991F880F991F0E94950F19820EC08981FC
:10341000282F30E08A819B81FC01E20FF31F80811D
:103420000E94F51389818F5F89838981883078F3C1
:103430000F900F900F900F90CF91DF910895DF9331
:10344000CF930F92CDB7DEB7898389810E94F513A0
:103450000F90CF91DF910895DF93CF9300D00F921B
:10346000CDB7DEB789836A834B838A816B810E94E3
:10347000941889810E94F5130F900F900F90CF91AF
:10348000DF910895DF93CF93CDB7DEB765970FB681
:10349000F894DEBF0FBECDBF6A8B7B8B8C8B9D8B70
:1034A0008A899B899E012F5F3F4FB9014AE050E016
:1034B0000E94F821CE0101960E946B1865960FB606
:1034C000F894DEBF0FBECDBFCF91DF910895DF939B
:1034D000CF9300D000D0CDB7DEB78A8319828A811E
:1034E000282F30E03C832B838B819C818A3091058F
:1034F00081F02B813C812A3031059CF08B819C81AD
:103500008B30910549F02B813C812C30310531F015
:1035100008C08AE2898307C0198205C083E28983D3
:1035200002C08A81898389810F900F900F900F903C
:10353000CF91DF910895DF93CF9300D0CDB7DEB761
:103540001A820FC08A81882F90E0FC01EC5FFE4F49
:10355000908182E0692F41E00E94CE068A818F5FD0
:103560008A838A81843070F319821BC08981882FF5
:1035700090E0FC01EF5FFE4F908183E0692F42E015
:103580000E94CE068981882F90E0FC01EF5FFE4FFC
:10359000908183E0692F41E00E94570989818F5F04
:1035A00089838981833010F30F900F90CF91DF9141
:1035B0000895DF93CF9300D000D000D0CDB7DEB711
:1035C0001D820FC08D81882F90E0FC01EF5FFE4FC0
:1035D000908183E0692F41E00E9457098D818F5FC0
:1035E0008D838D81833070F38FEF9FEF9A83898372
:1035F0001C8245C08C81882F90E0FC01EF5FFE4F5C
:10360000908183E0692F40E00E9457091B8225C00A
:103610008B81882F90E0FC01EC5FFE4F908182E06F
:10362000692F0E94BC088823A9F48B81282F30E0E1
:10363000C901880F991F820F931F982F8C81890FC2
:103640008F5F0E94671A882F90E09A83898389810F
:103650008E831BC08B818F5F8B838B818430C0F204
:103660008C81882F90E0FC01EF5FFE4F908183E01A
:10367000692F41E00E9457098C818F5F8C838C8178
:10368000833008F4B7CF89818E838E8126960FB65A
:10369000F894DEBF0FBECDBFCF91DF910895DF93C9
:1036A000CF9300D0CDB7DEB789836A8389816A81E1
:1036B00042E00E94CE060F900F90CF91DF910895C7
:1036C000DF93CF9300D00F92CDB7DEB789836A83A3
:1036D0004B838B81882331F489816A8140E00E9489
:1036E000570908C08B81813029F489816A8141E0C2
:1036F0000E9457090F900F900F90CF91DF9108957E
:10370000DF93CF9300D00F92CDB7DEB789836A8362
:103710004B838B81882331F489816A8141E00E9447
:10372000570908C08B81813029F489816A8140E082
:103730000E9457090F900F900F90CF91DF9108953D
:10374000DF93CF9300D0CDB7DEB789836A838981B9
:103750006A810E94510A0F900F90CF91DF910895D6
:10376000DF93CF9300D00F92CDB7DEB789836A8302
:103770004B8389816A814B810E94CE060F900F9006
:103780000F90CF91DF910895DF93CF9300D0CDB705
:10379000DEB789836A8389816A810E94BC080F90A1
:1037A0000F90CF91DF910895DF93CF93CDB7DEB720
:1037B00080E066E00E94030F81E067E00E94030F53
:1037C00082E066E00E944F1B0E94640F0E94E50D9C
:1037D00083E060E00E94260D0E949B1A89E091E040
:1037E00060E00E94F01981E191E061E00E94F0192F
:1037F00089E191E062E00E94F01981E291E063E0EA
:103800000E94F01989E291E064E00E94F01981E3DE
:1038100091E065E00E94F01989E391E066E00E9482
:10382000F01981E491E067E00E94F019CF91DF91F7
:103830000895DF93CF93CDB7DEB7809156018130E5
:1038400091F480915601813071F480916401882354
:1038500031F40E946F2181E08093640104C01092D2
:1038600064010E947A2080915601833081F4809116
:103870005601833041F480916301882341F481E053
:103880008093630104C0109263010E947A208091AA
:103890005601882381F480915601882341F4809158
:1038A0006201882341F481E08093620104C0109298
:1038B00062010E947A2080915601823091F48091B9
:1038C0005601823051F480916101882351F40E94A5
:1038D000902181E08093610104C0109261010E94F7
:1038E0007A20CF91DF910895DF93CF930F92CDB7D8
:1038F000DEB70E94D91A80930801809108018230B6
:1039000019F40E94651E02C010925B0180910801AB
:10391000882319F40E94DB2002C010925F0180917D
:103920000801813019F40E941A1F02C010925D0133
:1039300080910801833019F40E94FB1E02C010928E
:103940005C018091080180910801883019F40E947F
:10395000252102C01092600180910801893049F44C
:1039600082E062E00E94941880910801805D0E94CC
:10397000F513809108018A3219F40E94912002C047
:1039800010925E010F90CF91DF910895DF93CF9356
:10399000CDB7DEB76C970FB6F894DEBF0FBECDBFC4
:1039A0000E94061980E066E00E94941880E690E08C
:1039B0000E946B1881E066E00E94941888E690E00F
:1039C0000E946B1882E066E00E9494188DE690E0F9
:1039D0000E946B1883E066E00E94941883E790E0F1
:1039E0000E946B1880E090E0AAE7B4E4898F9A8F78
:1039F000AB8FBC8F698D7A8D8B8D9C8D20E030E0F4
:103A00004AE753E40E941F02DC01CB018D8B9E8BA1
:103A1000AF8BB88F6D897E898F89988D20E030E0DB
:103A200040E85FE30E94790388232CF481E090E072
:103A30009C8B8B8B3FC06D897E898F89988D20E010
:103A40003FEF4FE757E40E94190318164CF5698DB4
:103A50007A8D8B8D9C8D20E030E040E251E40E9415
:103A60001F02DC01CB01BC01CD010E944900DC0139
:103A7000CB019C8B8B8B0FC089E190E09A8B898B5B
:103A800089899A890197F1F79A8B898B8B899C890F
:103A900001979C8B8B8B8B899C89009769F714C04D
:103AA0006D897E898F89988D0E944900DC01CB0148
:103AB0009C8B8B8B8B899C89988B8F878F85988922
:103AC0000197F1F7988B8F870E94061983E060E0D9
:103AD0000E9494188CE790E00E946B1883E064E0E9
:103AE0000E94941880E890E00E946B1883E068E0E0
:103AF0000E94941883E890E00E946B1880E069E0CF
:103B00000E94941886E890E00E946B1881E069E0BA
:103B10000E94941882E990E00E946B180E94D11EC6
:103B200082E06FE00E94941880E00E941F1A82E0F9
:103B300061E10E94941880E00E941F1A82E063E114
:103B40000E94941880E00E941F1A83E060E10E94A6
:103B5000941881E00E941F1A83E061E10E9494188A
:103B600081E00E941F1A83E062E10E94941881E0C4
:103B70000E941F1A83E063E10E94941881E00E9472
:103B80001F1A80E090E0AAEFB4E48B879C87AD8792
:103B9000BE876B857C858D859E8520E030E04AE779
:103BA00053E40E941F02DC01CB018F839887A98711
:103BB000BA876F81788589859A8520E030E040E872
:103BC0005FE30E94790388232CF481E090E09E83D8
:103BD0008D833FC06F81788589859A8520E03FEF8E
:103BE0004FE757E40E94190318164CF56B857C8546
:103BF0008D859E8520E030E040E251E40E941F0266
:103C0000DC01CB01BC01CD010E944900DC01CB01EC
:103C10009E838D830FC089E190E09C838B838B8191
:103C20009C810197F1F79C838B838D819E81019705
:103C30009E838D838D819E81009769F714C06F816B
:103C4000788589859A850E944900DC01CB019E8395
:103C50008D838D819E819A83898389819A81019741
:103C6000F1F79A8389830E9406190E94401E6C9680
:103C70000FB6F894DEBF0FBECDBFCF91DF91089590
:103C8000DF93CF93CDB7DEB780E069E00E94941850
:103C90008EE990E00E946B1881E069E00E94941820
:103CA00082E990E00E946B1883E06BE00E94941818
:103CB0008AEA90E00E946B1880915601882F90E06C
:103CC0000E94391FCF91DF910895DF93CF93CDB735
:103CD000DEB780915B01882391F481E080935B01E2
:103CE00080915A018F5F80935A0180915A018330ED
:103CF00011F410925A0180915A010E94821ECF91B4
:103D0000DF910895DF93CF9300D00F92CDB7DEB748
:103D100089838981282F30E03B832A838A819B8194
:103D200081309105C9F02A813B812230310521F192
:103D30008A819B81009779F582E06FE00E94941858
:103D400080EB90E00E946B1882E061E10E94941881
:103D500080E00E941F1A1FC082E06FE00E9494184A
:103D600080EB90E00E946B1882E063E10E9494185F
:103D700080E00E941F1A0FC082E06FE00E9494183A
:103D800080EB90E00E946B1882E06FE00E94941834
:103D900080E00E941F1A0F900F900F90CF91DF913B
:103DA0000895DF93CF93CDB7DEB783E06BE00E9439
:103DB000941883E00E941F1A83E06CE00E9494181C
:103DC00084E00E941F1A83E06DE00E94941885E051
:103DD0000E941F1A83E06EE00E94941886E00E9401
:103DE0001F1A83E06FE00E94941887E00E941F1A58
:103DF000CF91DF910895DF93CF93CDB7DEB7809158
:103E00005C018823A1F481E080935C0180915601DC
:103E10008F5F8093560180915601843011F4109287
:103E2000560180915601882F90E00E94391FCF9152
:103E3000DF910895DF93CF93CDB7DEB780915D0119
:103E40008823A1F481E080935D01809156018F5F0A
:103E50008093560180915601843011F410925601DE
:103E600080915601882F90E00E94DA1FCF91DF9158
:103E70000895DF93CF9300D00F92CDB7DEB789833B
:103E80008981282F30E03B832A838A819B8181307E
:103E9000910509F450C02A813B81223031052CF470
:103EA0008A819B81009769F07FC02A813B81223003
:103EB000310509F45DC08A819B8183309105F1F061
:103EC00073C083E060E10E94941882E00E941F1A90
:103ED00083E061E10E94941881E00E941F1A83E050
:103EE00062E10E94941882E00E941F1A83E063E15D
:103EF0000E94941882E00E941F1A56C083E060E17D
:103F00000E94941881E00E941F1A83E061E10E94E0
:103F1000941882E00E941F1A83E062E10E949418C4
:103F200082E00E941F1A83E063E10E94941882E0FD
:103F30000E941F1A39C083E060E10E94941882E059
:103F40000E941F1A83E061E10E94941882E00E949F
:103F50001F1A83E062E10E94941881E00E941F1AF8
:103F600083E063E10E94941882E00E941F1A1CC043
:103F700083E060E10E94941882E00E941F1A83E0AF
:103F800061E10E94941882E00E941F1A83E062E1BE
:103F90000E94941882E00E941F1A83E063E10E944D
:103FA000941881E00E941F1A0F900F900F90CF91EC
:103FB000DF910895DF93CF9300D00F92CDB7DEB796
:103FC00089838981282F30E03B832A838A819B81E2
:103FD0008130910599F12A813B81223031052CF401
:103FE0008A819B81009769F07FC02A813B812230C2
:103FF000310509F45DC08A819B8183309105D9F137
:1040000073C083E060E10E94941882E00E941F1A4E
:1040100083E061E10E94941881E00E941F1A83E00E
:1040200062E10E94941882E00E941F1A83E063E11B
:104030000E94941882E00E941F1A56C083E060E13B
:104040000E94941881E00E941F1A83E061E10E949F
:10405000941882E00E941F1A83E062E10E94941883
:1040600082E00E941F1A83E063E10E94941882E0BC
:104070000E941F1A39C083E060E10E94941882E018
:104080000E941F1A83E061E10E94941882E00E945E
:104090001F1A83E062E10E94941881E00E941F1AB7
:1040A00083E063E10E94941882E00E941F1A1CC002
:1040B00083E060E10E94941882E00E941F1A83E06E
:1040C00061E10E94941882E00E941F1A83E062E17D
:1040D0000E94941882E00E941F1A83E063E10E940C
:1040E000941881E00E941F1A0F900F900F90CF91AB
:1040F000DF910895DF93CF93CDB7DEB780E060E026
:104100000E94941886EB90E00E946B1881E060E0BA
:104110000E94941886EB90E00E946B18CF91DF917B
:104120000895DF93CF93CDB7DEB780915E018823EA
:1041300091F481E080935E01809157018F5F8093BD
:10414000570180915701823011F4109257018091EC
:1041500057010E94AE20CF91DF910895DF93CF9356
:1041600000D00F92CDB7DEB789838981282F30E048
:104170003B832A838A819B81009731F02A813B818E
:104180002130310551F011C083E065E00E949418A0
:104190008FEB90E00E946B1808C083E065E00E94FE
:1041A000941880E890E00E946B180F900F900F9089
:1041B000CF91DF910895DF93CF93CDB7DEB7809194
:1041C0005F01882391F481E080935F018091580121
:1041D0008F5F8093580180915801823011F41092C2
:1041E0005801809158010E94F820CF91DF910895E5
:1041F000DF93CF9300D00F92CDB7DEB7898389814B
:10420000282F30E03B832A838A819B81009731F0FD
:104210002A813B812130310551F011C083E060E0FB
:104220000E94941882EC90E00E946B1808C083E012
:1042300060E00E9494188CE790E00E946B180F9049
:104240000F900F90CF91DF910895DF93CF93CDB76B
:10425000DEB780916001882391F481E08093600152
:10426000809157018F5F8093570180915701823071
:1042700011F410925701809157010E944221CF9171
:10428000DF910895DF93CF9300D00F92CDB7DEB7C3
:1042900089838981282F30E03B832A838A819B810F
:1042A000009731F02A813B812130310551F011C056
:1042B00083E067E00E94941882EC90E00E946B1803
:1042C00008C083E068E00E94941883E890E00E94B0
:1042D0006B180F900F900F90CF91DF910895DF939F
:1042E000CF93CDB7DEB780E060E00E94941886ECF3
:1042F00090E00E946B1881E060E00E9494188CECC2
:1043000090E00E946B18CF91DF910895DF93CF93D7
:104310000F92CDB7DEB789830F90CF91DF910895CB
:10432000DF93CF93CDB7DEB780E060E00E949418B2
:1043300081ED90E00E946B1881E060E00E9494188B
:1043400086ED90E00E946B18CF91DF910895DF9386
:10435000CF930F92CDB7DEB789830F90CF91DF91C6
:104360000895DF93CF93CDB7DEB70E94D41B0E9490
:10437000C61C80E00E94821E0E94741C0E94191CB0
:10438000FBCF2F923F924F925F926F927F928F92CC
:104390009F92AF92BF92CF92DF92EF92FF920F93D4
:1043A0001F93CF93DF93CDB7DEB7CA1BDB0B0FB6DE
:1043B000F894DEBF0FBECDBF09942A88398848889B
:1043C0005F846E847D848C849B84AA84B984C88431
:1043D000DF80EE80FD800C811B81AA81B981CE0F28
:1043E000D11D0FB6F894DEBF0FBECDBFED0108950D
:1043F000FB019F01E8944230C4F04532B4F44A30E6
:1044000029F497FB1EF4909581959F4F642F772791
:104410000E942922805D8A330CF0895D8193CB0153
:104420000097A1F716F45DE251931082C9010C9434
:104430001922DC01FC01672F71917723E1F7329794
:1044400004C07C916D9370836291AE17BF07C8F36F
:104450000895AA1BBB1B51E107C0AA1FBB1FA617CB
:10446000B70710F0A61BB70B881F991F5A95A9F71D
:0E44700080959095BC01CD010895F894FFCF82
:10447E0057454C434F4D45002020544F0020594F77
:10448E005552004D45524345444553004343530056
:10449E00424100534C00533A20393939204B6D2F8D
:1044AE006800474258203A2052204E204400533A8A
:1044BE0020202020204B4D2F6800414C45525400A7
:1044CE00202020202000202020202020202000201E
:1044DE00200020202000434353203A004241203A3E
:1044EE0000534C203A00445354202020206D3A00B3
:1044FE000000000000000000050308FF0001000698
:10450E000000000A1F1F0E04000E1111111F1F1FA5
:10451E000007060505040302FF040E15040400003F
:10452E000000000E1F1F1F0E0000000E1115110EB1
:10453E00001F1B151115151F1F1F17171717111FFA
:10454E001F1F11171117111F1F1F11151315151FDF
:0A455E001F1F111B1B1B1B1F1F005A
:00000001FF
