:100000000C942A000C94D90E0C940C0F0C943F0FF6
:100010000C9447000C9447000C9429070C9447005B
:100020000C9447000C9447000C9447000C9437083C
:100030000C9447000C9447000C9447000C94470024
:100040000C9447000C9447000C9447000C94470014
:100050000C94470011241FBECFE5D4E0DEBFCDBF16
:1000600012E0A0E6B0E0E6EDFAE402C005900D92E1
:10007000A437B107D9F712E0A4E7B2E001C01D929E
:10008000AF39B107E1F70E9497240C9469250C94CD
:100090000000EF92FF920F931F937B018C0120E0F1
:1000A00030E040E05FE40E94F50388238CF0C80153
:1000B000B70120E030E040E05FE40E94C1010E940F
:1000C00055049B01AC01205030404040504806C0D0
:1000D000C801B7010E9455049B01AC01B901CA01D6
:1000E0001F910F91FF90EF900895A0E0B0E0EBE733
:1000F000F0E00C94ED24DC012B01FA019C9192308C
:1001000008F439C1EB018881823008F433C194309E
:1001100069F4843009F02FC111969C91119789815F
:10012000981709F428C1AAEFB0E025C1843009F47A
:1001300021C18230A9F4923009F01DC19A01AD01AC
:1001400088E0EA010990AE01E90109929E0181501F
:10015000C1F7E201898111969C918923818308C1AD
:10016000923009F407C112962D903C901397EB0141
:100170008A819B811496AD90BD90CD90DC901797AD
:10018000EC80FD800E811F819101281B390BB90184
:1001900037FF04C066277727621B730B6032710537
:1001A0000CF061C0121613066CF537014801062EDB
:1001B00004C096948794779467940A94D2F721E0C8
:1001C00030E040E050E004C0220F331F441F551FB1
:1001D0006A95D2F721503040404050402E213F21B7
:1001E00040235123211531054105510521F021E01E
:1001F00030E040E050E079018A01E628F72808293C
:1002000019293CC0232BD1F1260E371E350146019A
:10021000062E04C096948794779467940A94D2F734
:1002200021E030E040E050E004C0220F331F441FC3
:10023000551F6A95D2F721503040404050402A2146
:100240003B214C215D21211531054105510521F04E
:1002500021E030E040E050E059016A01A628B728CB
:10026000C828D9280BC0821593052CF01C01AA249C
:10027000BB24650103C0EE24FF24870111969C91E5
:10028000D20111968C91981709F445C0992339F041
:10029000A80197012A193B094C095D0906C0A6016E
:1002A00095012E193F09400B510B57FD08C01182D3
:1002B0003382228224833583468357831DC081E0A5
:1002C00081833382228288279927DC01821B930B4A
:1002D000A40BB50B84839583A683B7830DC0220F2F
:1002E000331F441F551F24833583468357838281E0
:1002F000938101979383828324813581468157813D
:10030000DA01C9010197A109B1098F5F9F4FAF4F72
:10031000BF4328F30BC0918333822282EA0CFB1C7B
:100320000C1D1D1DE482F5820683178383E0808304
:10033000248135814681578157FF1AC0C901AA27F8
:1003400097FDA095BA2F81709070A070B0705695EF
:10035000479537952795822B932BA42BB52B848318
:100360009583A683B7838281938101969383828349
:10037000DF0101C0D201CD01CDB7DEB7E2E10C94BF
:100380000925A0E2B0E0E7ECF1E00C94F9246983E0
:100390007A838B839C832D833E834F835887E9E048
:1003A000EE2EF12CEC0EFD1ECE010196B7010E943F
:1003B00046068E010F5E1F4FCE010596B8010E94C2
:1003C00046068A8991E089278A8BC701B801AE0168
:1003D000475E5F4F0E9475000E947105A096E6E09F
:1003E0000C941525A0E2B0E0E8EFF1E00C94F924BC
:1003F00069837A838B839C832D833E834F835887C5
:10040000F9E0EF2EF12CEC0EFD1ECE010196B701A6
:100410000E9446068E010F5E1F4FCE010596B80161
:100420000E944606C701B801AE01475E5F4F0E94B9
:1004300075000E947105A096E6E00C941525A0E2D7
:10044000B0E0E5E2F2E00C94ED2469837A838B83DB
:100450009C832D833E834F835887CE010196BE0136
:10046000675F7F4F0E944606CE010596BE016F5E14
:100470007F4F0E9446069985923088F089898230A4
:10048000C8F0943019F4823051F404C0843029F457
:10049000923081F48AEF90E0C6C0923049F420E0B7
:1004A0009A858A89981321E02A87CE010996BBC0D4
:1004B000823049F420E09A858A89981321E02A8BBA
:1004C000CE014196B0C02D843E844F8458886D88FB
:1004D0007E888F88988CEE24FF248701AA24BB2471
:1004E000650140E050E060E070E0E0E0F0E0C10174
:1004F00081709070892BE9F0E60CF71C081D191D1E
:100500009A01AB012A0D3B1D4C1D5D1D80E090E062
:10051000A0E0B0E0E614F7040805190520F481E036
:1005200090E0A0E0B0E0BA01A901480F591F6A1F8E
:100530007B1FAA0CBB1CCC1CDD1C97FE08C081E0F5
:1005400090E0A0E0B0E0A82AB92ACA2ADB2A3196B6
:10055000E032F10549F0660C771C881C991C569412
:10056000479437942794C3CFFA85EA892B893C892D
:100570008B859C85280F391F2E5F3F4F17C0CA01FE
:1005800081709070892B61F016950795F794E79428
:1005900080E090E0A0E0B0E8E82AF92A0A2B1B2BC3
:1005A00076956795579547952F5F3F4F77FDE7CF36
:1005B0000CC0440F551F661F771F17FD4160EE0CDE
:1005C000FF1C001F111F21503040403090E05907A0
:1005D00090E0690790E4790760F32B8F3C8FDB0193
:1005E000CA018F779070A070B07080349105A1051A
:1005F000B10561F447FD0AC0E114F10401051105DC
:1006000029F0405C5F4F6F4F7F4F40781A8EFE1786
:1006100011F081E08A8F4D8F5E8F6F8F78A383E01A
:10062000898FCE0149960E947105A096E2E10C9453
:100630000925A8E1B0E0EFE1F3E00C94F52469832B
:100640007A838B839C832D833E834F835887B9E0C5
:10065000EB2EF12CEC0EFD1ECE010196B7010E948F
:1006600046068E010F5E1F4FCE010596B8010E940F
:1006700046062985223008F47EC03989323010F4CC
:10068000B8017CC08A859A8989278A87243011F02D
:10069000223031F4231709F06EC06AEF70E06EC0AB
:1006A000343039F41D861E861F86188A1C861B86E8
:1006B00004C0323021F484E08987B7015FC02B8504
:1006C0003C858B899C89281B390B3C872B87ED84C3
:1006D000FE840F851889AD88BE88CF88D88CEA142F
:1006E000FB040C051D0540F4EE0CFF1C001F111F40
:1006F000215030403C872B8720E030E040E050E044
:1007000080E090E0A0E0B0E460E070E0EA14FB0478
:100710000C051D0540F0282B392B4A2B5B2BEA18C2
:10072000FB080C091D09B695A79597958795EE0CC2
:10073000FF1C001F111F6F5F7F4F6F31710531F775
:10074000DA01C9018F779070A070B0708034910584
:10075000A105B10561F427FD0AC0E114F10401050A
:10076000110529F0205C3F4F4F4F5F4F20782D87B8
:100770003E874F87588BBE01675F7F4FCB010E943A
:1007800071056896EAE00C941125A8E1B0E0EBEC65
:10079000F3E00C94F92469837A838B839C832D8303
:1007A0003E834F83588789E0E82EF12CEC0EFD1E26
:1007B000CE010196B7010E9446068E010F5E1F4FC3
:1007C000CE010596B8010E9446068985823040F028
:1007D0008989823028F0C701B8010E94BE0601C095
:1007E0008FEF6896E6E00C941525A8E1B0E0EBEFFA
:1007F000F3E00C94F92469837A838B839C832D83A3
:100800003E834F83588789E0E82EF12CEC0EFD1EC5
:10081000CE010196B7010E9446068E010F5E1F4F62
:10082000CE010596B8010E9446068985823040F0C7
:100830008989823028F0C701B8010E94BE0601C034
:100840008FEF6896E6E00C941525A8E1B0E0EBE2A6
:10085000F4E00C94F92469837A838B839C832D8341
:100860003E834F83588789E0E82EF12CEC0EFD1E65
:10087000CE010196B7010E9446068E010F5E1F4F02
:10088000CE010596B8010E9446068985823040F067
:100890008989823028F0C701B8010E94BE0601C0D4
:1008A00081E06896E6E00C941525ACE0B0E0EBE55D
:1008B000F4E00C94FD2469837A838B839C83CE01BE
:1008C0000196BE016B5F7F4F0E9446068D8182308C
:1008D00061F1823050F1843021F48E81882351F10E
:1008E0002EC02F81388537FD20C06E812F31310514
:1008F0001CF06623F9F023C08EE190E0821B930B7D
:1009000029853A854B855C8504C056954795379572
:1009100027958A95D2F76623B1F05095409530958A
:1009200021953F4F4F4F5F4F0EC020E030E040E039
:1009300050E009C02FEF3FEF4FEF5FE704C020E02A
:1009400030E040E050E8B901CA012C96E2E00C9496
:100950001925A8E0B0E0EFEAF4E00C94F5247B015F
:100960008C01611571058105910519F482E0898377
:1009700060C083E089838EE1C82ED12CDC82CB82DB
:10098000ED82FE820F831887C801B7010E942205FD
:10099000FC013197F7FF3BC0222733272E1B3F0B6B
:1009A00057016801022E04C0D694C794B794A79447
:1009B0000A94D2F740E050E060E070E081E090E01F
:1009C000A0E0B0E004C0880F991FAA1FBB1F2A95A2
:1009D000D2F70197A109B1098E219F21A023B1234C
:1009E0000097A105B10521F041E050E060E070E022
:1009F0004A295B296C297D294D835E836F83788723
:100A00008EE190E08E1B9F0B9C838B8312C03097EE
:100A100081F00E2E04C0EE0CFF1C001F111F0A9463
:100A2000D2F7ED82FE820F831887CE1ADF0ADC82AE
:100A3000CB821A82CE0101960E9471052896EAE0C7
:100A40000C941125EF92FF920F931F937B018C0161
:100A500080E0E81680E0F80681E0080780E01807EB
:100A600088F48FEFE816F1040105110531F028F044
:100A700088E090E0A0E0B0E017C080E090E0A0E067
:100A8000B0E012C080E0E81680E0F80680E00807D9
:100A900081E0180728F088E190E0A0E0B0E004C011
:100AA00080E190E0A0E0B0E020E230E040E050E003
:100AB000281B390B4A0B5B0B04C016950795F7945E
:100AC000E7948A95D2F7F701EE5FFE4F8081281BED
:100AD000310941095109C9011F910F91FF90EF9010
:100AE0000895DF92EF92FF920F931F93FC01E48031
:100AF000F58006811781D1808081823048F480E0C2
:100B000090E0A0E1B0E0E82AF92A0A2B1B2BA5C04F
:100B1000843009F49FC0823021F4EE24FF24870141
:100B200005C0E114F1040105110519F4E0E0F0E05D
:100B300096C0628173819FEF623879070CF05BC0C9
:100B400022E83FEF261B370B2A3131052CF020E03D
:100B500030E040E050E02AC0B801A701022E04C0F6
:100B600076956795579547950A94D2F781E090E07E
:100B7000A0E0B0E004C0880F991FAA1FBB1F2A95F0
:100B8000D2F70197A109B1098E219F21A023B1239A
:100B90000097A105B10521F081E090E0A0E0B0E070
:100BA0009A01AB01282B392B4A2B5B2BDA01C901A7
:100BB0008F779070A070B07080349105A105B10559
:100BC00039F427FF09C0205C3F4F4F4F5F4F04C0EF
:100BD000215C3F4F4F4F5F4FE0E0F0E02030A0E05E
:100BE0003A07A0E04A07A0E45A0710F0E1E0F0E07D
:100BF00079018A0127C06038710564F5FB01E1586D
:100C0000FF4FD801C7018F779070A070B07080340B
:100C10009105A105B10539F4E7FE0DC080E490E02F
:100C2000A0E0B0E004C08FE390E0A0E0B0E0E80E08
:100C3000F91E0A1F1B1F17FF05C016950795F7948D
:100C4000E794319687E016950795F794E7948A958F
:100C5000D1F705C0EE24FF248701EFEFF0E06E2FFF
:100C6000679566276795902F9F77D794DD24D79453
:100C70008E2F8695492F462B582F5D29B701CA0123
:100C80001F910F91FF90EF90DF900895FC01DB0121
:100C9000408151812281622F6F7770E0221F2227CD
:100CA000221F9381892F880F822B282F30E0991FD4
:100CB0009927991F11969C93119721153105A9F534
:100CC000411551056105710511F482E037C082E8D4
:100CD0009FEF13969C938E9312979A01AB0167E056
:100CE000220F331F441F551F6A95D1F783E08C9361
:100CF0000DC0220F331F441F551F12968D919C91DA
:100D00001397019713969C938E931297203080E04F
:100D1000380780E0480780E4580758F314962D936D
:100D20003D934D935C93179708952F3F310579F4C8
:100D3000411551056105710519F484E08C930895FE
:100D400064FF03C081E08C9312C01C9210C02F5727
:100D5000304013963C932E93129783E08C9387E058
:100D6000440F551F661F771F8A95D1F7706414963C
:100D70004D935D936D937C93179708951F93DC01BA
:100D8000FB019C91923008F447C08081823008F4C6
:100D900043C0943051F411961C91843099F58181AF
:100DA000682F70E0611B71093FC0843021F09230E0
:100DB00031F48230B9F18181882389F12DC01196F7
:100DC0001C9111978230F1F081811817D9F4129695
:100DD0002D913C911397828193818217930794F010
:100DE00028173907BCF014968D919D910D90BC91F8
:100DF000A02D2481358146815781281739074A075C
:100E00005B0718F4112341F00AC082179307A40767
:100E1000B50740F4112319F061E070E005C06FEFF1
:100E20007FEF02C060E070E0CB011F910895DF9377
:100E3000CF9300D0CDB7DEB79A83898389819A8119
:100E400090937502809374020F900F90CF91DF9171
:100E500008951F920F920FB60F9211242F933F9374
:100E60004F935F936F937F938F939F93AF93BF93B2
:100E7000EF93FF93DF93CF93CDB7DEB780917402EA
:100E800090917502009729F0E0917402F09175023B
:100E90000995CF91DF91FF91EF91BF91AF919F9114
:100EA0008F917F916F915F914F913F912F910F9013
:100EB0000FBE0F901F901895DF93CF93CDB7DEB77D
:100EC000AFE4B0E0EFE4F0E0808188608C93AFE4C1
:100ED000B0E0EFE4F0E0808184608C93AFE4B0E0B8
:100EE000EFE4F0E080818E7F8C93AFE4B0E0EFE43C
:100EF000F0E080818D7F8C93AEE4B0E0EEE4F0E032
:100F00008081877F8C93AEE4B0E0EEE4F0E08081F6
:100F10008F7E8C9383E066E040E00E945009AFE54D
:100F2000B0E0EFE5F0E0808180688C93A9E5B0E067
:100F3000E9E5F0E0808180628C9380E090E00E949F
:100F4000A407CF91DF910895DF93CF9300D0CDB761
:100F5000DEB79A838983ECE4F0E089819A819183FA
:100F600080830F900F90CF91DF910895DF93CF93FF
:100F7000CDB7DEB7AEE4B0E0EEE4F0E08081887F8C
:100F80008C93CF91DF910895DF93CF93CDB7DEB7E8
:100F9000AEE4B0E0EEE4F0E08081982F987F80919D
:100FA0000202892B8C93CF91DF910895DF93CF9329
:100FB0000F92CDB7DEB78983AEE4B0E0EEE4F0E0A7
:100FC0008081282F2F7B8981882F90E0002496959F
:100FD00087950794969587950794982F802D822B57
:100FE0008C930F90CF91DF910895DF93CF93CDB77E
:100FF000DEB7E6E4F0E080819181CF91DF91089542
:10100000DF93CF93CDB7DEB70E94C407CF91DF91B6
:101010000895DF93CF93CDB7DEB7A9E5B0E0E9E55A
:10102000F0E080818B7F8C93CF91DF910895DF93E7
:10103000CF93CDB7DEB7A9E5B0E0E9E5F0E0808178
:1010400084608C93CF91DF910895DF93CF9300D08C
:10105000CDB7DEB79A83898389819A81909377028D
:10106000809376020F900F90CF91DF9108951F9299
:101070000F920FB60F9211242F933F934F935F93CC
:101080006F937F938F939F93AF93BF93EF93FF9350
:10109000DF93CF93CDB7DEB7809176029091770240
:1010A000009729F0E0917602F09177020995CF91AF
:1010B000DF91FF91EF91BF91AF919F918F917F91C0
:1010C0006F915F914F913F912F910F900FBE0F90B5
:1010D0001F901895DF93CF93CDB7DEB7A3E5B0E0AF
:1010E000E3E5F0E0808180688C93A3E5B0E0E3E580
:1010F000F0E080818F7B8C93A3E5B0E0E3E5F0E046
:101100008081877F8C93AFE5B0E0EFE5F0E08081F0
:1011100080688C93A9E5B0E0E9E5F0E0808181602A
:101120008C9380E00E949708CF91DF910895DF9320
:10113000CF930F92CDB7DEB78983E2E5F0E08981E6
:1011400080830F90CF91DF910895DF93CF93CDB738
:10115000DEB7A3E5B0E0E3E5F0E08081887F8C9323
:10116000CF91DF910895DF93CF93CDB7DEB7A3E59D
:10117000B0E0E3E5F0E08081982F987F8091030252
:10118000892B8C93CF91DF910895DF93CF93CDB7C7
:10119000DEB70E94B308CF91DF910895DF93CF931C
:1011A000CDB7DEB7A9E5B0E0E9E5F0E080818E7F5C
:1011B0008C93CF91DF910895DF93CF93CDB7DEB7B6
:1011C000A9E5B0E0E9E5F0E0808181608C93CF9102
:1011D000DF910895DF93CF930F92CDB7DEB71982D9
:1011E00057C08981282F30E0C901880F991F820FCD
:1011F000931FFC01EB5FFD4F80818830E9F489810A
:10120000282F30E0C901880F991F820F931FFC011E
:10121000EC5FFD4F40818981282F30E0C901880FA4
:10122000991F820F931FFC01EA5FFD4F9081842F6D
:10123000692F0E94580D29C08981282F30E0C901EB
:10124000880F991F820F931FFC01EC5FFD4F5081A7
:101250008981282F30E0C901880F991F820F931FC1
:10126000FC01EB5FFD4F40818981282F30E0C901EF
:10127000880F991F820F931FFC01EA5FFD4F908139
:10128000852F642F492F0E94500989818F5F8983A0
:101290008981882309F4A5CF0F90CF91DF9108951C
:1012A000DF93CF9300D000D00F92CDB7DEB7898304
:1012B0006A834B838981843008F0D8C18A81883061
:1012C00008F0D4C18981282F30E03D832C838C81A4
:1012D0009D818130910509F484C02C813D812230AB
:1012E00031052CF48C819D81009771F0BFC12C8158
:1012F0003D812230310509F4E1C08C819D8183302C
:10130000910509F448C1B2C18B81882341F5AAE354
:10131000B0E0EAE3F0E08081482F8A81282F30E0B6
:1013200081E090E002C0880F991F2A95E2F780952E
:1013300084238C93ABE3B0E0EBE3F0E08081482FB3
:101340008A81282F30E081E090E0022E02C0880FD1
:10135000991F0A94E2F7809584238C9387C18B812F
:10136000813039F5AAE3B0E0EAE3F0E08081482F6C
:101370008A81282F30E081E090E002C0880F991F19
:101380002A95E2F7809584238C93ABE3B0E0EBE3FE
:10139000F0E08081482F8A81282F30E081E090E0C2
:1013A000022E02C0880F991F0A94E2F7842B8C93B7
:1013B0005DC18B81823009F059C1AAE3B0E0EAE354
:1013C000F0E08081482F8A81282F30E081E090E092
:1013D000022E02C0880F991F0A94E2F7842B8C9387
:1013E00045C18B81882341F5A7E3B0E0E7E3F0E056
:1013F0008081482F8A81282F30E081E090E002C070
:10140000880F991F2A95E2F7809584238C93A8E38F
:10141000B0E0E8E3F0E08081482F8A81282F30E0B7
:1014200081E090E0022E02C0880F991F0A94E2F733
:10143000809584238C931AC18B81813039F5A7E381
:10144000B0E0E7E3F0E08081482F8A81282F30E088
:1014500081E090E002C0880F991F2A95E2F78095FD
:1014600084238C93A8E3B0E0E8E3F0E08081482F88
:101470008A81282F30E081E090E0022E02C0880FA0
:10148000991F0A94E2F7842B8C93F0C08B818230F1
:1014900009F0ECC0A7E3B0E0E7E3F0E08081482F7B
:1014A0008A81282F30E081E090E0022E02C0880F70
:1014B000991F0A94E2F7842B8C93D8C08B818823E0
:1014C00041F5A4E3B0E0E4E3F0E08081482F8A81B5
:1014D000282F30E081E090E002C0880F991F2A9504
:1014E000E2F7809584238C93A5E3B0E0E5E3F0E098
:1014F0008081482F8A81282F30E081E090E0022E01
:1015000002C0880F991F0A94E2F7809584238C9378
:10151000ADC08B81813039F5A4E3B0E0E4E3F0E0C5
:101520008081482F8A81282F30E081E090E002C03E
:10153000880F991F2A95E2F7809584238C93A5E361
:10154000B0E0E5E3F0E08081482F8A81282F30E089
:1015500081E090E0022E02C0880F991F0A94E2F702
:10156000842B8C9383C08B81823009F07FC0A4E3ED
:10157000B0E0E4E3F0E08081482F8A81282F30E05A
:1015800081E090E0022E02C0880F991F0A94E2F7D2
:10159000842B8C936BC08B81882341F5A1E3B0E051
:1015A000E1E3F0E08081482F8A81282F30E081E05C
:1015B00090E002C0880F991F2A95E2F78095842356
:1015C0008C93A2E3B0E0E2E3F0E08081482F8A81CF
:1015D000282F30E081E090E0022E02C0880F991F92
:1015E0000A94E2F7809584238C9340C08B818130EC
:1015F00039F5A1E3B0E0E1E3F0E08081482F8A8192
:10160000282F30E081E090E002C0880F991F2A95D2
:10161000E2F7809584238C93A2E3B0E0E2E3F0E06C
:101620008081482F8A81282F30E081E090E0022ECF
:1016300002C0880F991F0A94E2F7842B8C9316C07E
:101640008B81823099F4A1E3B0E0E1E3F0E08081A6
:10165000482F8A81282F30E081E090E0022E02C0DE
:10166000880F991F0A94E2F7842B8C930F900F90A8
:101670000F900F900F90CF91DF910895DF93CF934C
:1016800000D000D00F92CDB7DEB78A836B8319826A
:101690008A81843008F084C08B81883008F080C053
:1016A0008A81282F30E03D832C834C815D8141303D
:1016B000510579F18C819D818230910534F42C8122
:1016C0003D812115310569F06BC04C815D8142304F
:1016D0005105B9F18C819D818330910509F449C090
:1016E0005FC0E9E3F0E08081282F30E08B81882F14
:1016F00090E0A90102C0559547958A95E2F7CA0185
:1017000081709070882319F081E0898349C0198223
:1017100047C0E6E3F0E08081282F30E08B81882FFE
:1017200090E0A90102C0559547958A95E2F7CA0154
:1017300081709070882319F081E0898331C019820B
:101740002FC0E3E3F0E08081282F30E08B81882FE9
:1017500090E0A90102C0559547958A95E2F7CA0124
:1017600081709070882319F081E0898319C01982F3
:1017700017C0E0E3F0E08081282F30E08B81882FD4
:1017800090E0A90102C0559547958A95E2F7CA01F4
:1017900081709070882319F081E0898301C01982DB
:1017A00089810F900F900F900F900F90CF91DF9144
:1017B0000895DF93CF9300D000D00F92CDB7DEB75E
:1017C00089836A834B838981843008F0E4C08A81ED
:1017D000883008F0E0C08981282F30E03D832C83D9
:1017E0008C819D818130910509F447C02C813D8118
:1017F000223031052CF48C819D81009771F0CBC093
:101800002C813D812230310509F467C08C819D8196
:101810008330910509F491C0BEC08B818130A1F461
:10182000ABE3B0E0EBE3F0E08081482F8A81282F22
:1018300030E081E090E0022E02C0880F991F0A94E8
:10184000E2F7842B8C93A7C08B81882309F0A3C077
:10185000ABE3B0E0EBE3F0E08081482F8A81282FF2
:1018600030E081E090E0022E02C0880F991F0A94B8
:10187000E2F7809584238C938EC08B818130A1F414
:10188000A8E3B0E0E8E3F0E08081482F8A81282FC8
:1018900030E081E090E0022E02C0880F991F0A9488
:1018A000E2F7842B8C9377C08B81882309F073C077
:1018B000A8E3B0E0E8E3F0E08081482F8A81282F98
:1018C00030E081E090E0022E02C0880F991F0A9458
:1018D000E2F7809584238C935EC08B818130A1F4E4
:1018E000A5E3B0E0E5E3F0E08081482F8A81282F6E
:1018F00030E081E090E0022E02C0880F991F0A9428
:10190000E2F7842B8C9347C08B81882309F043C076
:10191000A5E3B0E0E5E3F0E08081482F8A81282F3D
:1019200030E081E090E0022E02C0880F991F0A94F7
:10193000E2F7809584238C932EC08B818130A1F4B3
:10194000A2E3B0E0E2E3F0E08081482F8A81282F13
:1019500030E081E090E0022E02C0880F991F0A94C7
:10196000E2F7842B8C9317C08B818823A1F4A2E328
:10197000B0E0E2E3F0E08081482F8A81282F30E058
:1019800081E090E0022E02C0880F991F0A94E2F7CE
:10199000809584238C930F900F900F900F900F9051
:1019A000CF91DF910895DF93CF9300D000D0CDB7D2
:1019B000DEB789836A838981843008F072C08A81A6
:1019C000883008F06EC08981282F30E03C832B835B
:1019D0008B819C818130910549F12B813C812230A2
:1019E00031052CF48B819C81009761F05AC02B81CA
:1019F0003C812230310571F18B819C8183309105CE
:101A0000E9F14FC0ABE3B0E0EBE3F0E08081482FB9
:101A10008A81282F30E081E090E0022E02C0880FFA
:101A2000991F0A94E2F784278C933BC0A8E3B0E0A7
:101A3000E8E3F0E08081482F8A81282F30E081E0C0
:101A400090E0022E02C0880F991F0A94E2F78427C3
:101A50008C9327C0A5E3B0E0E5E3F0E08081482F58
:101A60008A81282F30E081E090E0022E02C0880FAA
:101A7000991F0A94E2F784278C9313C0A2E3B0E085
:101A8000E2E3F0E08081482F8A81282F30E081E076
:101A900090E0022E02C0880F991F0A94E2F7842773
:101AA0008C930F900F900F900F90CF91DF9108952E
:101AB000DF93CF9300D000D0CDB7DEB789836A83A0
:101AC0008981843008F096C08981282F30E03C83DA
:101AD0002B838B819C8181309105A9F12B813C81E5
:101AE000223031052CF48B819C81009771F082C0EB
:101AF0002B813C812230310509F443C08B819C81CC
:101B00008330910509F45AC075C08A81882339F45D
:101B1000EAE3F0E01082EBE3F0E010826BC08A8130
:101B2000813041F4EAE3F0E01082EBE3F0E08FEF84
:101B3000808360C08A818F3F09F05CC0EAE3F0E0F7
:101B40008FEF808357C08A81882339F4E7E3F0E080
:101B50001082E8E3F0E010824DC08A81813041F4C8
:101B6000E7E3F0E01082E8E3F0E08FEF808342C02B
:101B70008A818F3F09F03EC0E7E3F0E08FEF80837A
:101B800039C08A81882339F4E4E3F0E01082E5E388
:101B9000F0E010822FC08A81813041F4E4E3F0E06C
:101BA0001082E5E3F0E08FEF808324C08A818F3FCD
:101BB00009F5E4E3F0E08FEF80831CC08A8188237D
:101BC00039F4E1E3F0E01082E2E3F0E0108212C0C9
:101BD0008A81813041F4E1E3F0E01082E2E3F0E059
:101BE0008FEF808307C08A818F3F21F4E1E3F0E02B
:101BF0008FEF80830F900F900F900F90CF91DF9118
:101C00000895DF93CF9300D000D0CDB7DEB78A839D
:101C100019828A81843090F58A81282F30E03C83B4
:101C20002B838B819C8181309105D1F02B813C816C
:101C3000223031052CF48B819C81009761F01EC00D
:101C40002B813C812230310581F08B819C81833056
:101C5000910581F013C0E9E3F0E0808189830EC033
:101C6000E6E3F0E08081898309C0E3E3F0E080816E
:101C7000898304C0E0E3F0E08081898389810F904B
:101C80000F900F900F90CF91DF910895DF93CF9336
:101C900000D000D0CDB7DEB789836A8389818430D4
:101CA00090F58981282F30E03C832B838B819C81A8
:101CB00081309105D1F02B813C81223031052CF40B
:101CC0008B819C81009761F01EC02B813C8122306A
:101CD000310581F08B819C818330910581F013C0A7
:101CE000EBE3F0E08A8180830EC0E8E3F0E08A81D4
:101CF000808309C0E5E3F0E08A81808304C0E2E3E9
:101D0000F0E08A8180830F900F900F900F90CF9119
:101D1000DF910895DF93CF9300D00F92CDB7DEB758
:101D200089838981843008F03EC08981282F30E082
:101D30003B832A838A819B8181309105E9F02A8146
:101D40003B81223031052CF48A819B81009761F020
:101D50002AC02A813B8122303105B1F08A819B81E2
:101D600083309105C9F01FC0ABE3B0E0EBE3F0E0D6
:101D7000808180958C9317C0A8E3B0E0E8E3F0E0A1
:101D8000808180958C930FC0A5E3B0E0E5E3F0E09F
:101D9000808180958C9307C0A2E3B0E0E2E3F0E09D
:101DA000808180958C930F900F900F90CF91DF9151
:101DB00008951F920F920FB60F9211242F933F9305
:101DC0004F935F936F937F938F939F93AF93BF9343
:101DD000EF93FF93DF93CF93CDB7DEB78091780277
:101DE00090917902009729F0E0917802F0917902C0
:101DF0000995CF91DF91FF91EF91BF91AF919F91A5
:101E00008F917F916F915F914F913F912F910F90A3
:101E10000FBE0F901F9018951F920F920FB60F9242
:101E200011242F933F934F935F936F937F938F93DF
:101E30009F93AF93BF93EF93FF93DF93CF93CDB770
:101E4000DEB780917A0290917B02009729F0E091B1
:101E50007A02F0917B020995CF91DF91FF91EF918A
:101E6000BF91AF919F918F917F916F915F914F91B2
:101E70003F912F910F900FBE0F901F9018951F92BA
:101E80000F920FB60F9211242F933F934F935F93AE
:101E90006F937F938F939F93AF93BF93EF93FF9332
:101EA000DF93CF93CDB7DEB780917C0290917D0216
:101EB000009729F0E0917C02F0917D020995CF9185
:101EC000DF91FF91EF91BF91AF919F918F917F91A2
:101ED0006F915F914F913F912F910F900FBE0F9097
:101EE0001F901895DF93CF9300D0CDB7DEB79A83BC
:101EF000898389819A8190937902809378020F90E7
:101F00000F90CF91DF910895DF93CF9300D0CDB79D
:101F1000DEB79A83898389819A8190937B0280932B
:101F20007A020F900F90CF91DF910895DF93CF93B6
:101F300000D0CDB7DEB79A83898389819A81909347
:101F40007D0280937C020F900F90CF91DF910895D6
:101F5000DF93CF9300D0CDB7DEB789836A8383E068
:101F600062E04A810E945009A5E5B0E0E5E5F0E0B5
:101F70008081982F9C7F8981892B8C93ABE5B0E081
:101F8000EBE5F0E0808180648C930F900F90CF910F
:101F9000DF910895DF93CF9300D0CDB7DEB789836B
:101FA0006A8383E063E04A810E945009A5E5B0E0BE
:101FB000E5E5F0E08081282F237F8981882F90E05C
:101FC000880F991F880F991F822B8C93ABE5B0E087
:101FD000EBE5F0E0808180688C930F900F90CF91BB
:101FE000DF910895DF93CF9300D0CDB7DEB789831B
:101FF0006A8381E062E04A810E94500989818230CF
:1020000041F4A4E5B0E0E4E5F0E080818F7B8C93BF
:102010000AC08981833039F4A4E5B0E0E4E5F0E05A
:10202000808180648C93ABE5B0E0EBE5F0E08081EB
:1020300080628C930F900F90CF91DF910895DF9382
:10204000CF93CDB7DEB7ABE5B0E0EBE5F0E0808154
:102050008F7B8C93CF91DF910895DF93CF93CDB792
:10206000DEB7ABE5B0E0EBE5F0E080818F778C93F5
:10207000CF91DF910895DF93CF93CDB7DEB7ABE576
:10208000B0E0EBE5F0E080818F7D8C93CF91DF9124
:102090000895DF93CF930F92CDB7DEB789838981FF
:1020A00087708983A7E2B0E0E7E2F0E08081982FB3
:1020B000907E8981892B8C93A6E2B0E0E6E2F0E085
:1020C000808180648C930F90CF91DF910895DF938E
:1020D000CF93CDB7DEB7A7E2B0E0E7E2F0E08081D2
:1020E000282F2F7380910802882F90E00024969566
:1020F00087950794969587950794982F802D822B26
:102100008C9380910902882341F4A7E2B0E0E7E2D2
:10211000F0E080818F7D8C930BC08091090281302B
:1021200039F4A7E2B0E0E7E2F0E0808180628C93CE
:10213000A6E2B0E0E6E2F0E0808180688C938091D6
:102140000702882399F180910702813079F4A6E291
:10215000B0E0E6E2F0E0808180628C93A0E5B0E040
:10216000E0E5F0E080818F708C9320C080910702C1
:102170008230E1F4A6E2B0E0E6E2F0E08081806245
:102180008C93A0E5B0E0E0E5F0E08081282F2F708F
:1021900080910B02882F90E0880F991F829592956D
:1021A000907F9827807F9827822B8C93A6E2B0E0BF
:1021B000E6E2F0E08081982F987F80910A02877094
:1021C000892B8C93A6E2B0E0E6E2F0E08081877F85
:1021D0008C93CF91DF910895DF93CF930F92CDB77A
:1021E000DEB7898389810E944910E6E2F0E08081B0
:1021F000882F90E0807190700097B9F30E942011B1
:1022000090937F0280937E02A6E2B0E0E6E2F0E0E7
:10221000808180618C9380917E0290917F020F90EB
:10222000CF91DF910895DF93CF930F92CDB7DEB7B3
:10223000898389810E9449100F90CF91DF91089581
:10224000DF93CF9300D0CDB7DEB71A821982809189
:1022500009028823B9F4E4E2F0E08081882F90E05D
:102260009A838983E5E2F0E08081882F90E0837093
:102270009070382F222789819A81822B932B9A8301
:10228000898320C0809109028130E1F4E4E2F0E02A
:1022900080818295869586958370882F90E09070D6
:1022A0009A838983E5E2F0E08081882F90E09C01A9
:1022B000220F331F220F331F89819A81822B932B88
:1022C0009A83898389819A810F900F90CF91DF91B2
:1022D0000895DF93CF930F92CDB7DEB7898380E067
:1022E000698140E00E9450090F90CF91DF910895DD
:1022F000DF93CF9300D00F92CDB7DEB789830F90D5
:102300000F900F90CF91DF910895DF93CF9300D07E
:10231000CDB7DEB789836A8389816A8142E00E94F2
:1023200050090F900F90CF91DF910895DF93CF93D5
:1023300000D00F92CDB7DEB789836A834B838B8140
:10234000882331F489816A8140E00E94D90B08C05A
:102350008B81813029F489816A8141E00E94D90B07
:102360000F900F900F90CF91DF910895DF93CF934F
:1023700000D00F92CDB7DEB789836A834B838B8100
:10238000882331F489816A8141E00E94D90B08C019
:102390008B81813029F489816A8140E00E94D90BC8
:1023A0000F900F900F90CF91DF910895DF93CF930F
:1023B00000D0CDB7DEB789836A8389816A810E94A4
:1023C000D30C0F900F90CF91DF910895DF93CF93AF
:1023D000CDB7DEB780E063E042E00E94500980E0C4
:1023E00062E042E00E94500981E060E042E00E9429
:1023F000500981E061E042E00E94500981E062E022
:1024000042E00E94500981E064E042E00E945009ED
:1024100082E00E94171288E20E9417128CE00E944C
:10242000171281E00E941712CF91DF9108950F9348
:102430001F93DF93CF93CDB7DEB7C456D0400FB60E
:10244000F894DEBF0FBECDBFFE01EC59FF4F808375
:1024500080E063E040E00E94D90BFE01E15AFF4FAB
:1024600080E090E0A0E8BFE380839183A283B38300
:102470008E01055A1F4FFE01E15AFF4F60817181A5
:102480008281938120E030E04AE755E40E941F02F8
:10249000DC01CB01F80180839183A283B383FE0129
:1024A000E55AFF4F608171818281938120E030E0A5
:1024B00040E85FE30E942504882344F4FE01E75AC4
:1024C000FF4F81E090E09183808364C0FE01E55A74
:1024D000FF4F608171818281938120E03FEF4FE760
:1024E00057E40E94C50318160CF043C0FE01E15AE0
:1024F000FF4F608171818281938120E030E040E272
:1025000051E40E941F02DC01CB018E01075A1F4FCC
:10251000BC01CD010E944900DC01CB01F80191838F
:1025200080831FC0FE01E95AFF4F80E991E091834B
:102530008083FE01E95AFF4F808191810197F1F775
:10254000FE01E95AFF4F91838083DE01A75ABF4FF6
:10255000FE01E75AFF4F80819181019711969C936C
:102560008E93FE01E75AFF4F808191810097D1F64B
:1025700027C08E01075A1F4FFE01E55AFF4F6081A9
:102580007181828193810E944900DC01CB01F801B5
:1025900091838083DE01AB5ABF4FFE01E75AFF4FA4
:1025A000808191818D939C93FE01EB5AFF4F808136
:1025B00091810197F1F7FE01EB5AFF4F91838083E0
:1025C00080E062E041E00E94D90BFE01EF5AFF4F2C
:1025D00080E090E0A0E8BFE380839183A283B3838F
:1025E0008E01035B1F4FFE01EF5AFF4F6081718127
:1025F0008281938120E030E04AE755E40E941F0287
:10260000DC01CB01F80180839183A283B383FE01B7
:10261000E35BFF4F608171818281938120E030E034
:1026200040E85FE30E942504882344F4FE01E55B53
:10263000FF4F81E090E09183808364C0FE01E35B03
:10264000FF4F608171818281938120E03FEF4FE7EE
:1026500057E40E94C50318160CF043C0FE01EF5A60
:10266000FF4F608171818281938120E030E040E200
:1026700051E40E941F02DC01CB018E01055B1F4F5C
:10268000BC01CD010E944900DC01CB01F80191831E
:1026900080831FC0FE01E75BFF4F80E991E09183DB
:1026A0008083FE01E75BFF4F808191810197F1F705
:1026B000FE01E75BFF4F91838083DE01A55BBF4F87
:1026C000FE01E55BFF4F80819181019711969C93FC
:1026D0008E93FE01E55BFF4F808191810097D1F6DB
:1026E00027C08E01055B1F4FFE01E35BFF4F60813A
:1026F0007181828193810E944900DC01CB01F80144
:1027000091838083DE01A95BBF4FFE01E55BFF4F34
:10271000808191818D939C93FE01E95BFF4F8081C5
:1027200091810197F1F7FE01E95BFF4F918380836F
:10273000DE01AD59BF4FFE01EC59FF4F80818295FC
:102740008F708C93FE01ED59FF4F8081982F91700F
:1027500081E060E0492F0E94D90BFE01ED59FF4F47
:1027600080818695982F917081E061E0492F0E94C9
:10277000D90BFE01ED59FF4F808186958695982FE4
:10278000917081E062E0492F0E94D90BFE01ED5962
:10279000FF4F8081869586958695982F917081E070
:1027A00064E0492F0E94D90BFE01ED5BFF4F80E0F2
:1027B00090E0A0E8BFE380839183A283B3838E017E
:1027C000015C1F4FFE01ED5BFF4F608171818281D3
:1027D000938120E030E04AE755E40E941F02DC01CB
:1027E000CB01F80180839183A283B383FE01FF961E
:1027F000608171818281938120E030E040E85FE375
:102800000E94250488232CF481E090E09EAF8DAFD8
:1028100046C0FE01FF96608171818281938120E034
:102820003FEF4FE757E40E94C503181664F5FE0119
:10283000ED5BFF4F608171818281938120E030E008
:1028400040E251E40E941F02DC01CB01BC01CD013A
:102850000E944900DC01CB019EAF8DAF0FC080E923
:1028600091E09CAF8BAF8BAD9CAD0197F1F79CAF26
:102870008BAF8DAD9EAD01979EAF8DAF8DAD9EADF3
:10288000009769F716C0FE01FF9660817181828111
:1028900093810E944900DC01CB019EAF8DAF8DADCD
:1028A0009EAD9AAF89AF89AD9AAD0197F1F79AAF16
:1028B00089AF80E062E040E00E94D90B80E090E0C8
:1028C000A0E8BFE38DAB9EABAFABB8AF6DA97EA95F
:1028D0008FA998AD20E030E04AE755E40E941F023E
:1028E000DC01CB0189AB9AABABABBCAB69A97AA9D4
:1028F0008BA99CA920E030E040E85FE30E9425041A
:1029000088232CF481E090E098AB8FA73FC069A9A1
:102910007AA98BA99CA920E03FEF4FE757E40E94DA
:10292000C50318164CF56DA97EA98FA998AD20E0B6
:1029300030E040E251E40E941F02DC01CB01BC0107
:10294000CD010E944900DC01CB0198AB8FA70FC0DD
:1029500080E991E09EA78DA78DA59EA50197F1F72F
:102960009EA78DA78FA598A9019798AB8FA78FA534
:1029700098A9009769F714C069A97AA98BA99CA99D
:102980000E944900DC01CB0198AB8FA78FA598A9C5
:102990009CA78BA78BA59CA50197F1F79CA78BA75C
:1029A00080E062E041E00E94D90B80E090E0A0E886
:1029B000BFE38FA398A7A9A7BAA76FA178A589A5F8
:1029C0009AA520E030E04AE755E40E941F02DC01AE
:1029D000CB018BA39CA3ADA3BEA36BA17CA18DA1B6
:1029E0009EA120E030E040E85FE30E9425048823B8
:1029F0002CF481E090E09AA389A33FC06BA17CA155
:102A00008DA19EA120E03FEF4FE757E40E94C50350
:102A100018164CF56FA178A589A59AA520E030E09D
:102A200040E251E40E941F02DC01CB01BC01CD0158
:102A30000E944900DC01CB019AA389A30FC080E961
:102A400091E098A38F8F8F8D98A10197F1F798A3AC
:102A50008F8F89A19AA101979AA389A389A19AA18D
:102A6000009769F714C06BA17CA18DA19EA10E9463
:102A70004900DC01CB019AA389A389A19AA19E8F69
:102A80008D8F8D8D9E8D0197F1F79E8F8D8FDE013D
:102A9000AD59BF4FFE01EC59FF4F80818F708C9371
:102AA000FE01ED59FF4F8081982F917081E060E029
:102AB000492F0E94D90BFE01ED59FF4F8081869569
:102AC000982F917081E061E0492F0E94D90BFE019F
:102AD000ED59FF4F808186958695982F917081E002
:102AE00062E0492F0E94D90BFE01ED59FF4F808112
:102AF000869586958695982F917081E064E0492FA0
:102B00000E94D90B80E090E0A0E8BFE3898F9A8F04
:102B1000AB8FBC8F698D7A8D8B8D9C8D20E030E0E2
:102B20004AE755E40E941F02DC01CB018D8B9E8B8E
:102B3000AF8BB88F6D897E898F89988D20E030E0CA
:102B400040E85FE30E94250488232CF481E090E0B4
:102B50009C8B8B8B3FC06D897E898F89988D20E0FF
:102B60003FEF4FE757E40E94C50318164CF5698DF7
:102B70007A8D8B8D9C8D20E030E040E251E40E9404
:102B80001F02DC01CB01BC01CD010E944900DC0128
:102B9000CB019C8B8B8B0FC080E991E09A8B898B4A
:102BA00089899A890197F1F79A8B898B8B899C89FE
:102BB00001979C8B8B8B8B899C89009769F714C03C
:102BC0006D897E898F89988D0E944900DC01CB0137
:102BD0009C8B8B8B8B899C89988B8F878F85988911
:102BE0000197F1F7988B8F8780E062E040E00E94C8
:102BF000D90B80E090E0A0E8BFE38B879C87AD878E
:102C0000BE876B857C858D859E8520E030E04AE718
:102C100055E40E941F02DC01CB018F839887A987AE
:102C2000BA876F81788589859A8520E030E040E811
:102C30005FE30E94250488232CF481E090E09E83CA
:102C40008D833FC06F81788589859A8520E03FEF2D
:102C50004FE757E40E94C50318164CF56B857C8539
:102C60008D859E8520E030E040E251E40E941F0205
:102C7000DC01CB01BC01CD010E944900DC01CB018C
:102C80009E838D830FC080E991E09C838B838B8131
:102C90009C810197F1F79C838B838D819E810197A5
:102CA0009E838D838D819E81009769F714C06F810B
:102CB000788589859A850E944900DC01CB019E8335
:102CC0008D838D819E819A83898389819A810197E1
:102CD000F1F79A838983CC59DF4F0FB6F894DEBFA2
:102CE0000FBECDBFCF91DF911F910F9108950F932C
:102CF0001F93DF93CF93CDB7DEB7C456D0400FB646
:102D0000F894DEBF0FBECDBFFE01EC59FF4F8083AC
:102D100080E063E041E00E94D90BFE01E15AFF4FE1
:102D200080E090E0A0E8BFE380839183A283B38337
:102D30008E01055A1F4FFE01E15AFF4F60817181DC
:102D40008281938120E030E04AE755E40E941F022F
:102D5000DC01CB01F80180839183A283B383FE0160
:102D6000E55AFF4F608171818281938120E030E0DC
:102D700040E85FE30E942504882344F4FE01E75AFB
:102D8000FF4F81E090E09183808364C0FE01E55AAB
:102D9000FF4F608171818281938120E03FEF4FE797
:102DA00057E40E94C50318160CF043C0FE01E15A17
:102DB000FF4F608171818281938120E030E040E2A9
:102DC00051E40E941F02DC01CB018E01075A1F4F04
:102DD000BC01CD010E944900DC01CB01F8019183C7
:102DE00080831FC0FE01E95AFF4F80E991E0918383
:102DF0008083FE01E95AFF4F808191810197F1F7AD
:102E0000FE01E95AFF4F91838083DE01A75ABF4F2D
:102E1000FE01E75AFF4F80819181019711969C93A3
:102E20008E93FE01E75AFF4F808191810097D1F682
:102E300027C08E01075A1F4FFE01E55AFF4F6081E0
:102E40007181828193810E944900DC01CB01F801EC
:102E500091838083DE01AB5ABF4FFE01E75AFF4FDB
:102E6000808191818D939C93FE01EB5AFF4F80816D
:102E700091810197F1F7FE01EB5AFF4F9183808317
:102E800080E062E041E00E94D90BFE01EF5AFF4F63
:102E900080E090E0A0E8BFE380839183A283B383C6
:102EA0008E01035B1F4FFE01EF5AFF4F608171815E
:102EB0008281938120E030E04AE755E40E941F02BE
:102EC000DC01CB01F80180839183A283B383FE01EF
:102ED000E35BFF4F608171818281938120E030E06C
:102EE00040E85FE30E942504882344F4FE01E55B8B
:102EF000FF4F81E090E09183808364C0FE01E35B3B
:102F0000FF4F608171818281938120E03FEF4FE725
:102F100057E40E94C50318160CF043C0FE01EF5A97
:102F2000FF4F608171818281938120E030E040E237
:102F300051E40E941F02DC01CB018E01055B1F4F93
:102F4000BC01CD010E944900DC01CB01F801918355
:102F500080831FC0FE01E75BFF4F80E991E0918312
:102F60008083FE01E75BFF4F808191810197F1F73C
:102F7000FE01E75BFF4F91838083DE01A55BBF4FBE
:102F8000FE01E55BFF4F80819181019711969C9333
:102F90008E93FE01E55BFF4F808191810097D1F612
:102FA00027C08E01055B1F4FFE01E35BFF4F608171
:102FB0007181828193810E944900DC01CB01F8017B
:102FC00091838083DE01A95BBF4FFE01E55BFF4F6C
:102FD000808191818D939C93FE01E95BFF4F8081FD
:102FE00091810197F1F7FE01E95BFF4F91838083A7
:102FF000DE01AD59BF4FFE01EC59FF4F8081829534
:103000008F708C93FE01ED59FF4F8081982F917046
:1030100081E060E0492F0E94D90BFE01ED59FF4F7E
:1030200080818695982F917081E061E0492F0E9400
:10303000D90BFE01ED59FF4F808186958695982F1B
:10304000917081E062E0492F0E94D90BFE01ED5999
:10305000FF4F8081869586958695982F917081E0A7
:1030600064E0492F0E94D90BFE01ED5BFF4F80E029
:1030700090E0A0E8BFE380839183A283B3838E01B5
:10308000015C1F4FFE01ED5BFF4F6081718182810A
:10309000938120E030E04AE755E40E941F02DC0102
:1030A000CB01F80180839183A283B383FE01FF9655
:1030B000608171818281938120E030E040E85FE3AC
:1030C0000E94250488232CF481E090E09EAF8DAF10
:1030D00046C0FE01FF96608171818281938120E06C
:1030E0003FEF4FE757E40E94C503181664F5FE0151
:1030F000ED5BFF4F608171818281938120E030E040
:1031000040E251E40E941F02DC01CB01BC01CD0171
:103110000E944900DC01CB019EAF8DAF0FC080E95A
:1031200091E09CAF8BAF8BAD9CAD0197F1F79CAF5D
:103130008BAF8DAD9EAD01979EAF8DAF8DAD9EAD2A
:10314000009769F716C0FE01FF9660817181828148
:1031500093810E944900DC01CB019EAF8DAF8DAD04
:103160009EAD9AAF89AF89AD9AAD0197F1F79AAF4D
:1031700089AF80E062E040E00E94D90B80E090E0FF
:10318000A0E8BFE38DAB9EABAFABB8AF6DA97EA996
:103190008FA998AD20E030E04AE755E40E941F0275
:1031A000DC01CB0189AB9AABABABBCAB69A97AA90B
:1031B0008BA99CA920E030E040E85FE30E94250451
:1031C00088232CF481E090E098AB8FA73FC069A9D9
:1031D0007AA98BA99CA920E03FEF4FE757E40E9412
:1031E000C50318164CF56DA97EA98FA998AD20E0EE
:1031F00030E040E251E40E941F02DC01CB01BC013F
:10320000CD010E944900DC01CB0198AB8FA70FC014
:1032100080E991E09EA78DA78DA59EA50197F1F766
:103220009EA78DA78FA598A9019798AB8FA78FA56B
:1032300098A9009769F714C069A97AA98BA99CA9D4
:103240000E944900DC01CB0198AB8FA78FA598A9FC
:103250009CA78BA78BA59CA50197F1F79CA78BA793
:1032600080E062E041E00E94D90B80E090E0A0E8BD
:10327000BFE38FA398A7A9A7BAA76FA178A589A52F
:103280009AA520E030E04AE755E40E941F02DC01E5
:10329000CB018BA39CA3ADA3BEA36BA17CA18DA1ED
:1032A0009EA120E030E040E85FE30E9425048823EF
:1032B0002CF481E090E09AA389A33FC06BA17CA18C
:1032C0008DA19EA120E03FEF4FE757E40E94C50388
:1032D00018164CF56FA178A589A59AA520E030E0D5
:1032E00040E251E40E941F02DC01CB01BC01CD0190
:1032F0000E944900DC01CB019AA389A30FC080E999
:1033000091E098A38F8F8F8D98A10197F1F798A3E3
:103310008F8F89A19AA101979AA389A389A19AA1C4
:10332000009769F714C06BA17CA18DA19EA10E949A
:103330004900DC01CB019AA389A389A19AA19E8FA0
:103340008D8F8D8D9E8D0197F1F79E8F8D8FDE0174
:10335000AD59BF4FFE01EC59FF4F80818F708C93A8
:10336000FE01ED59FF4F8081982F917081E060E060
:10337000492F0E94D90BFE01ED59FF4F80818695A0
:10338000982F917081E061E0492F0E94D90BFE01D6
:10339000ED59FF4F808186958695982F917081E039
:1033A00062E0492F0E94D90BFE01ED59FF4F808149
:1033B000869586958695982F917081E064E0492FD7
:1033C0000E94D90B80E090E0A0E8BFE3898F9A8F3C
:1033D000AB8FBC8F698D7A8D8B8D9C8D20E030E01A
:1033E0004AE755E40E941F02DC01CB018D8B9E8BC6
:1033F000AF8BB88F6D897E898F89988D20E030E002
:1034000040E85FE30E94250488232CF481E090E0EB
:103410009C8B8B8B3FC06D897E898F89988D20E036
:103420003FEF4FE757E40E94C50318164CF5698D2E
:103430007A8D8B8D9C8D20E030E040E251E40E943B
:103440001F02DC01CB01BC01CD010E944900DC015F
:10345000CB019C8B8B8B0FC080E991E09A8B898B81
:1034600089899A890197F1F79A8B898B8B899C8935
:1034700001979C8B8B8B8B899C89009769F714C073
:103480006D897E898F89988D0E944900DC01CB016E
:103490009C8B8B8B8B899C89988B8F878F85988948
:1034A0000197F1F7988B8F8780E062E040E00E94FF
:1034B000D90B80E090E0A0E8BFE38B879C87AD87C5
:1034C000BE876B857C858D859E8520E030E04AE750
:1034D00055E40E941F02DC01CB018F839887A987E6
:1034E000BA876F81788589859A8520E030E040E849
:1034F0005FE30E94250488232CF481E090E09E8302
:103500008D833FC06F81788589859A8520E03FEF64
:103510004FE757E40E94C50318164CF56B857C8570
:103520008D859E8520E030E040E251E40E941F023C
:10353000DC01CB01BC01CD010E944900DC01CB01C3
:103540009E838D830FC080E991E09C838B838B8168
:103550009C810197F1F79C838B838D819E810197DC
:103560009E838D838D819E81009769F714C06F8142
:10357000788589859A850E944900DC01CB019E836C
:103580008D838D819E819A83898389819A81019718
:10359000F1F79A838983809181028F5F8093810202
:1035A00080918102843169F4809180028F5F8093E1
:1035B00080021092810280918002843111F4109275
:1035C0008002CC59DF4F0FB6F894DEBF0FBECDBFDF
:1035D000CF91DF911F910F910895DF93CF9300D08A
:1035E0000F92CDB7DEB79B838A8319820EC0898183
:1035F000282F30E08A819B81FC01E20FF31F80813C
:103600000E94771689818F5F89838981282F30E016
:103610008A819B81FC01E20FF31F8081882339F7A7
:103620000F900F900F90CF91DF910895DF93CF937C
:1036300000D000D00F92CDB7DEB78A836B838A812A
:10364000282F30E03D832C838C819D818130910532
:10365000E9F02C813D81223031052CF48C819D8153
:10366000009761F030C02C813D8122303105C1F0DE
:103670008C819D8183309105E9F025C08B81898300
:103680008B8180938102109280021DC08B81805CAF
:1036900089838B818093810281E08093800213C0B3
:1036A0008B818C5E89838B818093810282E0809301
:1036B000800209C08B818C5A89838B81809381021F
:1036C00083E080938002898180680E9417120F90A6
:1036D0000F900F900F900F90CF91DF910895DF938F
:1036E000CF9300D000D0CDB7DEB79A8389836B83A8
:1036F0004C838B816C810E94161B89819A810E9468
:10370000ED1A0F900F900F900F90CF91DF910895C9
:10371000DF93CF93CDB7DEB7109281021092800273
:1037200081E00E941712CF91DF910895DF93CF932C
:10373000CDB7DEB780918102833189F48091800218
:10374000882369F41092810281E080938002809145
:10375000800290918102692F0E94161B46C08091C1
:103760008102833189F480918002813069F4109262
:10377000810282E080938002809180029091810298
:10378000692F0E94161B31C080918102833189F418
:1037900080918002823069F41092810283E08093EC
:1037A00080028091800290918102692F0E94161BF5
:1037B0001CC080918102833181F48091800283302A
:1037C00061F41092810210928002809180029091A7
:1037D0008102692F0E94161B08C084E10E94171203
:1037E000809181028F5F80938102CF91DF91089554
:1037F000DF93CF93CDB7DEB780918102882391F418
:1038000080918002882371F483E18093810283E0B8
:10381000809380028091800290918102692F0E94A2
:10382000161B49C080918102882389F4809180020F
:10383000813069F483E1809381021092800280914B
:10384000800290918102692F0E94161B34C08091E2
:103850008102882391F480918002823071F483E1A7
:103860008093810281E08093800280918002909118
:103870008102692F0E94161B1EC08091810288233D
:1038800091F480918002833071F483E1809381020E
:1038900082E0809380028091800290918102692F62
:1038A0000E94161B08C080E10E94171280918102BD
:1038B000815080938102CF91DF910895DF93CF9360
:1038C000CDB7DEB78CE10E941712CF91DF9108953A
:1038D000DF93CF93CDB7DEB788E10E941712CF9167
:1038E000DF910895DF93CF9300D000D0CDB7DEB73E
:1038F0009B838A836C838C81882F90E00896880F45
:10390000991F880F991F880F991F0E9417121982FB
:103910000EC08981282F30E08A819B81FC01E20F53
:10392000F31F80810E94771689818F5F8983898147
:10393000883078F30F900F900F900F90CF91DF9118
:103940000895DF93CF930F92CDB7DEB78983898136
:103950000E9477160F90CF91DF910895DF93CF9358
:1039600000D00F92CDB7DEB789836A834B838A81FB
:103970006B810E94161B89810E9477160F900F9011
:103980000F90CF91DF910895DF93CF93CDB7DEB73E
:1039900065970FB6F894DEBF0FBECDBF6A8B7B8BE9
:1039A0008C8B9D8B8A899B899E012F5F3F4FB9012C
:1039B0004AE050E00E942425CE0101960E94ED1AB3
:1039C00065960FB6F894DEBF0FBECDBFCF91DF91E5
:1039D0000895DF93CF9300D000D0CDB7DEB78A83B0
:1039E00019828A81282F30E03C832B838B819C8134
:1039F0008A30910581F02B813C812A3031059CF081
:103A00008B819C818B30910549F02B813C812C303E
:103A1000310531F008C08AE2898307C0198205C0E8
:103A200083E2898302C08A81898389810F900F9004
:103A30000F900F90CF91DF910895DF93CF9300D037
:103A4000CDB7DEB71A820FC08A81882F90E0FC01C3
:103A5000E95AFD4F908182E0692F41E00E945009B0
:103A60008A818F5F8A838A81843070F319821BC0B8
:103A70008981882F90E0FC01EC5AFD4F908183E012
:103A8000692F42E00E9450098981882F90E0FC0153
:103A9000EC5AFD4F908183E0692F41E00E94D90BE1
:103AA00089818F5F89838981833010F30F900F9014
:103AB000CF91DF910895DF93CF9300D000D000D055
:103AC000CDB7DEB71D820FC08D81882F90E0FC013D
:103AD000EC5AFD4F908183E0692F41E00E94D90BA1
:103AE0008D818F5F8D838D81833070F38FEF9FEF9A
:103AF0009A8389831C8245C08C81882F90E0FC01C9
:103B0000EC5AFD4F908183E0692F40E00E94D90B71
:103B10001B8225C08B81882F90E0FC01E95AFD4F64
:103B2000908182E0692F0E943E0B8823A9F48B814B
:103B3000282F30E0C901880F991F820F931F982FFB
:103B40008C81890F8F5F0E94E91C882F90E09A83F7
:103B5000898389818E831BC08B818F5F8B838B814F
:103B60008430C0F28C81882F90E0FC01EC5AFD4F2C
:103B7000908183E0692F41E00E94D90B8C818F5F97
:103B80008C838C81833008F4B7CF89818E838E81BA
:103B900026960FB6F894DEBF0FBECDBFCF91DF9152
:103BA0000895DF93CF9300D0CDB7DEB789836A83C2
:103BB00089816A8142E00E9450090F900F90CF9155
:103BC000DF910895DF93CF9300D00F92CDB7DEB78A
:103BD00089836A834B838B81882331F489816A814D
:103BE00040E00E94D90B08C08B81813029F4898183
:103BF0006A8141E00E94D90B0F900F900F90CF91F6
:103C0000DF910895DF93CF9300D00F92CDB7DEB749
:103C100089836A834B838B81882331F489816A810C
:103C200041E00E94D90B08C08B81813029F4898141
:103C30006A8140E00E94D90B0F900F900F90CF91B6
:103C4000DF910895DF93CF9300D0CDB7DEB789839E
:103C50006A8389816A810E94D30C0F900F90CF9163
:103C6000DF910895DF93CF9300D00F92CDB7DEB7E9
:103C700089836A834B8389816A814B810E945009C1
:103C80000F900F900F90CF91DF910895DF93CF9316
:103C900000D0CDB7DEB789836A8389816A810E94AB
:103CA0003E0B0F900F90CF91DF910895DF93CF934C
:103CB000CDB7DEB70E94721E0E94871E0E94762139
:103CC0000E942B240E940320CF91DF910895DF935F
:103CD000CF930F92CDB7DEB7809183020F90CF9133
:103CE000DF910895DF93CF93CDB7DEB78091820245
:103CF000882351F480918302813031F41092830241
:103D0000809183020E947B1FCF91DF910895DF9302
:103D1000CF93CDB7DEB780918202823051F480918B
:103D20008302813031F410928302809183020E94D9
:103D30007B1FCF91DF910895DF93CF93CDB7DEB78F
:103D400078940E94E6118CE192E060E00E94721C7F
:103D500084E292E061E00E94721C8CE292E062E0F8
:103D60000E94721C84E392E063E00E94721C8CE368
:103D700092E064E00E94721C84E492E065E00E949C
:103D8000721C8CE492E066E00E94721C82E066E0A5
:103D90000E94D11D82E060E00E94CA0F8AE992E28F
:103DA0000E94840F81E067E00E94851180E066E058
:103DB0000E94851182E067E042E00E94500981E0A4
:103DC00067E040E00E94961180E066E040E00E94DB
:103DD00096110E946A088EEF92E20E9425080E94C6
:103DE000671080E00E9469110E941D1D0E94FB1E49
:103DF000CF91DF910895DF93CF93CDB7DEB7F894DD
:103E000080E06EE00E94161B80E690E00E94ED1AB2
:103E100081E06BE00E94161B87E690E00E94ED1A9D
:103E200082E060E00E94161B8EE690E00E94ED1A90
:103E300083E00E94771682E790E00E94ED1A83E00B
:103E40000E94771687E790E00E94ED1A83E00E94B7
:103E500077168CE790E00E94ED1A83E00E947716B7
:103E60000E948E207894CF91DF910895DF93CF93B5
:103E7000CDB7DEB729970FB6F894DEBF0FBECDBF22
:103E80008C83F894CE0101969E838D83E1E6F2E067
:103E9000F887EF83F3E0F987EF81F88500808F8161
:103EA0009885019698878F83ED81FE8100828D81B0
:103EB0009E8101969E838D83998591509987E9858E
:103EC000EE2351F780E063E10E94161B8C81282FBE
:103ED00030E0CE010196FC01E20FF31F80810E94C9
:103EE0007716789429960FB6F894DEBF0FBECDBF33
:103EF000CF91DF910895DF93CF930F92CDB7DEB7C7
:103F00008983F89482E063E00E94161B809183020B
:103F1000813021F482E00E94771603C083E00E9482
:103F2000771678940F90CF91DF910895DF93CF9318
:103F30000F92CDB7DEB78983F89482E068E00E94E3
:103F4000161B8981813021F482E00E94771603C01C
:103F500083E00E94771678940F90CF91DF910895B7
:103F6000DF93CF930F92CDB7DEB78983F89482E0C9
:103F70006DE00E94161B8981813021F482E00E944D
:103F8000771603C083E00E94771678940F90CF9144
:103F9000DF910895DF93CF930F92CDB7DEB789837A
:103FA000F89482E062E10E94161B8981813021F43D
:103FB00082E00E94771603C083E00E94771678940F
:103FC0000F90CF91DF910895DF93CF93CDB7DEB7F8
:103FD00080915B028230A1F4F89480E067E00E9457
:103FE000161B80915D02882F90E0A0E0B0E0BC013C
:103FF000CD010E94C41C81E890E00E94ED1A7894E3
:10400000CF91DF910895DF93CF93CDB7DEB7809145
:104010005D02282F30E080918B0290918C0228174E
:1040200039071CF410928D020EC080915D02282F7A
:1040300030E080918B0290918C02281739071CF098
:1040400081E080938D0280915B02823019F40E949E
:1040500047201AC080918402813051F480918D02F2
:10406000813031F482E067E040E00E94D90B0CC05F
:1040700080918402813041F480918D02882321F463
:1040800082E067E00E94D30CCF91DF910895DF9327
:10409000CF93CDB7DEB7F89481E069E00E94161B9C
:1040A000809184028130A9F480918D02813049F49D
:1040B00084E00E94771682E067E040E00E94D90B1E
:1040C0000BC086E00E94771682E067E00E94D30C66
:1040D00003C084E40E9477167894CF91DF9108950D
:1040E000DF93CF93CDB7DEB783E060E00E94161B6D
:1040F00086E890E00E94ED1ACF91DF910895DF935A
:10410000CF93CDB7DEB783E060E00E94161B82E953
:1041100090E00E94ED1ACF91DF910895DF93CF9345
:10412000CDB7DEB765970FB6F894DEBF0FBECDBF33
:10413000CE0101969A8B898BE4E6F2E0FC8BEB8B47
:10414000F0E1FD8BEB89FC8900808B899C890196CD
:104150009C8B8B8BE989FA89008289899A890196DF
:104160009A8B898B9D8991509D8BED89EE2351F718
:10417000F89483E068E00E94161B80915B02992707
:1041800087FD90959C01220F331F220F331FCE0114
:104190000196FC01E20FF31F80810E947716809147
:1041A0005B02992787FD90959C01220F331F220FF8
:1041B000331FCE010196820F931FFC01319680813F
:1041C0000E94771680915B02992787FD9095880F52
:1041D000991F01969C01220F331FCE010196FC010D
:1041E000E20FF31F80810E94771680915B0299276E
:1041F00087FD90959C01220F331F220F331FCE01A4
:104200000196820F931FFC01339680810E947716DE
:10421000789465960FB6F894DEBF0FBECDBFCF91F0
:10422000DF910895DF93CF93CDB7DEB7F89480E0A8
:1042300060E00E94161B87EA90E00E94ED1A81E080
:1042400060E00E94161B86EB90E00E94ED1A8091C0
:104250005B02813009F446C080915B028823F1F44F
:1042600080918502813089F480E060E00E94161B15
:1042700082EC90E00E94ED1A81E060E00E94161B43
:1042800089EC90E00E94ED1A2DC080E060E00E9471
:10429000161B83ED90E00E94ED1A24C080915B0212
:1042A000823001F580E060E00E94161B8CED90E00A
:1042B0000E94ED1A80915D02882F90E0A0E0B0E0AE
:1042C000BC01CD010E94C41C81E890E00E94ED1A5F
:1042D00081E060E00E94161B89EC90E00E94ED1ADC
:1042E0000E9447207894CF91DF910895DF93CF9378
:1042F0000F92CDB7DEB70E945B1D89838981823022
:10430000C9F4809198028823B9F481E080939802DF
:104310000E94ED22809182028F5F809382028091C1
:104320008202833011F410928202809182020E94F4
:10433000361F02C01092980280918202813009F0EB
:104340006EC089818823E1F4809197028823D1F49B
:1043500081E0809397020E94ED228091830288235E
:1043600041F481E080938302809183020E947B1F4D
:1043700009C010928302809183020E947B1F02C0B9
:10438000109297028981883009F5809194028823E0
:10439000F9F481E0809394020E94ED2280918402DE
:1043A000882341F481E080938402809184020E94FA
:1043B000B01F0EC010928402809184020E94B01F30
:1043C00082E067E040E00E94D90B02C010929402A4
:1043D00089818A3211F580919102882301F581E06B
:1043E000809391020E94ED2280918502882341F4FE
:1043F00081E080938502809185020E94961F06C00D
:1044000010928502809185020E94961F80915B0226
:10441000882329F40E94122102C0109291028981FE
:104420008330B9F4809196028823A9F481E08093C7
:10443000960280915B028F5F80935B0280915B02AA
:10444000843011F410925B020E9412210E948E208F
:1044500002C01092960289818130C1F48091950248
:104460008823B1F481E08093950280915B028150B2
:1044700080935B0280915B028F3F19F483E080930D
:104480005B020E9412210E948E2002C010929502AF
:1044900089818930F9F480915F02813041F4809103
:1044A0005D028B5F80935D0210925F0210C080916D
:1044B00090028F5F8093900280919002833039F454
:1044C0001092900280915D028B5F80935D020E944A
:1044D000E41F05C081E080935F0210929002898101
:1044E0008730F9F480915E02813041F480915D0261
:1044F000855080935D0210925E0210C080918F0201
:104500008F5F80938F0280918F02833039F41092F5
:104510008F0280915D02855080935D020E94E41FAE
:1045200005C081E080935E0210928F020F90CF91C0
:10453000DF910895DF93CF93CDB7DEB7809160020E
:104540008130A1F483E060E00E94CA0F0E94ED2256
:10455000109260028091600280935C0281E067E0CB
:1045600041E00E9496110E94CD2214C08091600209
:10457000882381F482E060E00E94CA0F81E080938A
:1045800060028091600280935C0281E067E040E01D
:104590000E949611CF91DF910895DF93CF93CDB70D
:1045A000DEB7809182028130A9F4789480918302F1
:1045B000813031F410928302809183020E947B1F2C
:1045C00080918502813031F41092850280918502BC
:1045D0000E94961FCF91DF910895DF93CF93CDB7BF
:1045E000DEB780E00E94970882E066E041E00E942A
:1045F000E21D0E94B308CF91DF910895DF93CF931E
:10460000CDB7DEB782E066E040E00E94E21D0E9486
:10461000A508CF91DF910895DF93CF9300D00F923B
:10462000CDB7DEB7F89480E00E94EC109A838983BE
:1046300089819A819C01220F331FC901880F991F1C
:10464000880F991F820F931FCC01A0E0B0E0BC013E
:10465000CD010E94A904DC01CB01BC01CD0120E009
:1046600030EC4FE754E40E941903DC01CB01809346
:10467000870290938802A0938902B0938A02809166
:10468000870290918802A0918902B0918A02BC01B0
:10469000CD0120E030E040E251E40E941F02DC0145
:1046A000CB01BC01CD010E944900DC01CB019AE0A5
:1046B000692F0E94BF24892F8B8383E06BE00E94C7
:1046C000161B8091870290918802A0918902B09177
:1046D0008A02BC01CD010E944900DC01CB01882F78
:1046E00090E0A0E0B0E0BC01CD010E94C41C8EE2CD
:1046F0000E9477168B81882F90E0A0E0B0E0BC018B
:10470000CD010E94C41C84EE90E00E94ED1A7894C2
:104710000F900F900F90CF91DF910895DF93CF937B
:1047200000D000D0CDB7DEB780918302813009F090
:104730008BC080918202813009F086C0F89480910C
:10474000870290918802A0918902B0918A02BC01EF
:10475000CD010E944900DC01CB01883058F080E097
:1047600066E040E00E94961181E067E040E00E9430
:10477000961169C08091870290918802A091890268
:10478000B0918A02BC01CD010E944900DC01CB013D
:10479000863058F080E066E041E00E94961181E0AA
:1047A00067E040E00E9496114EC080918702909190
:1047B0008802A0918902B0918A02BC01CD010E94B9
:1047C0004900DC01CB01843058F080E066E041E034
:1047D0000E94961181E067E041E00E94961133C08B
:1047E0008091870290918802A0918902B0918A02FB
:1047F000BC01CD010E944900DC01CB01823050F0A8
:1048000080E066E041E00E94961181E067E00E944E
:10481000D61119C08091870290918802A0918902D7
:10482000B0918A0281E067E040E00E94961180E04A
:1048300066E040E00E9496110E94881B87EE90E09F
:104840000E94ED1AFFCF78940F900F900F900F9069
:10485000CF91DF910895DF93CF9300D0CDB7DEB72E
:1048600080E00E94EC109A83898389819A81CC012F
:10487000A0E0B0E028EC30E040E050E0BC01CD0129
:104880000E94A024DC01CB012FEF33E040E050E098
:10489000BC01CD010E94CB24DA01C90180939C02A6
:1048A0008091990290919A029C0189819A81A90133
:1048B000481B590BCA0190939E0280939D028091E0
:1048C0009D0290919E028431910544F480919D0255
:1048D00090919E025FEF8D3E950744F480919C027B
:1048E000882F90E090938C0280938B02F89481E063
:1048F0006EE00E94161B80918B0290918C02882F93
:1049000090E0A0E0B0E0BC01CD010E94C41C86EFA5
:1049100090E00E94ED1A789489819A8190939A028E
:10492000809399020F900F90CF91DF910895DF93BC
:10493000CF93CDB7DEB70E949C1E0E94561EFDCFBE
:10494000629FD001739FF001829FE00DF11D649F73
:10495000E00DF11D929FF00D839FF00D749FF00DFF
:10496000659FF00D9927729FB00DE11DF91F639FA0
:10497000B00DE11DF91FBD01CF0111240895991B50
:1049800079E004C0991F961708F0961B881F7A9546
:10499000C9F780950895A1E21A2EAA1BBB1BFD0141
:1049A0000DC0AA1FBB1FEE1FFF1FA217B307E4070E
:1049B000F50720F0A21BB30BE40BF50B661F771F66
:1049C000881F991F1A9469F7609570958095909546
:1049D0009B01AC01BD01CF0108952F923F924F92F0
:1049E0005F926F927F928F929F92AF92BF92CF927F
:1049F000DF92EF92FF920F931F93CF93DF93CDB788
:104A0000DEB7CA1BDB0B0FB6F894DEBF0FBECDBFFF
:104A100009942A88398848885F846E847D848C84D0
:104A20009B84AA84B984C884DF80EE80FD800C81D9
:104A30001B81AA81B981CE0FD11D0FB6F894DEBFBC
:104A40000FBECDBFED010895FB019F01E8944230F8
:104A5000C4F04532B4F44A3029F497FB1EF4909523
:104A600081959F4F642F77270E945525805D8A335B
:104A70000CF0895D8193CB010097A1F716F45DE2FC
:104A800051931082C9010C944525DC01FC01672F6C
:104A900071917723E1F7329704C07C916D93708315
:104AA0006291AE17BF07C8F30895AA1BBB1B51E163
:104AB00007C0AA1FBB1FA617B70710F0A61BB70B8E
:104AC000881F991F5A95A9F780959095BC01CD0133
:064AD0000895F894FFCFE9
:104AD6004742203A204E0053503A304B4D00434354
:104AE6003A002042413A0020534C3A0020444D3AC5
:104AF600004B4D48200044697374616E6365203A2B
:104B060020002020202020202020202020202020BF
:104B160020202020202000202020202020202020AF
:104B2600202020202000202020202020202020209F
:104B36002000444953203A20005374617475732051
:104B46003A200044697361626C656400534C494DB8
:104B5600203A20004D200043727573686564206317
:104B6600617220293A004B4D200000000000000031
:104B76000000000102020303030304040404040406
:104B860004040505050505050505050505050505D1
:104B960005050606060606060606060606060606B1
:104BA600060606060606060606060606060606069F
:104BB6000606070707070707070707070707070781
:104BC600070707070707070707070707070707076F
:104BD600070707070707070707070707070707075F
:104BE600070707070707070707070707070707074F
:104BF6000707080808080808080808080808080831
:104C0600080808080808080808080808080808081E
:104C1600080808080808080808080808080808080E
:104C260008080808080808080808080808080808FE
:104C360008080808080808080808080808080808EE
:104C460008080808080808080808080808080808DE
:104C560008080808080808080808080808080808CE
:104C660008080808080808080808080808080808BE
:104C7600080802050308FF000100060000000A1FDD
:104C86001F0E04000E1111111F1F1F0000000E1130
:104C960015110E0000000E1F1F1F0E000001031647
:104CA6001C08000000110A040A11000000081D1A61
:104CB6001D0800000E151B0E0E000000040E0E0E41
:104CC6000E1F040007060505040302010128010161
:104CD600014E4452010000000001000000000100E6
:044CE60000000001C9
:00000001FF
