:100000000C942A000C94AA0E0C94DD0E0C94100F84
:100010000C9447000C9447000C9447000C94470044
:100020000C9447000C9429070C9447000C94080882
:100030000C9447000C9447000C9447000C94470024
:100040000C9447000C9447000C9447000C94470014
:100050000C94470011241FBECFE5D4E0DEBFCDBF16
:1000600012E0A0E6B0E0E6E2FDE402C005900D92E9
:10007000A239B107D9F712E0A2E9B2E001C01D929E
:10008000AF3BB107E1F70E94BF250C9491260C9479
:100090000000EF92FF920F931F937B018C0120E0F1
:1000A00030E040E05FE40E94F50388238CF0C80153
:1000B000B70120E030E040E05FE40E94C1010E940F
:1000C00055049B01AC01205030404040504806C0D0
:1000D000C801B7010E9455049B01AC01B901CA01D6
:1000E0001F910F91FF90EF900895A0E0B0E0EBE733
:1000F000F0E00C941526DC012B01FA019C91923062
:1001000008F439C1EB018881823008F433C194309E
:1001100069F4843009F02FC111969C91119789815F
:10012000981709F428C1A4E1B1E025C1843009F48D
:1001300021C18230A9F4923009F01DC19A01AD01AC
:1001400088E0EA010990AE01E90109929E0181501F
:10015000C1F7E201898111969C918923818308C1AD
:10016000923009F407C112962D903C901397EB0141
:100170008A819B811496AD90BD90CD90DC901797AD
:10018000EC80FD800E811F819101281B390BB90184
:1001900037FF04C066277727621B730B6032710537
:1001A0000CF061C0121613066CF537014801062EDB
:1001B00004C096948794779467940A94D2F721E0C8
:1001C00030E040E050E004C0220F331F441F551FB1
:1001D0006A95D2F721503040404050402E213F21B7
:1001E00040235123211531054105510521F021E01E
:1001F00030E040E050E079018A01E628F72808293C
:1002000019293CC0232BD1F1260E371E350146019A
:10021000062E04C096948794779467940A94D2F734
:1002200021E030E040E050E004C0220F331F441FC3
:10023000551F6A95D2F721503040404050402A2146
:100240003B214C215D21211531054105510521F04E
:1002500021E030E040E050E059016A01A628B728CB
:10026000C828D9280BC0821593052CF01C01AA249C
:10027000BB24650103C0EE24FF24870111969C91E5
:10028000D20111968C91981709F445C0992339F041
:10029000A80197012A193B094C095D0906C0A6016E
:1002A00095012E193F09400B510B57FD08C01182D3
:1002B0003382228224833583468357831DC081E0A5
:1002C00081833382228288279927DC01821B930B4A
:1002D000A40BB50B84839583A683B7830DC0220F2F
:1002E000331F441F551F24833583468357838281E0
:1002F000938101979383828324813581468157813D
:10030000DA01C9010197A109B1098F5F9F4FAF4F72
:10031000BF4328F30BC0918333822282EA0CFB1C7B
:100320000C1D1D1DE482F5820683178383E0808304
:10033000248135814681578157FF1AC0C901AA27F8
:1003400097FDA095BA2F81709070A070B0705695EF
:10035000479537952795822B932BA42BB52B848318
:100360009583A683B7838281938101969383828349
:10037000DF0101C0D201CD01CDB7DEB7E2E10C94BF
:100380003126A0E2B0E0E7ECF1E00C94212669838D
:100390007A838B839C832D833E834F835887E9E048
:1003A000EE2EF12CEC0EFD1ECE010196B7010E943F
:1003B00046068E010F5E1F4FCE010596B8010E94C2
:1003C00046068A8991E089278A8BC701B801AE0168
:1003D000475E5F4F0E9475000E947105A096E6E09F
:1003E0000C943D26A0E2B0E0E8EFF1E00C94212669
:1003F00069837A838B839C832D833E834F835887C5
:10040000F9E0EF2EF12CEC0EFD1ECE010196B701A6
:100410000E9446068E010F5E1F4FCE010596B80161
:100420000E944606C701B801AE01475E5F4F0E94B9
:1004300075000E947105A096E6E00C943D26A0E2AE
:10044000B0E0E5E2F2E00C94152669837A838B83B1
:100450009C832D833E834F835887CE010196BE0136
:10046000675F7F4F0E944606CE010596BE016F5E14
:100470007F4F0E9446069985923088F089898230A4
:10048000C8F0943019F4823051F404C0843029F457
:10049000923081F484E191E0C6C0923049F420E0CA
:1004A0009A858A89981321E02A87CE010996BBC0D4
:1004B000823049F420E09A858A89981321E02A8BBA
:1004C000CE014196B0C02D843E844F8458886D88FB
:1004D0007E888F88988CEE24FF248701AA24BB2471
:1004E000650140E050E060E070E0E0E0F0E0C10174
:1004F00081709070892BE9F0E60CF71C081D191D1E
:100500009A01AB012A0D3B1D4C1D5D1D80E090E062
:10051000A0E0B0E0E614F7040805190520F481E036
:1005200090E0A0E0B0E0BA01A901480F591F6A1F8E
:100530007B1FAA0CBB1CCC1CDD1C97FE08C081E0F5
:1005400090E0A0E0B0E0A82AB92ACA2ADB2A3196B6
:10055000E032F10549F0660C771C881C991C569412
:10056000479437942794C3CFFA85EA892B893C892D
:100570008B859C85280F391F2E5F3F4F17C0CA01FE
:1005800081709070892B61F016950795F794E79428
:1005900080E090E0A0E0B0E8E82AF92A0A2B1B2BC3
:1005A00076956795579547952F5F3F4F77FDE7CF36
:1005B0000CC0440F551F661F771F17FD4160EE0CDE
:1005C000FF1C001F111F21503040403090E05907A0
:1005D00090E0690790E4790760F32B8F3C8FDB0193
:1005E000CA018F779070A070B07080349105A1051A
:1005F000B10561F447FD0AC0E114F10401051105DC
:1006000029F0405C5F4F6F4F7F4F40781A8EFE1786
:1006100011F081E08A8F4D8F5E8F6F8F78A383E01A
:10062000898FCE0149960E947105A096E2E10C9453
:100630003126A8E1B0E0EFE1F3E00C941D266983D8
:100640007A838B839C832D833E834F835887B9E0C5
:10065000EB2EF12CEC0EFD1ECE010196B7010E948F
:1006600046068E010F5E1F4FCE010596B8010E940F
:1006700046062985223008F47EC03989323010F4CC
:10068000B8017CC08A859A8989278A87243011F02D
:10069000223031F4231709F06EC064E171E06EC0BE
:1006A000343039F41D861E861F86188A1C861B86E8
:1006B00004C0323021F484E08987B7015FC02B8504
:1006C0003C858B899C89281B390B3C872B87ED84C3
:1006D000FE840F851889AD88BE88CF88D88CEA142F
:1006E000FB040C051D0540F4EE0CFF1C001F111F40
:1006F000215030403C872B8720E030E040E050E044
:1007000080E090E0A0E0B0E460E070E0EA14FB0478
:100710000C051D0540F0282B392B4A2B5B2BEA18C2
:10072000FB080C091D09B695A79597958795EE0CC2
:10073000FF1C001F111F6F5F7F4F6F31710531F775
:10074000DA01C9018F779070A070B0708034910584
:10075000A105B10561F427FD0AC0E114F10401050A
:10076000110529F0205C3F4F4F4F5F4F20782D87B8
:100770003E874F87588BBE01675F7F4FCB010E943A
:1007800071056896EAE00C943926A8E1B0E0EBEC3C
:10079000F3E00C94212669837A838B839C832D83D9
:1007A0003E834F83588789E0E82EF12CEC0EFD1E26
:1007B000CE010196B7010E9446068E010F5E1F4FC3
:1007C000CE010596B8010E9446068985823040F028
:1007D0008989823028F0C701B8010E94BE0601C095
:1007E0008FEF6896E6E00C943D26A8E1B0E0EBEFD1
:1007F000F3E00C94212669837A838B839C832D8379
:100800003E834F83588789E0E82EF12CEC0EFD1EC5
:10081000CE010196B7010E9446068E010F5E1F4F62
:10082000CE010596B8010E9446068985823040F0C7
:100830008989823028F0C701B8010E94BE0601C034
:100840008FEF6896E6E00C943D26A8E1B0E0EBE27D
:10085000F4E00C94212669837A838B839C832D8317
:100860003E834F83588789E0E82EF12CEC0EFD1E65
:10087000CE010196B7010E9446068E010F5E1F4F02
:10088000CE010596B8010E9446068985823040F067
:100890008989823028F0C701B8010E94BE0601C0D4
:1008A00081E06896E6E00C943D26ACE0B0E0EBE534
:1008B000F4E00C94252669837A838B839C83CE0194
:1008C0000196BE016B5F7F4F0E9446068D8182308C
:1008D00061F1823050F1843021F48E81882351F10E
:1008E0002EC02F81388537FD20C06E812F31310514
:1008F0001CF06623F9F023C08EE190E0821B930B7D
:1009000029853A854B855C8504C056954795379572
:1009100027958A95D2F76623B1F05095409530958A
:1009200021953F4F4F4F5F4F0EC020E030E040E039
:1009300050E009C02FEF3FEF4FEF5FE704C020E02A
:1009400030E040E050E8B901CA012C96E2E00C9496
:100950004126A8E0B0E0EFEAF4E00C941D267B010C
:100960008C01611571058105910519F482E0898377
:1009700060C083E089838EE1C82ED12CDC82CB82DB
:10098000ED82FE820F831887C801B7010E942205FD
:10099000FC013197F7FF3BC0222733272E1B3F0B6B
:1009A00057016801022E04C0D694C794B794A79447
:1009B0000A94D2F740E050E060E070E081E090E01F
:1009C000A0E0B0E004C0880F991FAA1FBB1F2A95A2
:1009D000D2F70197A109B1098E219F21A023B1234C
:1009E0000097A105B10521F041E050E060E070E022
:1009F0004A295B296C297D294D835E836F83788723
:100A00008EE190E08E1B9F0B9C838B8312C03097EE
:100A100081F00E2E04C0EE0CFF1C001F111F0A9463
:100A2000D2F7ED82FE820F831887CE1ADF0ADC82AE
:100A3000CB821A82CE0101960E9471052896EAE0C7
:100A40000C943926EF92FF920F931F937B018C0138
:100A500080E0E81680E0F80681E0080780E01807EB
:100A600088F48FEFE816F1040105110531F028F044
:100A700088E090E0A0E0B0E017C080E090E0A0E067
:100A8000B0E012C080E0E81680E0F80680E00807D9
:100A900081E0180728F088E190E0A0E0B0E004C011
:100AA00080E190E0A0E0B0E020E230E040E050E003
:100AB000281B390B4A0B5B0B04C016950795F7945E
:100AC000E7948A95D2F7F701E45EFE4F8081281BF8
:100AD000310941095109C9011F910F91FF90EF9010
:100AE0000895DF92EF92FF920F931F93FC01E48031
:100AF000F58006811781D1808081823048F480E0C2
:100B000090E0A0E1B0E0E82AF92A0A2B1B2BA5C04F
:100B1000843009F49FC0823021F4EE24FF24870141
:100B200005C0E114F1040105110519F4E0E0F0E05D
:100B300096C0628173819FEF623879070CF05BC0C9
:100B400022E83FEF261B370B2A3131052CF020E03D
:100B500030E040E050E02AC0B801A701022E04C0F6
:100B600076956795579547950A94D2F781E090E07E
:100B7000A0E0B0E004C0880F991FAA1FBB1F2A95F0
:100B8000D2F70197A109B1098E219F21A023B1239A
:100B90000097A105B10521F081E090E0A0E0B0E070
:100BA0009A01AB01282B392B4A2B5B2BDA01C901A7
:100BB0008F779070A070B07080349105A105B10559
:100BC00039F427FF09C0205C3F4F4F4F5F4F04C0EF
:100BD000215C3F4F4F4F5F4FE0E0F0E02030A0E05E
:100BE0003A07A0E04A07A0E45A0710F0E1E0F0E07D
:100BF00079018A0127C06038710564F5FB01E1586D
:100C0000FF4FD801C7018F779070A070B07080340B
:100C10009105A105B10539F4E7FE0DC080E490E02F
:100C2000A0E0B0E004C08FE390E0A0E0B0E0E80E08
:100C3000F91E0A1F1B1F17FF05C016950795F7948D
:100C4000E794319687E016950795F794E7948A958F
:100C5000D1F705C0EE24FF248701EFEFF0E06E2FFF
:100C6000679566276795902F9F77D794DD24D79453
:100C70008E2F8695492F462B582F5D29B701CA0123
:100C80001F910F91FF90EF90DF900895FC01DB0121
:100C9000408151812281622F6F7770E0221F2227CD
:100CA000221F9381892F880F822B282F30E0991FD4
:100CB0009927991F11969C93119721153105A9F534
:100CC000411551056105710511F482E037C082E8D4
:100CD0009FEF13969C938E9312979A01AB0167E056
:100CE000220F331F441F551F6A95D1F783E08C9361
:100CF0000DC0220F331F441F551F12968D919C91DA
:100D00001397019713969C938E931297203080E04F
:100D1000380780E0480780E4580758F314962D936D
:100D20003D934D935C93179708952F3F310579F4C8
:100D3000411551056105710519F484E08C930895FE
:100D400064FF03C081E08C9312C01C9210C02F5727
:100D5000304013963C932E93129783E08C9387E058
:100D6000440F551F661F771F8A95D1F7706414963C
:100D70004D935D936D937C93179708951F93DC01BA
:100D8000FB019C91923008F447C08081823008F4C6
:100D900043C0943051F411961C91843099F58181AF
:100DA000682F70E0611B71093FC0843021F09230E0
:100DB00031F48230B9F18181882389F12DC01196F7
:100DC0001C9111978230F1F081811817D9F4129695
:100DD0002D913C911397828193818217930794F010
:100DE00028173907BCF014968D919D910D90BC91F8
:100DF000A02D2481358146815781281739074A075C
:100E00005B0718F4112341F00AC082179307A40767
:100E1000B50740F4112319F061E070E005C06FEFF1
:100E20007FEF02C060E070E0CB011F910895DF9377
:100E3000CF9300D0CDB7DEB79A83898389819A8119
:100E400090939302809392020F900F90CF91DF9135
:100E500008951F920F920FB60F9211242F933F9374
:100E60004F935F936F937F938F939F93AF93BF93B2
:100E7000EF93FF93DF93CF93CDB7DEB780919202CC
:100E800090919302009729F0E0919202F0919302E1
:100E90000995CF91DF91FF91EF91BF91AF919F9114
:100EA0008F917F916F915F914F913F912F910F9013
:100EB0000FBE0F901F901895DF93CF93CDB7DEB77D
:100EC000AFE4B0E0EFE4F0E0808188608C93AFE4C1
:100ED000B0E0EFE4F0E0808184608C93AFE4B0E0B8
:100EE000EFE4F0E080818E7F8C93AFE4B0E0EFE43C
:100EF000F0E080818D7F8C93AEE4B0E0EEE4F0E032
:100F00008081877F8C93AEE4B0E0EEE4F0E08081F6
:100F10008F7E8C93AFE5B0E0EFE5F0E080818068F4
:100F20008C93A9E5B0E0E9E5F0E0808184608C93E2
:100F300080E090E00E949F07CF91DF910895DF93BA
:100F4000CF9300D0CDB7DEB79A838983ECE4F0E08D
:100F500089819A81918380830F900F90CF91DF9147
:100F60000895DF93CF93CDB7DEB7AEE4B0E0EEE403
:100F7000F0E08081887F8C93CF91DF910895DF939B
:100F8000CF93CDB7DEB7AEE4B0E0EEE4F0E0808121
:100F9000982F987F80911C02892B8C93CF91DF91A1
:100FA0000895DF93CF93CDB7DEB70E94BF07CF91EF
:100FB000DF910895DF93CF93CDB7DEB7A9E5B0E019
:100FC000E9E5F0E080818B7F8C93CF91DF910895EC
:100FD000DF93CF93CDB7DEB7A9E5B0E0E9E5F0E068
:100FE000808184608C93CF91DF910895DF93CF93BC
:100FF00000D0CDB7DEB79A83898389819A81909397
:101000009502809394020F900F90CF91DF910895F5
:101010001F920F920FB60F9211242F933F934F936D
:101020005F936F937F938F939F93AF93BF93EF9350
:10103000FF93DF93CF93CDB7DEB780919402909169
:101040009502009729F0E0919402F091950209959C
:10105000CF91DF91FF91EF91BF91AF919F918F91D0
:101060007F916F915F914F913F912F910F900FBEA4
:101070000F901F901895DF93CF93CDB7DEB7A3E500
:10108000B0E0E3E5F0E0808180688C93A3E5B0E018
:10109000E3E5F0E080818F7B8C93A3E5B0E0E3E5AE
:1010A000F0E08081877F8C93AFE5B0E0EFE5F0E082
:1010B000808180688C93A9E5B0E0E9E5F0E080816B
:1010C00081608C9380E00E946808CF91DF91089541
:1010D000DF93CF930F92CDB7DEB78983E2E5F0E0DF
:1010E000898180830F90CF91DF910895DF93CF9313
:1010F000CDB7DEB7A3E5B0E0E3E5F0E08081887F1F
:101100008C93CF91DF910895DF93CF93CDB7DEB766
:10111000A3E5B0E0E3E5F0E08081982F987F80912F
:101120001D02892B8C93CF91DF910895DF93CF938C
:10113000CDB7DEB70E948408CF91DF910895DF9389
:10114000CF93CDB7DEB7A9E5B0E0E9E5F0E0808167
:101150008E7F8C93CF91DF910895DF93CF93CDB79E
:10116000DEB7A9E5B0E0E9E5F0E0808181608C932D
:10117000CF91DF910895DF93CF930F92CDB7DEB774
:10118000198257C08981282F30E0C901880F991F23
:10119000820F931FFC01E15EFD4F80818830E9F4EE
:1011A0008981282F30E0C901880F991F820F931F72
:1011B000FC01E25EFD4F40818981282F30E0C901AA
:1011C000880F991F820F931FFC01E05EFD4F9081F5
:1011D000842F692F0E94290D29C08981282F30E092
:1011E000C901880F991F820F931FFC01E25EFD4F1A
:1011F00050818981282F30E0C901880F991F820F03
:10120000931FFC01E15EFD4F40818981282F30E072
:10121000C901880F991F820F931FFC01E05EFD4FEB
:101220009081852F642F492F0E94210989818F5F2A
:1012300089838981882309F4A5CF0F90CF91DF910D
:101240000895DF93CF9300D000D00F92CDB7DEB7D3
:1012500089836A834B838981843008F0D8C18A816D
:10126000883008F0D4C18981282F30E03D832C8359
:101270008C819D818130910509F484C02C813D8150
:10128000223031052CF48C819D81009771F0BFC113
:101290002C813D812230310509F4E1C08C819D8192
:1012A0008330910509F448C1B2C18B81882341F58F
:1012B000AAE3B0E0EAE3F0E08081482F8A81282F9A
:1012C00030E081E090E002C0880F991F2A95E2F794
:1012D000809584238C93ABE3B0E0EBE3F0E0808176
:1012E000482F8A81282F30E081E090E0022E02C052
:1012F000880F991F0A94E2F7809584238C9387C105
:101300008B81813039F5AAE3B0E0EAE3F0E0808137
:10131000482F8A81282F30E081E090E002C0880FBA
:10132000991F2A95E2F7809584238C93ABE3B0E074
:10133000EBE3F0E08081482F8A81282F30E081E0C4
:1013400090E0022E02C0880F991F0A94E2F7842BC6
:101350008C935DC18B81823009F059C1AAE3B0E062
:10136000EAE3F0E08081482F8A81282F30E081E095
:1013700090E0022E02C0880F991F0A94E2F7842B96
:101380008C9345C18B81882341F5A7E3B0E0E7E367
:10139000F0E08081482F8A81282F30E081E090E0C2
:1013A00002C0880F991F2A95E2F7809584238C93B9
:1013B000A8E3B0E0E8E3F0E08081482F8A81282F9D
:1013C00030E081E090E0022E02C0880F991F0A945D
:1013D000E2F7809584238C931AC18B81813039F593
:1013E000A7E3B0E0E7E3F0E08081482F8A81282F6F
:1013F00030E081E090E002C0880F991F2A95E2F763
:10140000809584238C93A8E3B0E0E8E3F0E080814A
:10141000482F8A81282F30E081E090E0022E02C020
:10142000880F991F0A94E2F7842B8C93F0C08B816C
:10143000823009F0ECC0A7E3B0E0E7E3F0E08081A0
:10144000482F8A81282F30E081E090E0022E02C0F0
:10145000880F991F0A94E2F7842B8C93D8C08B8154
:10146000882341F5A4E3B0E0E4E3F0E08081482F75
:101470008A81282F30E081E090E002C0880F991F18
:101480002A95E2F7809584238C93A5E3B0E0E5E309
:10149000F0E08081482F8A81282F30E081E090E0C1
:1014A000022E02C0880F991F0A94E2F780958423C8
:1014B0008C93ADC08B81813039F5A4E3B0E0E4E3D7
:1014C000F0E08081482F8A81282F30E081E090E091
:1014D00002C0880F991F2A95E2F7809584238C9388
:1014E000A5E3B0E0E5E3F0E08081482F8A81282F72
:1014F00030E081E090E0022E02C0880F991F0A942C
:10150000E2F7842B8C9383C08B81823009F07FC0FB
:10151000A4E3B0E0E4E3F0E08081482F8A81282F43
:1015200030E081E090E0022E02C0880F991F0A94FB
:10153000E2F7842B8C936BC08B81882341F5A1E368
:10154000B0E0E1E3F0E08081482F8A81282F30E08D
:1015500081E090E002C0880F991F2A95E2F78095FC
:1015600084238C93A2E3B0E0E2E3F0E08081482F93
:101570008A81282F30E081E090E0022E02C0880F9F
:10158000991F0A94E2F7809584238C9340C08B8145
:10159000813039F5A1E3B0E0E1E3F0E08081482F4C
:1015A0008A81282F30E081E090E002C0880F991FE7
:1015B0002A95E2F7809584238C93A2E3B0E0E2E3DE
:1015C000F0E08081482F8A81282F30E081E090E090
:1015D000022E02C0880F991F0A94E2F7842B8C9385
:1015E00016C08B81823099F4A1E3B0E0E1E3F0E032
:1015F0008081482F8A81282F30E081E090E0022E00
:1016000002C0880F991F0A94E2F7842B8C930F90E5
:101610000F900F900F900F90CF91DF910895DF936F
:10162000CF9300D000D00F92CDB7DEB78A836B8303
:1016300019828A81843008F084C08B81883008F058
:1016400080C08A81282F30E03D832C834C815D81CE
:101650004130510579F18C819D818230910534F4BE
:101660002C813D812115310569F06BC04C815D8174
:1016700042305105B9F18C819D818330910509F487
:1016800049C05FC0E9E3F0E08081282F30E08B8122
:10169000882F90E0A90102C0559547958A95E2F7F9
:1016A000CA0181709070882319F081E0898349C054
:1016B000198247C0E6E3F0E08081282F30E08B817B
:1016C000882F90E0A90102C0559547958A95E2F7C9
:1016D000CA0181709070882319F081E0898331C03C
:1016E00019822FC0E3E3F0E08081282F30E08B8166
:1016F000882F90E0A90102C0559547958A95E2F799
:10170000CA0181709070882319F081E0898319C023
:10171000198217C0E0E3F0E08081282F30E08B8150
:10172000882F90E0A90102C0559547958A95E2F768
:10173000CA0181709070882319F081E0898301C00B
:10174000198289810F900F900F900F900F90CF9179
:10175000DF910895DF93CF9300D000D00F92CDB7E3
:10176000DEB789836A834B838981843008F0E4C0C3
:101770008A81883008F0E0C08981282F30E03D83DD
:101780002C838C819D818130910509F447C02C8187
:101790003D81223031052CF48C819D81009771F0C0
:1017A000CBC02C813D812230310509F467C08C818A
:1017B0009D818330910509F491C0BEC08B81813039
:1017C000A1F4ABE3B0E0EBE3F0E08081482F8A8145
:1017D000282F30E081E090E0022E02C0880F991F90
:1017E0000A94E2F7842B8C93A7C08B81882309F09D
:1017F000A3C0ABE3B0E0EBE3F0E08081482F8A8147
:10180000282F30E081E090E0022E02C0880F991F5F
:101810000A94E2F7809584238C938EC08B8181306B
:10182000A1F4A8E3B0E0E8E3F0E08081482F8A81EA
:10183000282F30E081E090E0022E02C0880F991F2F
:101840000A94E2F7842B8C9377C08B81882309F06C
:1018500073C0A8E3B0E0E8E3F0E08081482F8A811C
:10186000282F30E081E090E0022E02C0880F991FFF
:101870000A94E2F7809584238C935EC08B8181303B
:10188000A1F4A5E3B0E0E5E3F0E08081482F8A8190
:10189000282F30E081E090E0022E02C0880F991FCF
:1018A0000A94E2F7842B8C9347C08B81882309F03C
:1018B00043C0A5E3B0E0E5E3F0E08081482F8A81F2
:1018C000282F30E081E090E0022E02C0880F991F9F
:1018D0000A94E2F7809584238C932EC08B8181300B
:1018E000A1F4A2E3B0E0E2E3F0E08081482F8A8136
:1018F000282F30E081E090E0022E02C0880F991F6F
:101900000A94E2F7842B8C9317C08B818823A1F46F
:10191000A2E3B0E0E2E3F0E08081482F8A81282F43
:1019200030E081E090E0022E02C0880F991F0A94F7
:10193000E2F7809584238C930F900F900F900F9077
:101940000F90CF91DF910895DF93CF9300D000D017
:10195000CDB7DEB789836A838981843008F072C08D
:101960008A81883008F06EC08981282F30E03C835E
:101970002B838B819C818130910549F12B813C81A6
:10198000223031052CF48B819C81009761F05AC084
:101990002B813C812230310571F18B819C81833018
:1019A0009105E9F14FC0ABE3B0E0EBE3F0E08081FB
:1019B000482F8A81282F30E081E090E0022E02C07B
:1019C000880F991F0A94E2F784278C933BC0A8E301
:1019D000B0E0E8E3F0E08081482F8A81282F30E0F2
:1019E00081E090E0022E02C0880F991F0A94E2F76E
:1019F00084278C9327C0A5E3B0E0E5E3F0E0808185
:101A0000482F8A81282F30E081E090E0022E02C02A
:101A1000880F991F0A94E2F784278C9313C0A2E3DE
:101A2000B0E0E2E3F0E08081482F8A81282F30E0A7
:101A300081E090E0022E02C0880F991F0A94E2F71D
:101A400084278C930F900F900F900F90CF91DF9180
:101A50000895DF93CF9300D000D0CDB7DEB7898350
:101A60006A838981843008F096C08981282F30E00C
:101A70003C832B838B819C8181309105A9F12B8143
:101A80003C81223031052CF48B819C81009771F0D0
:101A900082C02B813C812230310509F443C08B8107
:101AA0009C818330910509F45AC075C08A818823CE
:101AB00039F4EAE3F0E01082EBE3F0E010826BC06F
:101AC0008A81813041F4EAE3F0E01082EBE3F0E058
:101AD0008FEF808360C08A818F3F09F05CC0EAE3AA
:101AE000F0E08FEF808357C08A81882339F4E7E3E1
:101AF000F0E01082E8E3F0E010824DC08A8181308E
:101B000041F4E7E3F0E01082E8E3F0E08FEF808358
:101B100042C08A818F3F09F03EC0E7E3F0E08FEFDB
:101B2000808339C08A81882339F4E4E3F0E01082AD
:101B3000E5E3F0E010822FC08A81813041F4E4E3D4
:101B4000F0E01082E5E3F0E08FEF808324C08A812B
:101B50008F3F09F5E4E3F0E08FEF80831CC08A81BA
:101B6000882339F4E1E3F0E01082E2E3F0E0108250
:101B700012C08A81813041F4E1E3F0E01082E2E3B7
:101B8000F0E08FEF808307C08A818F3F21F4E1E38B
:101B9000F0E08FEF80830F900F900F900F90CF9118
:101BA000DF910895DF93CF9300D000D0CDB7DEB79B
:101BB0008A8319828A81843090F58A81282F30E0C7
:101BC0003C832B838B819C8181309105D1F02B81CB
:101BD0003C81223031052CF48B819C81009761F08F
:101BE0001EC02B813C812230310581F08B819C818C
:101BF0008330910581F013C0E9E3F0E080818983AF
:101C00000EC0E6E3F0E08081898309C0E3E3F0E001
:101C10008081898304C0E0E3F0E080818983898149
:101C20000F900F900F900F90CF91DF910895DF9359
:101C3000CF9300D000D0CDB7DEB789836A83898186
:101C4000843090F58981282F30E03C832B838B8171
:101C50009C8181309105D1F02B813C81223031056E
:101C60002CF48B819C81009761F01EC02B813C81FC
:101C70002230310581F08B819C818330910581F088
:101C800013C0EBE3F0E08A8180830EC0E8E3F0E06C
:101C90008A81808309C0E5E3F0E08A81808304C003
:101CA000E2E3F0E08A8180830F900F900F900F9015
:101CB000CF91DF910895DF93CF9300D00F92CDB7EE
:101CC000DEB789838981843008F03EC08981282F5E
:101CD00030E03B832A838A819B8181309105E9F042
:101CE0002A813B81223031052CF48A819B81009727
:101CF00061F02AC02A813B8122303105B1F08A810E
:101D00009B8183309105C9F01FC0ABE3B0E0EBE3EA
:101D1000F0E0808180958C9317C0A8E3B0E0E8E301
:101D2000F0E0808180958C930FC0A5E3B0E0E5E3FF
:101D3000F0E0808180958C9307C0A2E3B0E0E2E3FD
:101D4000F0E0808180958C930F900F900F90CF9151
:101D5000DF9108951F920F920FB60F9211242F93C7
:101D60003F934F935F936F937F938F939F93AF9323
:101D7000BF93EF93FF93DF93CF93CDB7DEB78091FF
:101D8000960290919702009729F0E0919602F091C7
:101D900097020995CF91DF91FF91EF91BF91AF919C
:101DA0009F918F917F916F915F914F913F912F9173
:101DB0000F900FBE0F901F9018951F920F920FB6A5
:101DC0000F9211242F933F934F935F936F937F93C1
:101DD0008F939F93AF93BF93EF93FF93DF93CF9333
:101DE000CDB7DEB78091980290919902009729F0C3
:101DF000E0919802F09199020995CF91DF91FF91BE
:101E0000EF91BF91AF919F918F917F916F915F9172
:101E10004F913F912F910F900FBE0F901F901895EB
:101E20001F920F920FB60F9211242F933F934F934F
:101E30005F936F937F938F939F93AF93BF93EF9332
:101E4000FF93DF93CF93CDB7DEB780919A02909145
:101E50009B02009729F0E0919A02F0919B0209956C
:101E6000CF91DF91FF91EF91BF91AF919F918F91B2
:101E70007F916F915F914F913F912F910F900FBE86
:101E80000F901F901895DF93CF9300D0CDB7DEB79A
:101E90009A83898389819A8190939702809396028D
:101EA0000F900F90CF91DF910895DF93CF9300D0E3
:101EB000CDB7DEB79A83898389819A8190939902FD
:101EC000809398020F900F90CF91DF910895DF9348
:101ED000CF9300D0CDB7DEB79A83898389819A8169
:101EE00090939B0280939A020F900F90CF91DF9175
:101EF0000895DF93CF9300D0CDB7DEB789836A838F
:101F000083E062E04A810E942109A5E5B0E0E5E5B1
:101F1000F0E08081982F9C7F8981892B8C93ABE5A1
:101F2000B0E0EBE5F0E0808180648C930F900F903F
:101F3000CF91DF910895DF93CF9300D0CDB7DEB777
:101F400089836A8383E063E04A810E942109A5E5D1
:101F5000B0E0E5E5F0E08081282F237F8981882F9C
:101F600090E0880F991F880F991F822B8C93ABE507
:101F7000B0E0EBE5F0E0808180688C930F900F90EB
:101F8000CF91DF910895DF93CF9300D0CDB7DEB727
:101F900089836A8381E062E04A810E942109898104
:101FA000823041F4A4E5B0E0E4E5F0E080818F7B8D
:101FB0008C930AC08981833039F4A4E5B0E0E4E56C
:101FC000F0E0808180648C93ABE5B0E0EBE5F0E07D
:101FD000808180628C930F900F90CF91DF91089554
:101FE000DF93CF93CDB7DEB7ABE5B0E0EBE5F0E044
:101FF00080818F7B8C93CF91DF910895DF93CF9376
:10200000CDB7DEB7ABE5B0E0EBE5F0E080818F77F0
:102010008C93CF91DF910895DF93CF93CDB7DEB747
:10202000ABE5B0E0EBE5F0E080818F7D8C93CF9164
:10203000DF910895DF93CF930F92CDB7DEB78983F9
:10204000898187708983A7E2B0E0E7E2F0E08081D0
:10205000982F907E8981892B8C93A6E2B0E0E6E2EE
:10206000F0E0808180648C930F90CF91DF91089590
:10207000DF93CF93CDB7DEB7A7E2B0E0E7E2F0E0C1
:102080008081282F2F7380912202882F90E00024D6
:10209000969587950794969587950794982F802D08
:1020A000822B8C9380912302882341F4A7E2B0E035
:1020B000E7E2F0E080818F7D8C930BC0809123025A
:1020C000813039F4A7E2B0E0E7E2F0E0808180629D
:1020D0008C93A6E2B0E0E6E2F0E0808180688C9329
:1020E00080912102882399F180912102813079F435
:1020F000A6E2B0E0E6E2F0E0808180628C93A0E5A9
:10210000B0E0E0E5F0E080818F708C9320C080919A
:1021100021028230E1F4A6E2B0E0E6E2F0E0808164
:1021200080628C93A0E5B0E0E0E5F0E08081282FAC
:102130002F7080912502882F90E0880F991F82953B
:102140009295907F9827807F9827822B8C93A6E288
:10215000B0E0E6E2F0E08081982F987F8091240241
:102160008770892B8C93A6E2B0E0E6E2F0E08081F4
:10217000877F8C93CF91DF910895DF93CF930F9258
:10218000CDB7DEB7898389810E941A10E6E2F0E0BC
:102190008081882F90E0807190700097B9F30E9441
:1021A000F11090939D0280939C02A6E2B0E0E6E2DB
:1021B000F0E0808180618C9380919C0290919D02DF
:1021C0000F90CF91DF910895DF93CF930F92CDB70A
:1021D000DEB7898389810E941A100F90CF91DF9119
:1021E0000895DF93CF9300D0CDB7DEB71A8219825E
:1021F000809123028823B9F4E4E2F0E08081882F03
:1022000090E09A838983E5E2F0E08081882F90E076
:1022100083709070382F222789819A81822B932B8B
:102220009A83898320C0809123028130E1F4E4E223
:10223000F0E080818295869586958370882F90E066
:1022400090709A838983E5E2F0E08081882F90E0A6
:102250009C01220F331F220F331F89819A81822B09
:10226000932B9A83898389819A810F900F90CF91C4
:10227000DF910895DF93CF930F92CDB7DEB78983B7
:1022800080E0698140E00E9421090F90CF91DF91A9
:102290000895DF93CF9300D00F92CDB7DEB7898337
:1022A0000F900F900F90CF91DF910895DF93CF9310
:1022B00000D0CDB7DEB789836A8389816A8142E025
:1022C0000E9421090F900F90CF91DF910895DF9325
:1022D000CF9300D00F92CDB7DEB789836A834B834B
:1022E0008B81882331F489816A8140E00E94AA0BA6
:1022F00008C08B81813029F489816A8141E00E9484
:10230000AA0B0F900F900F90CF91DF910895DF935C
:10231000CF9300D00F92CDB7DEB789836A834B830A
:102320008B81882331F489816A8141E00E94AA0B64
:1023300008C08B81813029F489816A8140E00E9444
:10234000AA0B0F900F900F90CF91DF910895DF931C
:10235000CF9300D0CDB7DEB789836A8389816A8144
:102360000E94A40C0F900F90CF91DF910895DF93FE
:10237000CF93CDB7DEB780E063E042E00E94210951
:1023800080E062E042E00E94210981E060E042E0FA
:102390000E94210981E061E042E00E94210981E080
:1023A00062E042E00E94210981E064E042E00E9494
:1023B000210982E00E94E81188E20E94E8118CE085
:1023C0000E94E81181E00E94E811CF91DF91089509
:1023D0000F931F93DF93CF93CDB7DEB7C456D04092
:1023E0000FB6F894DEBF0FBECDBFFE01EC59FF4F14
:1023F000808380E063E040E00E94AA0BFE01E15A86
:10240000FF4F80E090E0A0E8BFE380839183A28348
:10241000B3838E01055A1F4FFE01E15AFF4F6081C1
:1024200071818281938120E030E04AE755E40E9487
:102430001F02DC01CB01F80180839183A283B38367
:10244000FE01E55AFF4F608171818281938120E016
:1024500030E040E85FE30E942504882344F4FE0155
:10246000E75AFF4F81E090E09183808364C0FE01D2
:10247000E55AFF4F608171818281938120E03FEFB7
:102480004FE757E40E94C50318160CF043C0FE0145
:10249000E15AFF4F608171818281938120E030E0B9
:1024A00040E251E40E941F02DC01CB018E01075A79
:1024B0001F4FBC01CD010E944900DC01CB01F80196
:1024C000918380831FC0FE01E95AFF4F80E991E0AC
:1024D00091838083FE01E95AFF4F808191810197AA
:1024E000F1F7FE01E95AFF4F91838083DE01A75A7D
:1024F000BF4FFE01E75AFF4F8081918101971196EE
:102500009C938E93FE01E75AFF4F80819181009743
:10251000D1F627C08E01075A1F4FFE01E55AFF4F23
:1025200060817181828193810E944900DC01CB012D
:10253000F80191838083DE01AB5ABF4FFE01E75A59
:10254000FF4F808191818D939C93FE01EB5AFF4F49
:10255000808191810197F1F7FE01EB5AFF4F918342
:10256000808380E062E041E00E94AA0BFE01EF5A06
:10257000FF4F80E090E0A0E8BFE380839183A283D7
:10258000B3838E01035B1F4FFE01EF5AFF4F608143
:1025900071818281938120E030E04AE755E40E9416
:1025A0001F02DC01CB01F80180839183A283B383F6
:1025B000FE01E35BFF4F608171818281938120E0A6
:1025C00030E040E85FE30E942504882344F4FE01E4
:1025D000E55BFF4F81E090E09183808364C0FE0162
:1025E000E35BFF4F608171818281938120E03FEF47
:1025F0004FE757E40E94C50318160CF043C0FE01D4
:10260000EF5AFF4F608171818281938120E030E039
:1026100040E251E40E941F02DC01CB018E01055B08
:102620001F4FBC01CD010E944900DC01CB01F80124
:10263000918380831FC0FE01E75BFF4F80E991E03B
:1026400091838083FE01E75BFF4F80819181019739
:10265000F1F7FE01E75BFF4F91838083DE01A55B0D
:10266000BF4FFE01E55BFF4F80819181019711967D
:102670009C938E93FE01E55BFF4F808191810097D3
:10268000D1F627C08E01055B1F4FFE01E35BFF4FB4
:1026900060817181828193810E944900DC01CB01BC
:1026A000F80191838083DE01A95BBF4FFE01E55BEA
:1026B000FF4F808191818D939C93FE01E95BFF4FD9
:1026C000808191810197F1F7FE01E95BFF4F9183D2
:1026D0008083DE01AD59BF4FFE01EC59FF4F808171
:1026E00082958F708C93FE01ED59FF4F8081982F5A
:1026F000917081E060E0492F0E94AA0BFE01ED5924
:10270000FF4F80818695982F917081E061E0492F7D
:102710000E94AA0BFE01ED59FF4F80818695869598
:10272000982F917081E062E0492F0E94AA0BFE0170
:10273000ED59FF4F8081869586958695982F9170EB
:1027400081E064E0492F0E94AA0BFE01ED5BFF4F80
:1027500080E090E0A0E8BFE380839183A283B3830D
:102760008E01015C1F4FFE01ED5BFF4F60817181A7
:102770008281938120E030E04AE755E40E941F0205
:10278000DC01CB01F80180839183A283B383FE0136
:10279000FF96608171818281938120E030E040E882
:1027A0005FE30E94250488232CF481E090E09EAF33
:1027B0008DAF46C0FE01FF96608171818281938159
:1027C00020E03FEF4FE757E40E94C503181664F579
:1027D000FE01ED5BFF4F608171818281938120E07A
:1027E00030E040E251E40E941F02DC01CB01BC0159
:1027F000CD010E944900DC01CB019EAF8DAF0FC01F
:1028000080E991E09CAF8BAF8BAD9CAD0197F1F768
:102810009CAF8BAF8DAD9EAD01979EAF8DAF8DAD53
:102820009EAD009769F716C0FE01FF966081718129
:10283000828193810E944900DC01CB019EAF8DAF64
:102840008DAD9EAD9AAF89AF89AD9AAD0197F1F785
:102850009AAF89AF80E062E040E00E94AA0B80E07E
:1028600090E0A0E8BFE38DAB9EABAFABB8AF6DA976
:102870007EA98FA998AD20E030E04AE755E40E9498
:102880001F02DC01CB0189AB9AABABABBCAB69A936
:102890007AA98BA99CA920E030E040E85FE30E9480
:1028A000250488232CF481E090E098AB8FA73FC0EB
:1028B00069A97AA98BA99CA920E03FEF4FE757E4CB
:1028C0000E94C50318164CF56DA97EA98FA998AD75
:1028D00020E030E040E251E40E941F02DC01CB0125
:1028E000BC01CD010E944900DC01CB0198AB8FA750
:1028F0000FC080E991E09EA78DA78DA59EA50197A9
:10290000F1F79EA78DA78FA598A9019798AB8FA7E0
:102910008FA598A9009769F714C069A97AA98BA90E
:102920009CA90E944900DC01CB0198AB8FA78FA521
:1029300098A99CA78BA78BA59CA50197F1F79CA7AD
:102940008BA780E062E041E00E94AA0B80E090E06B
:10295000A0E8BFE38FA398A7A9A7BAA76FA178A5FE
:1029600089A59AA520E030E04AE755E40E941F02BD
:10297000DC01CB018BA39CA3ADA3BEA36BA17CA167
:102980008DA19EA120E030E040E85FE30E94250495
:1029900088232CF481E090E09AA389A33FC06BA127
:1029A0007CA18DA19EA120E03FEF4FE757E40E945C
:1029B000C50318164CF56FA178A589A59AA520E046
:1029C00030E040E251E40E941F02DC01CB01BC0177
:1029D000CD010E944900DC01CB019AA389A30FC05D
:1029E00080E991E098A38F8F8F8D98A10197F1F7DF
:1029F00098A38F8F89A19AA101979AA389A389A1EE
:102A00009AA1009769F714C06BA17CA18DA19EA12A
:102A10000E944900DC01CB019AA389A389A19AA154
:102A20009E8F8D8F8D8D9E8D0197F1F79E8F8D8F4F
:102A3000DE01AD59BF4FFE01EC59FF4F80818F7011
:102A40008C93FE01ED59FF4F8081982F917081E0AA
:102A500060E0492F0E94AA0BFE01ED59FF4F8081D3
:102A60008695982F917081E061E0492F0E94AA0B12
:102A7000FE01ED59FF4F808186958695982F9170C4
:102A800081E062E0492F0E94AA0BFE01ED59FF4F41
:102A90008081869586958695982F917081E064E077
:102AA000492F0E94AA0B80E090E0A0E8BFE3898F45
:102AB0009A8FAB8FBC8F698D7A8D8B8D9C8D20E02A
:102AC00030E04AE755E40E941F02DC01CB018D8B08
:102AD0009E8BAF8BB88F6D897E898F89988D20E012
:102AE00030E040E85FE30E94250488232CF481E075
:102AF00090E09C8B8B8B3FC06D897E898F89988DF0
:102B000020E03FEF4FE757E40E94C50318164CF54D
:102B1000698D7A8D8B8D9C8D20E030E040E251E410
:102B20000E941F02DC01CB01BC01CD010E944900C3
:102B3000DC01CB019C8B8B8B0FC080E991E09A8BE1
:102B4000898B89899A890197F1F79A8B898B8B896F
:102B50009C8901979C8B8B8B8B899C89009769F74B
:102B600014C06D897E898F89988D0E944900DC018F
:102B7000CB019C8B8B8B8B899C89988B8F878F85C6
:102B800098890197F1F7988B8F8780E062E040E0A9
:102B90000E94AA0B80E090E0A0E8BFE38B879C87AF
:102BA000AD87BE876B857C858D859E8520E030E076
:102BB0004AE755E40E941F02DC01CB018F8398870E
:102BC000A987BA876F81788589859A8520E030E06A
:102BD00040E85FE30E94250488232CF481E090E024
:102BE0009E838D833FC06F81788589859A8520E09B
:102BF0003FEF4FE757E40E94C50318164CF56B856D
:102C00007C858D859E8520E030E040E251E40E9485
:102C10001F02DC01CB01BC01CD010E944900DC0197
:102C2000CB019E838D830FC080E991E09C838B83D1
:102C30008B819C810197F1F79C838B838D819E8191
:102C400001979E838D838D819E81009769F714C0C3
:102C50006F81788589859A850E944900DC01CB01C6
:102C60009E838D838D819E819A83898389819A81B8
:102C70000197F1F79A838983CC59DF4F0FB6F89407
:102C8000DEBF0FBECDBFCF91DF911F910F91089591
:102C90000F931F93DF93CF93CDB7DEB7C456D040C9
:102CA0000FB6F894DEBF0FBECDBFFE01EC59FF4F4B
:102CB000808380E063E041E00E94AA0BFE01E15ABC
:102CC000FF4F80E090E0A0E8BFE380839183A28380
:102CD000B3838E01055A1F4FFE01E15AFF4F6081F9
:102CE00071818281938120E030E04AE755E40E94BF
:102CF0001F02DC01CB01F80180839183A283B3839F
:102D0000FE01E55AFF4F608171818281938120E04D
:102D100030E040E85FE30E942504882344F4FE018C
:102D2000E75AFF4F81E090E09183808364C0FE0109
:102D3000E55AFF4F608171818281938120E03FEFEE
:102D40004FE757E40E94C50318160CF043C0FE017C
:102D5000E15AFF4F608171818281938120E030E0F0
:102D600040E251E40E941F02DC01CB018E01075AB0
:102D70001F4FBC01CD010E944900DC01CB01F801CD
:102D8000918380831FC0FE01E95AFF4F80E991E0E3
:102D900091838083FE01E95AFF4F808191810197E1
:102DA000F1F7FE01E95AFF4F91838083DE01A75AB4
:102DB000BF4FFE01E75AFF4F808191810197119625
:102DC0009C938E93FE01E75AFF4F8081918100977B
:102DD000D1F627C08E01075A1F4FFE01E55AFF4F5B
:102DE00060817181828193810E944900DC01CB0165
:102DF000F80191838083DE01AB5ABF4FFE01E75A91
:102E0000FF4F808191818D939C93FE01EB5AFF4F80
:102E1000808191810197F1F7FE01EB5AFF4F918379
:102E2000808380E062E041E00E94AA0BFE01EF5A3D
:102E3000FF4F80E090E0A0E8BFE380839183A2830E
:102E4000B3838E01035B1F4FFE01EF5AFF4F60817A
:102E500071818281938120E030E04AE755E40E944D
:102E60001F02DC01CB01F80180839183A283B3832D
:102E7000FE01E35BFF4F608171818281938120E0DD
:102E800030E040E85FE30E942504882344F4FE011B
:102E9000E55BFF4F81E090E09183808364C0FE0199
:102EA000E35BFF4F608171818281938120E03FEF7E
:102EB0004FE757E40E94C50318160CF043C0FE010B
:102EC000EF5AFF4F608171818281938120E030E071
:102ED00040E251E40E941F02DC01CB018E01055B40
:102EE0001F4FBC01CD010E944900DC01CB01F8015C
:102EF000918380831FC0FE01E75BFF4F80E991E073
:102F000091838083FE01E75BFF4F80819181019770
:102F1000F1F7FE01E75BFF4F91838083DE01A55B44
:102F2000BF4FFE01E55BFF4F8081918101971196B4
:102F30009C938E93FE01E55BFF4F8081918100970A
:102F4000D1F627C08E01055B1F4FFE01E35BFF4FEB
:102F500060817181828193810E944900DC01CB01F3
:102F6000F80191838083DE01A95BBF4FFE01E55B21
:102F7000FF4F808191818D939C93FE01E95BFF4F10
:102F8000808191810197F1F7FE01E95BFF4F918309
:102F90008083DE01AD59BF4FFE01EC59FF4F8081A8
:102FA00082958F708C93FE01ED59FF4F8081982F91
:102FB000917081E060E0492F0E94AA0BFE01ED595B
:102FC000FF4F80818695982F917081E061E0492FB5
:102FD0000E94AA0BFE01ED59FF4F808186958695D0
:102FE000982F917081E062E0492F0E94AA0BFE01A8
:102FF000ED59FF4F8081869586958695982F917023
:1030000081E064E0492F0E94AA0BFE01ED5BFF4FB7
:1030100080E090E0A0E8BFE380839183A283B38344
:103020008E01015C1F4FFE01ED5BFF4F60817181DE
:103030008281938120E030E04AE755E40E941F023C
:10304000DC01CB01F80180839183A283B383FE016D
:10305000FF96608171818281938120E030E040E8B9
:103060005FE30E94250488232CF481E090E09EAF6A
:103070008DAF46C0FE01FF96608171818281938190
:1030800020E03FEF4FE757E40E94C503181664F5B0
:10309000FE01ED5BFF4F608171818281938120E0B1
:1030A00030E040E251E40E941F02DC01CB01BC0190
:1030B000CD010E944900DC01CB019EAF8DAF0FC056
:1030C00080E991E09CAF8BAF8BAD9CAD0197F1F7A0
:1030D0009CAF8BAF8DAD9EAD01979EAF8DAF8DAD8B
:1030E0009EAD009769F716C0FE01FF966081718161
:1030F000828193810E944900DC01CB019EAF8DAF9C
:103100008DAD9EAD9AAF89AF89AD9AAD0197F1F7BC
:103110009AAF89AF80E062E040E00E94AA0B80E0B5
:1031200090E0A0E8BFE38DAB9EABAFABB8AF6DA9AD
:103130007EA98FA998AD20E030E04AE755E40E94CF
:103140001F02DC01CB0189AB9AABABABBCAB69A96D
:103150007AA98BA99CA920E030E040E85FE30E94B7
:10316000250488232CF481E090E098AB8FA73FC022
:1031700069A97AA98BA99CA920E03FEF4FE757E402
:103180000E94C50318164CF56DA97EA98FA998ADAC
:1031900020E030E040E251E40E941F02DC01CB015C
:1031A000BC01CD010E944900DC01CB0198AB8FA787
:1031B0000FC080E991E09EA78DA78DA59EA50197E0
:1031C000F1F79EA78DA78FA598A9019798AB8FA718
:1031D0008FA598A9009769F714C069A97AA98BA946
:1031E0009CA90E944900DC01CB0198AB8FA78FA559
:1031F00098A99CA78BA78BA59CA50197F1F79CA7E5
:103200008BA780E062E041E00E94AA0B80E090E0A2
:10321000A0E8BFE38FA398A7A9A7BAA76FA178A535
:1032200089A59AA520E030E04AE755E40E941F02F4
:10323000DC01CB018BA39CA3ADA3BEA36BA17CA19E
:103240008DA19EA120E030E040E85FE30E942504CC
:1032500088232CF481E090E09AA389A33FC06BA15E
:103260007CA18DA19EA120E03FEF4FE757E40E9493
:10327000C50318164CF56FA178A589A59AA520E07D
:1032800030E040E251E40E941F02DC01CB01BC01AE
:10329000CD010E944900DC01CB019AA389A30FC094
:1032A00080E991E098A38F8F8F8D98A10197F1F716
:1032B00098A38F8F89A19AA101979AA389A389A125
:1032C0009AA1009769F714C06BA17CA18DA19EA162
:1032D0000E944900DC01CB019AA389A389A19AA18C
:1032E0009E8F8D8F8D8D9E8D0197F1F79E8F8D8F87
:1032F000DE01AD59BF4FFE01EC59FF4F80818F7049
:103300008C93FE01ED59FF4F8081982F917081E0E1
:1033100060E0492F0E94AA0BFE01ED59FF4F80810A
:103320008695982F917081E061E0492F0E94AA0B49
:10333000FE01ED59FF4F808186958695982F9170FB
:1033400081E062E0492F0E94AA0BFE01ED59FF4F78
:103350008081869586958695982F917081E064E0AE
:10336000492F0E94AA0B80E090E0A0E8BFE3898F7C
:103370009A8FAB8FBC8F698D7A8D8B8D9C8D20E061
:1033800030E04AE755E40E941F02DC01CB018D8B3F
:103390009E8BAF8BB88F6D897E898F89988D20E049
:1033A00030E040E85FE30E94250488232CF481E0AC
:1033B00090E09C8B8B8B3FC06D897E898F89988D27
:1033C00020E03FEF4FE757E40E94C50318164CF585
:1033D000698D7A8D8B8D9C8D20E030E040E251E448
:1033E0000E941F02DC01CB01BC01CD010E944900FB
:1033F000DC01CB019C8B8B8B0FC080E991E09A8B19
:10340000898B89899A890197F1F79A8B898B8B89A6
:103410009C8901979C8B8B8B8B899C89009769F782
:1034200014C06D897E898F89988D0E944900DC01C6
:10343000CB019C8B8B8B8B899C89988B8F878F85FD
:1034400098890197F1F7988B8F8780E062E040E0E0
:103450000E94AA0B80E090E0A0E8BFE38B879C87E6
:10346000AD87BE876B857C858D859E8520E030E0AD
:103470004AE755E40E941F02DC01CB018F83988745
:10348000A987BA876F81788589859A8520E030E0A1
:1034900040E85FE30E94250488232CF481E090E05B
:1034A0009E838D833FC06F81788589859A8520E0D2
:1034B0003FEF4FE757E40E94C50318164CF56B85A4
:1034C0007C858D859E8520E030E040E251E40E94BD
:1034D0001F02DC01CB01BC01CD010E944900DC01CF
:1034E000CB019E838D830FC080E991E09C838B8309
:1034F0008B819C810197F1F79C838B838D819E81C9
:1035000001979E838D838D819E81009769F714C0FA
:103510006F81788589859A850E944900DC01CB01FD
:103520009E838D838D819E819A83898389819A81EF
:103530000197F1F79A83898380919F028F5F80932F
:103540009F0280919F02843169F480919E028F5F77
:1035500080939E0210929F0280919E02843111F40A
:1035600010929E02CC59DF4F0FB6F894DEBF0FBE0B
:10357000CDBFCF91DF911F910F910895DF93CF932E
:1035800000D00F92CDB7DEB79B838A8319820EC01D
:103590008981282F30E08A819B81FC01E20FF31F93
:1035A00080810E94481689818F5F89838981282FB5
:1035B00030E08A819B81FC01E20FF31F8081882328
:1035C00039F70F900F900F90CF91DF910895DF930F
:1035D000CF9300D000D00F92CDB7DEB78A836B8334
:1035E0008A81282F30E03D832C838C819D8181301E
:1035F0009105E9F02C813D81223031052CF48C813C
:103600009D81009761F030C02C813D8122303105D1
:10361000C1F08C819D8183309105E9F025C08B81BB
:1036200089838B8180939F0210929E021DC08B81A3
:10363000805C89838B8180939F0281E080939E02CE
:1036400013C08B818C5E89838B8180939F0282E083
:1036500080939E0209C08B818C5A89838B818093D1
:103660009F0283E080939E02898180680E94E81116
:103670000F900F900F900F900F90CF91DF910895C2
:10368000DF93CF9300D000D0CDB7DEB79A83898384
:103690006B834C838B816C810E94E71A89819A81AC
:1036A0000E94BE1A0F900F900F900F90CF91DF9154
:1036B0000895DF93CF93CDB7DEB710929F0210929B
:1036C0009E0281E00E94E811CF91DF910895DF937F
:1036D000CF93CDB7DEB780919F02833189F480917B
:1036E0009E02882369F410929F0281E080939E02DB
:1036F00080919E0290919F02692F0E94E71A46C016
:1037000080919F02833189F480919E02813069F417
:1037100010929F0282E080939E0280919E0290917F
:103720009F02692F0E94E71A31C080919F02833166
:1037300089F480919E02823069F410929F0283E0A6
:1037400080939E0280919E0290919F02692F0E9419
:10375000E71A1CC080919F02833181F480919E0200
:10376000833061F410929F0210929E0280919E021B
:1037700090919F02692F0E94E71A08C084E10E947D
:10378000E81180919F028F5F80939F02CF91DF911C
:103790000895DF93CF93CDB7DEB780919F02882342
:1037A00091F480919E02882371F483E180939F02BB
:1037B00083E080939E0280919E0290919F02692FE8
:1037C0000E94E71A49C080919F02882389F4809162
:1037D0009E02813069F483E180939F0210929E02E1
:1037E00080919E0290919F02692F0E94E71A34C037
:1037F00080919F02882391F480919E02823071F41F
:1038000083E180939F0281E080939E0280919E02DB
:1038100090919F02692F0E94E71A1EC080919F021B
:10382000882391F480919E02833071F483E1809328
:103830009F0282E080939E0280919E0290919F025F
:10384000692F0E94E71A08C080E10E94E811809168
:103850009F02815080939F02CF91DF910895DF9363
:10386000CF93CDB7DEB78CE10E94E811CF91DF9105
:103870000895DF93CF93CDB7DEB788E10E94E811BA
:10388000CF91DF910895DF93CF9300D000D0CDB7D3
:10389000DEB79B838A836C838C81882F90E00896A7
:1038A000880F991F880F991F880F991F0E94E81190
:1038B00019820EC08981282F30E08A819B81FC010A
:1038C000E20FF31F80810E94481689818F5F8983F0
:1038D0008981883078F30F900F900F900F90CF91DF
:1038E000DF910895DF93CF930F92CDB7DEB7898331
:1038F00089810E9448160F90CF91DF910895DF9340
:10390000CF9300D00F92CDB7DEB789836A834B8304
:103910008A816B810E94E71A89810E9448160F9064
:103920000F900F90CF91DF910895DF93CF93CDB794
:10393000DEB765970FB6F894DEBF0FBECDBF6A8BBA
:103940007B8B8C8B9D8B8A899B899E012F5F3F4F40
:10395000B9014AE050E00E944C26CE0101960E9437
:10396000BE1A65960FB6F894DEBF0FBECDBFCF91DD
:10397000DF910895DF93CF9300D000D0CDB7DEB7AD
:103980008A8319828A81282F30E03C832B838B81A4
:103990009C818A30910581F02B813C812A30310550
:1039A0009CF08B819C818B30910549F02B813C816F
:1039B0002C30310531F008C08AE2898307C01982B2
:1039C00005C083E2898302C08A81898389810F903F
:1039D0000F900F900F90CF91DF910895DF93CF93C9
:1039E00000D0CDB7DEB71A820FC08A81882F90E051
:1039F000FC01EF58FD4F908182E0692F41E00E9469
:103A000021098A818F5F8A838A81843070F31982C9
:103A10001BC08981882F90E0FC01E259FD4F908105
:103A200083E0692F42E00E9421098981882F90E07C
:103A3000FC01E259FD4F908183E0692F41E00E9433
:103A4000AA0B89818F5F89838981833010F30F905E
:103A50000F90CF91DF910895DF93CF9300D000D0E6
:103A600000D0CDB7DEB71D820FC08D81882F90E0CA
:103A7000FC01E259FD4F908183E0692F41E00E94F3
:103A8000AA0B8D818F5F8D838D81833070F38FEFD3
:103A90009FEF9A8389831C8245C08C81882F90E098
:103AA000FC01E259FD4F908183E0692F40E00E94C4
:103AB000AA0B1B8225C08B81882F90E0FC01EF5858
:103AC000FD4F908182E0692F0E940F0B8823A9F49B
:103AD0008B81282F30E0C901880F991F820F931F17
:103AE000982F8C81890F8F5F0E94BA1C882F90E0DD
:103AF0009A83898389818E831BC08B818F5F8B839F
:103B00008B818430C0F28C81882F90E0FC01E259D7
:103B1000FD4F908183E0692F41E00E94AA0B8C81C8
:103B20008F5F8C838C81833008F4B7CF89818E833B
:103B30008E8126960FB6F894DEBF0FBECDBFCF9113
:103B4000DF910895DF93CF9300D0CDB7DEB789839F
:103B50006A8389816A8142E00E9421090F900F9057
:103B6000CF91DF910895DF93CF9300D00F92CDB71F
:103B7000DEB789836A834B838B81882331F4898103
:103B80006A8140E00E94AA0B08C08B81813029F431
:103B900089816A8141E00E94AA0B0F900F900F90DB
:103BA000CF91DF910895DF93CF9300D00F92CDB7DF
:103BB000DEB789836A834B838B81882331F48981C3
:103BC0006A8141E00E94AA0B08C08B81813029F4F0
:103BD00089816A8140E00E94AA0B0F900F900F909C
:103BE000CF91DF910895DF93CF9300D0CDB7DEB7AB
:103BF00089836A8389816A810E94A40C0F900F9047
:103C0000CF91DF910895DF93CF9300D00F92CDB77E
:103C1000DEB789836A834B8389816A814B810E94E5
:103C200021090F900F900F90CF91DF910895DF93AE
:103C3000CF9300D0CDB7DEB789836A8389816A814B
:103C40000E940F0B0F900F90CF91DF910895DF939B
:103C5000CF93CDB7DEB70E94471E0E945C1E0E9424
:103C6000B7210E9449250E94E41F0E948B200E94D8
:103C7000F323CF91DF910895DF93CF930F92CDB7C8
:103C8000DEB78091A1020F90CF91DF910895DF936D
:103C9000CF93CDB7DEB78091A002882351F48091F5
:103CA000A102813031F41092A1028091A1020E9400
:103CB000761FCF91DF910895DF93CF93CDB7DEB715
:103CC0008091A0028230F1F48091A102813031F420
:103CD0001092A1028091A1020E94761F8091AC02F5
:103CE000813031F41092AC028091AC020E945120DC
:103CF0008091A202813031F41092A2028091A2023E
:103D00000E94AB1FCF91DF910895DF93CF93CDB782
:103D1000DEB778940E94B71186E392E060E00E94DB
:103D2000431C8EE392E061E00E94431C86E492E033
:103D300062E00E94431C8EE492E063E00E94431C18
:103D400086E592E064E00E94431C8EE592E065E027
:103D50000E94431C86E692E066E00E94431C82E0DB
:103D600066E00E94A21D82E060E00E949B0F83E457
:103D700093E20E94550F81E067E00E94561180E0B7
:103D800066E00E94561182E067E042E00E9421094D
:103D900081E067E040E00E94671180E066E040E07B
:103DA0000E9467110E943B088CEA93E20E94F6078A
:103DB0000E945C078AEB93E20E9417070E94BF07EC
:103DC0000E94381080E00E943A110E94EE1C0E946E
:103DD000EC1ECF91DF910895DF93CF93CDB7DEB77F
:103DE000F89480E060E00E94E71A80E690E00E948C
:103DF000BE1A0E946B2080E06EE00E94E71A8BE6FC
:103E000090E00E94BE1A81E06BE00E94E71A82E710
:103E100090E00E94BE1A82E060E00E94E71A89E703
:103E200090E00E94BE1A83E00E9448168DE790E061
:103E30000E94BE1A83E00E94481682E890E00E9429
:103E4000BE1A83E00E94481687E890E00E94BE1ADE
:103E500083E00E9448160E94B6207894CF91DF91AB
:103E60000895DF93CF93CDB7DEB729970FB6F894B7
:103E7000DEBF0FBECDBF8C83F894CE0101969E832A
:103E80008D83EFE7F2E0F887EF83F3E0F987EF81C6
:103E9000F88500808F819885019698878F83ED81C2
:103EA000FE8100828D819E8101969E838D839985FE
:103EB00091509987E985EE2351F780E063E10E94F4
:103EC000E71A8C81282F30E0CE010196FC01E20F29
:103ED000F31F80810E944816789429960FB6F894B3
:103EE000DEBF0FBECDBFCF91DF910895DF93CF939B
:103EF0000F92CDB7DEB78983F89482E063E00E9429
:103F0000E71A8091A102813021F482E00E944816D4
:103F100003C083E00E94481678940F90CF91DF9100
:103F20000895DF93CF930F92CDB7DEB78983F894CE
:103F300082E068E00E94E71A8981813021F482E002
:103F40000E94481603C083E00E94481678940F90A0
:103F5000CF91DF910895DF93CF930F92CDB7DEB766
:103F60008983F89482E06DE00E94E71A89818130AC
:103F700021F482E00E94481603C083E00E944816A4
:103F800078940F90CF91DF910895DF93CF93CDB7C1
:103F9000DEB7809175028230A1F4F89480E067E08A
:103FA0000E94E71A80917702882F90E0A0E0B0E0AD
:103FB000BC01CD010E94951C8CE890E00E94BE1AC5
:103FC0007894CF91DF910895DF93CF93CDB7DEB78B
:103FD00080917702282F30E08091A8029091A90269
:103FE000281739071CF41092AA020EC0809177029C
:103FF000282F30E08091A8029091A9022817390754
:104000001CF081E08093AA0280917502823019F43D
:104010000E9428201AC08091A202813051F4809120
:10402000AA02813031F482E067E040E00E94AA0BEE
:104030000CC08091A202813041F48091AA028823B1
:1040400021F482E067E00E94A40CCF91DF910895F3
:10405000DF93CF93CDB7DEB7F89481E069E00E949B
:10406000E71A8091A2028130A9F48091AA028130DE
:1040700049F484E00E94481682E067E040E00E9434
:10408000AA0B0BC086E00E94481682E067E00E94FF
:10409000A40C03C084E40E9448167894CF91DF9169
:1040A0000895DF93CF930F92CDB7DEB78983F8944D
:1040B00082E062E10E94E71A8981813021F482E086
:1040C0000E94481603C083E00E94481678940F901F
:1040D000CF91DF910895DF93CF93CDB7DEB7F894FA
:1040E00080E06AE00E94E71A8091AC02813061F4BE
:1040F00080917802813021F484E00E94481607C044
:1041000086E00E94481603C084E40E944816789412
:10411000CF91DF910895DF93CF93CDB7DEB7809134
:104120007502813011F40E946B20CF91DF910895C8
:10413000DF93CF93CDB7DEB783E060E00E94E71A4C
:1041400081E990E00E94BE1ACF91DF910895DF933C
:10415000CF93CDB7DEB783E060E00E94E71A8DE928
:1041600090E00E94BE1ACF91DF910895DF93CF9324
:10417000CDB7DEB765970FB6F894DEBF0FBECDBFE3
:10418000CE0101969A8B898BE2E8F2E0FC8BEB8BF7
:10419000F0E1FD8BEB89FC8900808B899C8901967D
:1041A0009C8B8B8BE989FA89008289899A8901968F
:1041B0009A8B898B9D8991509D8BED89EE2351F7C8
:1041C000F89483E068E00E94E71A809175029927CD
:1041D00087FD90959C01220F331F220F331FCE01C4
:1041E0000196FC01E20FF31F80810E944816809126
:1041F0007502992787FD90959C01220F331F220F8E
:10420000331FCE010196820F931FFC0131968081EE
:104210000E94481680917502992787FD9095880F16
:10422000991F01969C01220F331FCE010196FC01BC
:10423000E20FF31F80810E94481680917502992732
:1042400087FD90959C01220F331F220F331FCE0153
:104250000196820F931FFC01339680810E944816BD
:10426000789465960FB6F894DEBF0FBECDBFCF91A0
:10427000DF910895DF93CF93CDB7DEB7F89480E058
:1042800060E00E94E71A82EB90E00E94BE1A81E093
:1042900060E00E94E71A81EC90E00E94BE1A8091D3
:1042A0007502813059F480E060E00E94E71A80E6F0
:1042B00090E00E94BE1A0E946B2055C0809175024A
:1042C0008823F1F48091A302813089F480E060E0DA
:1042D0000E94E71A8DEC90E00E94BE1A81E060E037
:1042E0000E94E71A84ED90E00E94BE1A3CC080E074
:1042F00060E00E94E71A8EED90E00E94BE1A33C083
:1043000080917502823009F580E060E00E94E71A32
:1043100087EE90E00E94BE1A80917702882F90E08D
:10432000A0E0B0E0BC01CD010E94951C8CE890E0BB
:104330000E94BE1A81E060E00E94E71A84ED90E0DE
:104340000E94BE1A0E9428200EC080917502833000
:1043500051F480E060E00E94E71A8FEE90E00E9446
:10436000BE1A0E94F3237894CF91DF910895DF93D2
:10437000CF930F92CDB7DEB70E942C1D8983898120
:10438000823011F5809176028823F1F41092AD020B
:1043900081E0809378028091B8028823B9F481E0AB
:1043A0008093B8020E949B238091A0028F5F80932C
:1043B000A0028091A002833011F41092A00280919B
:1043C000A0020E94311F02C01092B8028091A00288
:1043D000813009F0A9C08981882309F51092AD02C6
:1043E00081E0809378028091B7028823D1F481E044
:1043F0008093B7020E949B238091A102882341F4FD
:1044000081E08093A1028091A1020E94761F09C0E1
:104410001092A1028091A1020E94761F02C0109208
:10442000B7028981883031F51092AD0281E0809326
:1044300078028091B4028823F9F481E08093B40279
:104440000E949B238091A202882341F481E0809303
:10445000A2028091A2020E94AB1F0EC01092A20283
:104460008091A2020E94AB1F82E067E040E00E94C0
:10447000AA0B02C01092B40289818A3239F51092D7
:10448000AD0281E0809378028091B102882301F52A
:1044900081E08093B1020E949B238091A302882334
:1044A00041F481E08093A3028091A3020E94911FB6
:1044B00006C01092A3028091A3020E94911F8091D6
:1044C0007502882329F40E943A2102C01092B10299
:1044D0008981833239F58091B002882329F581E002
:1044E0008093B0020E949B238091AC02882399F4B0
:1044F00081E08093AC028091AC020E9451200E9426
:10450000BF078BE791EE0E949F071092AD0281E0FA
:104510008093780209C01092AC028091AC020E9494
:10452000512002C01092B00289818330E1F41092D0
:10453000AD0281E0809378028091B6028823A9F4CD
:1045400081E08093B602809175028F5F809375023F
:1045500080917502843011F4109275020E943A2104
:104560000E94B62002C01092B60289818130E9F41F
:104570001092AD0281E0809378028091B502882389
:10458000B1F481E08093B5028091750281508093EF
:104590007502809175028F3F19F483E08093750254
:1045A0000E943A210E94B62002C01092B502898171
:1045B000893061F51092AD0281E08093780280919C
:1045C0007D02813061F480917702883728F48091F0
:1045D00077028B5F8093770210927D0214C08091E6
:1045E000AF028F5F8093AF028091AF02833059F4A6
:1045F0001092AF0280917702883728F48091770279
:104600008B5F809377020E94C51F05C081E0809375
:104610007D021092AF028981873061F51092AD0260
:1046200081E08093780280917C02813061F48091F6
:104630007702853128F08091770285508093770248
:1046400010927C0214C08091AE028F5F8093AE0204
:104650008091AE02833059F41092AE0280917702BD
:10466000853128F0809177028550809377020E94EF
:10467000C51F05C081E080937C021092AE020F90AE
:10468000CF91DF910895DF93CF93CDB7DEB78091BF
:104690007E028130A1F483E060E00E949B0F0E94C3
:1046A0009B2310927E0280917E028093760281E0AD
:1046B00067E041E00E9467110E94762314C0809158
:1046C0007E02882381F482E060E00E949B0F81E0FB
:1046D00080937E0280917E028093760281E067E083
:1046E00040E00E946711CF91DF910895DF93CF934F
:1046F000CDB7DEB78091A0028130D1F4789480915B
:10470000A102813031F41092A1028091A1020E9495
:10471000761F8091A302813031F41092A302809120
:10472000A3020E94911F1092AD0281E08093780253
:10473000CF91DF910895DF93CF93CDB7DEB780E0BF
:104740000E94680882E066E041E00E94B31D0E947A
:104750008408CF91DF910895DF93CF93CDB7DEB773
:1047600082E066E040E00E94B31D0E947608CF918F
:10477000DF910895DF93CF93CDB7DEB78091AD027F
:104780008F5F8093AD028BE791EE0E949F0780912F
:10479000AC02882311F41092AD028091AD028530F5
:1047A00021F41092AD0210927802809179028F5F0D
:1047B00080937902809179028C3339F410927902D6
:1047C00080917A028F5F80937A0280917A028C3393
:1047D00039F410927A0280917B028F5F80937B0282
:1047E000CF91DF910895DF93CF93CDB7DEB780915E
:1047F0007502833061F581E060E00E94E71A8BEF7B
:1048000090E00E94BE1A80917B02882F90E0A0E089
:10481000B0E0BC01CD010E94951C8AE30E944816BD
:1048200080917A02882F90E0A0E0B0E0BC01CD0139
:104830000E94951C8AE30E94481680917902882F75
:1048400090E0A0E0B0E0BC01CD010E94951CCF91AA
:10485000DF910895DF93CF9300D00F92CDB7DEB7ED
:10486000F89480E00E94BD109A83898389819A819F
:104870009C01220F331FC901880F991F880F991FB0
:10488000820F931FCC01A0E0B0E0BC01CD010E94DB
:10489000A904DC01CB01BC01CD0120E030EC4FE7E5
:1048A00054E40E941903DC01CB018093A40290938D
:1048B000A502A093A602B093A7028091A4029091B2
:1048C000A502A091A602B091A702BC01CD0120E0F3
:1048D00030E040E251E40E941F02DC01CB01BC0148
:1048E000CD010E944900DC01CB019AE0692F0E94B2
:1048F000E725892F8B8383E06BE00E94E71A809184
:10490000A4029091A502A091A602B091A702BC01B9
:10491000CD010E944900DC01CB01882F90E0A0E08E
:10492000B0E0BC01CD010E94951C8EE20E944816A9
:104930008B81882F90E0A0E0B0E0BC01CD010E9407
:10494000951C8EEF90E00E94BE1A78940F900F9005
:104950000F90CF91DF910895DF93CF9300D000D0D7
:10496000CDB7DEB78091A102813009F08BC0809174
:10497000A002813009F086C0F8948091A402909141
:10498000A502A091A602B091A702BC01CD010E9490
:104990004900DC01CB01883058F080E066E040E05F
:1049A0000E94671181E067E040E00E94671169C0E2
:1049B0008091A4029091A502A091A602B091A702B5
:1049C000BC01CD010E944900DC01CB01863058F0CA
:1049D00080E066E041E00E94671181E067E040E02E
:1049E0000E9467114EC08091A4029091A502A091EF
:1049F000A602B091A702BC01CD010E944900DC01D2
:104A0000CB01843058F080E066E041E00E946711FD
:104A100081E067E041E00E94671133C08091A40209
:104A20009091A502A091A602B091A702BC01CD0170
:104A30000E944900DC01CB01823050F080E066E04A
:104A400041E00E94671181E067E00E94A71119C050
:104A50008091A4029091A502A091A602B091A70214
:104A600081E067E040E00E94671180E066E040E09E
:104A70000E9467110E94591B81E091E00E94BE1ABA
:104A8000FFCF78940F900F900F900F90CF91DF9100
:104A90000895DF93CF9300D0CDB7DEB780E00E94BA
:104AA000BD109A83898389819A81CC01A0E0B0E00E
:104AB00028EC30E040E050E0BC01CD010E94C82568
:104AC000DC01CB012FEF33E040E050E0BC01CD0131
:104AD0000E94F325DA01C9018093BC028091B902DA
:104AE0009091BA029C0189819A81A901481B590BB6
:104AF000CA019093BE028093BD028091BD02909145
:104B0000BE028431910544F48091BD029091BE02B1
:104B10005FEF8D3E950794F48091BC02882F90E062
:104B20009093A9028093A8028091A102813031F470
:104B30001092A1028091A1020E94761FF89481E058
:104B40006EE00E94E71A8091A8029091A902882F36
:104B500090E0A0E0B0E0BC01CD010E94951C80E196
:104B600091E00E94BE1A789489819A819093BA024A
:104B70008093B9020F900F90CF91DF910895DF934A
:104B8000CF93CDB7DEB70E94851E0E94271EFDCFB2
:104B9000629FD001739FF001829FE00DF11D649F21
:104BA000E00DF11D929FF00D839FF00D749FF00DAD
:104BB000659FF00D9927729FB00DE11DF91F639F4E
:104BC000B00DE11DF91FBD01CF0111240895991BFE
:104BD00079E004C0991F961708F0961B881F7A95F4
:104BE000C9F780950895A1E21A2EAA1BBB1BFD01EF
:104BF0000DC0AA1FBB1FEE1FFF1FA217B307E407BC
:104C0000F50720F0A21BB30BE40BF50B661F771F13
:104C1000881F991F1A9469F76095709580959095F3
:104C20009B01AC01BD01CF0108952F923F924F929D
:104C30005F926F927F928F929F92AF92BF92CF922C
:104C4000DF92EF92FF920F931F93CF93DF93CDB735
:104C5000DEB7CA1BDB0B0FB6F894DEBF0FBECDBFAD
:104C600009942A88398848885F846E847D848C847E
:104C70009B84AA84B984C884DF80EE80FD800C8187
:104C80001B81AA81B981CE0FD11D0FB6F894DEBF6A
:104C90000FBECDBFED010895FB019F01E8944230A6
:104CA000C4F04532B4F44A3029F497FB1EF49095D1
:104CB00081959F4F642F77270E947D26805D8A33E0
:104CC0000CF0895D8193CB010097A1F716F45DE2AA
:104CD00051931082C9010C946D26DC01FC01672FF1
:104CE00071917723E1F7329704C07C916D937083C3
:104CF0006291AE17BF07C8F30895AA1BBB1B51E111
:104D000007C0AA1FBB1FA617B70710F0A61BB70B3B
:104D1000881F991F5A95A9F780959095BC01CD01E0
:064D20000895F894FFCF96
:104D2600444D205374617475733A004742203A200B
:104D36004E0053503A304B4D0043433A0020424117
:104D46003A0020534C3A0020444D3A004B4D48203F
:104D56000044697374616E6365203A200020202048
:104D6600202020202020202020202020202020203D
:104D7600200020202020202020202020202020204D
:104D860000202020202020202020202000444953DD
:104D9600203A2000537461747573203A20004469E8
:104DA6007361626C656400534C494D203A2000449F
:104DB6003D31382F332F3230323400543D004D20F0
:104DC60000437275736865642063617220293A0036
:104DD6004B4D200000000000000000000001020210
:104DE600030303030404040404040404050505057D
:104DF6000505050505050505050505050606060659
:104E0600060606060606060606060606060606063C
:104E16000606060606060606060606060707070728
:104E2600070707070707070707070707070707070C
:104E360007070707070707070707070707070707FC
:104E460007070707070707070707070707070707EC
:104E560007070707070707070707070708080808D8
:104E660008080808080808080808080808080808BC
:104E760008080808080808080808080808080808AC
:104E8600080808080808080808080808080808089C
:104E9600080808080808080808080808080808088C
:104EA600080808080808080808080808080808087C
:104EB600080808080808080808080808080808086C
:104EC600080808080808080808080808080808085C
:104ED6000808080808080808080808080505030857
:104EE600FF000100060000000A1F1F0E04000E113D
:104EF60011111F1F1F0000000E1115110E000000DA
:104F06000E1F1F1F0E00000103161C0800000011D3
:104F16000A040A11000000081D1A1D0800000E15DB
:104F26001B0E0E000000040E0E0E0E1F04000706D8
:104F36000505040302010128010C1E020101014EB0
:104F460044520100000000010000000001000000C2
:024F5600000158
:00000001FF
