:100000000C942A000C94DB110C940E120C944112E7
:100010000C9447000C9447000C9450090C94470032
:100020000C9447000C9447000C9447000C945E0A13
:100030000C9447000C9475070C9447000C944700EF
:100040000C9447000C9447000C9447000C94470014
:100050000C94470011241FBECFE5D4E0DEBFCDBF16
:1000600012E0A0E6B0E0E2E8FBE702C005900D92E6
:10007000AA3EB107D9F713E0AAEEB2E001C01D9283
:10008000AA33B107E1F70E94E63C0C94BF3D0C9403
:100090000000EF92FF920F931F937B018C0120E0F1
:1000A00030E040E05FE40E94F50388238CF0C80153
:1000B000B70120E030E040E05FE40E94C1010E940F
:1000C000B3049B01AC01205030404040504806C072
:1000D000C801B7010E94B3049B01AC01B901CA0178
:1000E0001F910F91FF90EF900895A0E0B0E0EBE733
:1000F000F0E00C94573DDC012B01FA019C91923009
:1001000008F439C1EB018881823008F433C194309E
:1001100069F4843009F02FC111969C91119789815F
:10012000981709F428C1ACE5B1E025C1843009F481
:1001300021C18230A9F4923009F01DC19A01AD01AC
:1001400088E0EA010990AE01E90109929E0181501F
:10015000C1F7E201898111969C918923818308C1AD
:10016000923009F407C112962D903C901397EB0141
:100170008A819B811496AD90BD90CD90DC901797AD
:10018000EC80FD800E811F819101281B390BB90184
:1001900037FF04C066277727621B730B6032710537
:1001A0000CF061C0121613066CF537014801062EDB
:1001B00004C096948794779467940A94D2F721E0C8
:1001C00030E040E050E004C0220F331F441F551FB1
:1001D0006A95D2F721503040404050402E213F21B7
:1001E00040235123211531054105510521F021E01E
:1001F00030E040E050E079018A01E628F72808293C
:1002000019293CC0232BD1F1260E371E350146019A
:10021000062E04C096948794779467940A94D2F734
:1002200021E030E040E050E004C0220F331F441FC3
:10023000551F6A95D2F721503040404050402A2146
:100240003B214C215D21211531054105510521F04E
:1002500021E030E040E050E059016A01A628B728CB
:10026000C828D9280BC0821593052CF01C01AA249C
:10027000BB24650103C0EE24FF24870111969C91E5
:10028000D20111968C91981709F445C0992339F041
:10029000A80197012A193B094C095D0906C0A6016E
:1002A00095012E193F09400B510B57FD08C01182D3
:1002B0003382228224833583468357831DC081E0A5
:1002C00081833382228288279927DC01821B930B4A
:1002D000A40BB50B84839583A683B7830DC0220F2F
:1002E000331F441F551F24833583468357838281E0
:1002F000938101979383828324813581468157813D
:10030000DA01C9010197A109B1098F5F9F4FAF4F72
:10031000BF4328F30BC0918333822282EA0CFB1C7B
:100320000C1D1D1DE482F5820683178383E0808304
:10033000248135814681578157FF1AC0C901AA27F8
:1003400097FDA095BA2F81709070A070B0705695EF
:10035000479537952795822B932BA42BB52B848318
:100360009583A683B7838281938101969383828349
:10037000DF0101C0D201CD01CDB7DEB7E2E10C94BF
:10038000733DA0E2B0E0E7ECF1E00C94633D6983DB
:100390007A838B839C832D833E834F835887E9E048
:1003A000EE2EF12CEC0EFD1ECE010196B7010E943F
:1003B000A4068E010F5E1F4FCE010596B8010E9464
:1003C000A4068A8991E089278A8BC701B801AE010A
:1003D000475E5F4F0E9475000E94CF05A096E6E041
:1003E0000C947F3DA0E2B0E0E8EFF1E00C94633DB7
:1003F00069837A838B839C832D833E834F835887C5
:10040000F9E0EF2EF12CEC0EFD1ECE010196B701A6
:100410000E94A4068E010F5E1F4FCE010596B80103
:100420000E94A406C701B801AE01475E5F4F0E945B
:1004300075000E94CF05A096E6E00C947F3DA0E2F7
:10044000B0E0E5E2F2E00C94573D69837A838B8358
:100450009C832D833E834F835887CE010196BE0136
:10046000675F7F4F0E94A406CE010596BE016F5EB6
:100470007F4F0E94A4069985923088F08989823046
:10048000C8F0943019F4823051F404C0843029F457
:10049000923081F48CE591E0C6C0923049F420E0BE
:1004A0009A858A89981321E02A87CE010996BBC0D4
:1004B000823049F420E09A858A89981321E02A8BBA
:1004C000CE014196B0C02D843E844F8458886D88FB
:1004D0007E888F88988CEE24FF248701AA24BB2471
:1004E000650140E050E060E070E0E0E0F0E0C10174
:1004F00081709070892BE9F0E60CF71C081D191D1E
:100500009A01AB012A0D3B1D4C1D5D1D80E090E062
:10051000A0E0B0E0E614F7040805190520F481E036
:1005200090E0A0E0B0E0BA01A901480F591F6A1F8E
:100530007B1FAA0CBB1CCC1CDD1C97FE08C081E0F5
:1005400090E0A0E0B0E0A82AB92ACA2ADB2A3196B6
:10055000E032F10549F0660C771C881C991C569412
:10056000479437942794C3CFFA85EA892B893C892D
:100570008B859C85280F391F2E5F3F4F17C0CA01FE
:1005800081709070892B61F016950795F794E79428
:1005900080E090E0A0E0B0E8E82AF92A0A2B1B2BC3
:1005A00076956795579547952F5F3F4F77FDE7CF36
:1005B0000CC0440F551F661F771F17FD4160EE0CDE
:1005C000FF1C001F111F21503040403090E05907A0
:1005D00090E0690790E4790760F32B8F3C8FDB0193
:1005E000CA018F779070A070B07080349105A1051A
:1005F000B10561F447FD0AC0E114F10401051105DC
:1006000029F0405C5F4F6F4F7F4F40781A8EFE1786
:1006100011F081E08A8F4D8F5E8F6F8F78A383E01A
:10062000898FCE0149960E94CF05A096E2E10C94F5
:10063000733DA8E1B0E0EFE1F3E00C945F3D698326
:100640007A838B839C832D833E834F835887B9E0C5
:10065000EB2EF12CEC0EFD1ECE010196B7010E948F
:10066000A4068E010F5E1F4FCE010596B8010E94B1
:10067000A4062985223008F47EC03989323010F46E
:10068000B8017CC08A859A8989278A87243011F02D
:10069000223031F4231709F06EC06CE571E06EC0B2
:1006A000343039F41D861E861F86188A1C861B86E8
:1006B00004C0323021F484E08987B7015FC02B8504
:1006C0003C858B899C89281B390B3C872B87ED84C3
:1006D000FE840F851889AD88BE88CF88D88CEA142F
:1006E000FB040C051D0540F4EE0CFF1C001F111F40
:1006F000215030403C872B8720E030E040E050E044
:1007000080E090E0A0E0B0E460E070E0EA14FB0478
:100710000C051D0540F0282B392B4A2B5B2BEA18C2
:10072000FB080C091D09B695A79597958795EE0CC2
:10073000FF1C001F111F6F5F7F4F6F31710531F775
:10074000DA01C9018F779070A070B0708034910584
:10075000A105B10561F427FD0AC0E114F10401050A
:10076000110529F0205C3F4F4F4F5F4F20782D87B8
:100770003E874F87588BBE01675F7F4FCB010E943A
:10078000CF056896EAE00C947B3DA8E1B0E0EBEC85
:10079000F3E00C94633D69837A838B839C832D8380
:1007A0003E834F83588789E0E82EF12CEC0EFD1E26
:1007B000CE010196B7010E94A4068E010F5E1F4F65
:1007C000CE010596B8010E94A4068985823040F0CA
:1007D0008989823028F0C701B8010E941C0701C036
:1007E0008FEF6896E6E00C947F3DA8E1B0E0EBEF78
:1007F000F3E00C94633D69837A838B839C832D8320
:100800003E834F83588789E0E82EF12CEC0EFD1EC5
:10081000CE010196B7010E94A4068E010F5E1F4F04
:10082000CE010596B8010E94A4068985823040F069
:100830008989823028F0C701B8010E941C0701C0D5
:100840008FEF6896E6E00C947F3DA8E1B0E0EBE224
:10085000F4E00C94633D69837A838B839C832D83BE
:100860003E834F83588789E0E82EF12CEC0EFD1E65
:10087000CE010196B7010E94A4068E010F5E1F4FA4
:10088000CE010596B8010E94A4068985823040F009
:100890008989823028F0C701B8010E941C0701C075
:1008A00081E06896E6E00C947F3DA8E0B0E0EBE5DF
:1008B000F4E00C94603D9B01AC0183E08983DA0194
:1008C000C9018827B7FD83959927AA27BB27B82E8A
:1008D000211531054105510519F482E089833AC09B
:1008E0008823A9F0203080E0380780E0480780E8BE
:1008F000580729F460E070E080E09FEC30C0EE24FF
:10090000FF248701E21AF30A040B150B02C07901D8
:100910008A018EE1C82ED12CDC82CB82ED82FE8250
:100920000F831887C801B7010E9480050197181628
:10093000190684F4082E04C0EE0CFF1C001F111FC2
:100940000A94D2F7ED82FE820F831887C81AD90A5B
:10095000DC82CB82BA82CE0101960E94CF05289616
:10096000E9E00C947C3DACE0B0E0E9EBF4E00C9401
:10097000673D69837A838B839C83CE010196BE0198
:100980006B5F7F4F0E94A4068D81823061F18230BF
:1009900050F1843021F48E81882351F12EC02F81B3
:1009A000388537FD20C06E812F3131051CF066235C
:1009B000F9F023C08EE190E0821B930B29853A85E4
:1009C0004B855C8504C056954795379527958A9544
:1009D000D2F76623B1F050954095309521953F4F61
:1009E0004F4F5F4F0EC020E030E040E050E009C0C4
:1009F0002FEF3FEF4FEF5FE704C020E030E040E033
:100A000050E8B901CA012C96E2E00C94833DA8E0BD
:100A1000B0E0EDE0F5E00C945F3D7B018C016115E9
:100A200071058105910519F482E0898360C083E036
:100A300089838EE1C82ED12CDC82CB82ED82FE82AE
:100A40000F831887C801B7010E948005FC01319708
:100A5000F7FF3BC0222733272E1B3F0B57016801AE
:100A6000022E04C0D694C794B794A7940A94D2F7E0
:100A700040E050E060E070E081E090E0A0E0B0E0B5
:100A800004C0880F991FAA1FBB1F2A95D2F7019790
:100A9000A109B1098E219F21A023B1230097A105AF
:100AA000B10521F041E050E060E070E04A295B29A7
:100AB0006C297D294D835E836F8378878EE190E07A
:100AC0008E1B9F0B9C838B8312C0309781F00E2E60
:100AD00004C0EE0CFF1C001F111F0A94D2F7ED8218
:100AE000FE820F831887CE1ADF0ADC82CB821A823D
:100AF000CE0101960E94CF052896EAE00C947B3D3A
:100B0000EF92FF920F931F937B018C0180E0E81618
:100B100080E0F80681E0080780E0180788F48FEF8E
:100B2000E816F1040105110531F028F088E090E0A5
:100B3000A0E0B0E017C080E090E0A0E0B0E012C01C
:100B400080E0E81680E0F80680E0080781E01807FA
:100B500028F088E190E0A0E0B0E004C080E190E0FF
:100B6000A0E0B0E020E230E040E050E0281B390B8C
:100B70004A0B5B0B04C016950795F794E7948A958A
:100B8000D2F7F701EC59FE4F8081281B310941094A
:100B90005109C9011F910F91FF90EF900895DF92C5
:100BA000EF92FF920F931F93FC01E480F580068182
:100BB0001781D1808081823048F480E090E0A0E10C
:100BC000B0E0E82AF92A0A2B1B2BA5C0843009F4CF
:100BD0009FC0823021F4EE24FF24870105C0E11478
:100BE000F1040105110519F4E0E0F0E096C062811E
:100BF00073819FEF623879070CF05BC022E83FEF0A
:100C0000261B370B2A3131052CF020E030E040E084
:100C100050E02AC0B801A701022E04C0769567955E
:100C2000579547950A94D2F781E090E0A0E0B0E0B4
:100C300004C0880F991FAA1FBB1F2A95D2F70197DE
:100C4000A109B1098E219F21A023B1230097A105FD
:100C5000B10521F081E090E0A0E0B0E09A01AB01A5
:100C6000282B392B4A2B5B2BDA01C9018F77907027
:100C7000A070B07080349105A105B10539F427FF4B
:100C800009C0205C3F4F4F4F5F4F04C0215C3F4F76
:100C90004F4F5F4FE0E0F0E02030A0E03A07A0E0E7
:100CA0004A07A0E45A0710F0E1E0F0E079018A0178
:100CB00027C06038710564F5FB01E158FF4FD8018A
:100CC000C7018F779070A070B07080349105A10536
:100CD000B10539F4E7FE0DC080E490E0A0E0B0E09B
:100CE00004C08FE390E0A0E0B0E0E80EF91E0A1F18
:100CF0001B1F17FF05C016950795F794E7943196CB
:100D000087E016950795F794E7948A95D1F705C083
:100D1000EE24FF248701EFEFF0E06E2F6795662742
:100D20006795902F9F77D794DD24D7948E2F869543
:100D3000492F462B582F5D29B701CA011F910F91EA
:100D4000FF90EF90DF900895FC01DB01408151811D
:100D50002281622F6F7770E0221F2227221F93814A
:100D6000892F880F822B282F30E0991F9927991FF0
:100D700011969C93119721153105A9F5411551053F
:100D80006105710511F482E037C082E89FEF139688
:100D90009C938E9312979A01AB0167E0220F331F49
:100DA000441F551F6A95D1F783E08C930DC0220F25
:100DB000331F441F551F12968D919C9113970197D5
:100DC00013969C938E931297203080E0380780E032
:100DD000480780E4580758F314962D933D934D939C
:100DE0005C93179708952F3F310579F4411551050C
:100DF0006105710519F484E08C93089564FF03C0C4
:100E000081E08C9312C01C9210C02F573040139673
:100E10003C932E93129783E08C9387E0440F551FE9
:100E2000661F771F8A95D1F7706414964D935D9372
:100E30006D937C93179708951F93DC01FB019C91A0
:100E4000923008F447C08081823008F443C0943067
:100E500051F411961C91843099F58181682F70E0CE
:100E6000611B71093FC0843021F0923031F482302F
:100E7000B9F18181882389F12DC011961C911197B8
:100E80008230F1F081811817D9F412962D913C919E
:100E90001397828193818217930794F0281739075B
:100EA000BCF014968D919D910D90BC91A02D248144
:100EB000358146815781281739074A075B0718F49F
:100EC000112341F00AC082179307A407B50740F425
:100ED000112319F061E070E005C06FEF7FEF02C0F1
:100EE00060E070E0CB011F9108951F920F920FB642
:100EF0000F9211242F933F934F935F936F937F93A0
:100F00008F939F93AF93BF93EF93FF93DF93CF9311
:100F1000CDB7DEB78091EA029091EB02009729F0FD
:100F2000E091EA02F091EB020995CF91DF91FF91F8
:100F3000EF91BF91AF919F918F917F916F915F9151
:100F40004F913F912F910F900FBE0F901F901895CA
:100F5000DF93CF93CDB7DEB780916702882341F44A
:100F6000AAE2B0E0EAE2F0E0808188608C931EC0E3
:100F700080916702813041F4AAE2B0E0EAE2F0E059
:100F8000808180618C9312C080916702823071F4FD
:100F9000AAE2B0E0EAE2F0E0808180618C93AAE20C
:100FA000B0E0EAE2F0E0808188608C93E0E4F0E079
:100FB00080916502882F90E082959295907F982786
:100FC000807F9827282F206880916602882F90E0E4
:100FD000880F991F880F991F880F991F282B8091C0
:100FE0006402882F90E0880F991F822B8083AAE2E9
:100FF000B0E0EAE2F0E08081282F2B7F809164024C
:10100000882F90E084709070880F991F880F991F27
:10101000822B8C93E0E4F0E0809168029091690269
:10102000892F99278083E9E2F0E08091680290910E
:1010300069028083CF91DF910895DF93CF9300D031
:10104000CDB7DEB79A838983EBE2F0E08081882F09
:1010500090E0807290700097B9F389819A818070D6
:101060009170009741F0AAE2B0E0EAE2F0E08081FE
:1010700081608C9307C0AAE2B0E0EAE2F0E08081F0
:101080008E7F8C93ECE2F0E0898180830F900F904B
:10109000CF91DF910895DF93CF9300D0CDB7DEB726
:1010A0001A821982EBE2F0E080818823DCF7EAE221
:1010B000F0E08081882F90E0827090709695982F54
:1010C0008827979587959A838983ECE2F0E0808161
:1010D000282F30E089819A81822B932B9A838983F0
:1010E00089819A810F900F90CF91DF910895DF93BE
:1010F000CF9300D00F92CDB7DEB79B838A8319823E
:1011000010C08981282F30E08A819B81FC01E20F89
:10111000F31F8081882F90E00E941D0889818F5FD6
:1011200089838981282F30E08A819B81FC01E20F2D
:10113000F31F8081882329F70F900F900F90CF9194
:10114000DF9108950F931F93DF93CF9300D00F92F9
:10115000CDB7DEB79B838A8319828981282F30E03F
:101160008A819B818C01020F131F0E944B08F8019A
:1011700080830FC089818F5F89838981282F30E028
:101180008A819B818C01020F131F0E944B08F8017A
:1011900080838981282F30E08A819B81FC01E20FC6
:1011A000F31F8081833231F78981282F30E08A81D3
:1011B0009B81FC01E20FF31F10820F900F900F90A4
:1011C000CF91DF911F910F910895DF93CF93CDB70A
:1011D000DEB7AAE2B0E0EAE2F0E0808180688C93BA
:1011E000CF91DF910895DF93CF9300D0CDB7DEB7D5
:1011F0009A83898389819A819093EB028093EA0292
:101200000F900F90CF91DF910895DF93CF9300D08F
:10121000CDB7DEB79A83898389819A819093EB0257
:101220008093EA020F900F90CF91DF910895DF93A2
:10123000CF9300D0CDB7DEB71A821982EAE2F0E090
:101240008081882F90E0827090709695982F8827E3
:10125000979587959A838983ECE2F0E08081282F27
:1012600030E089819A81822B932B9A8389838981AB
:101270009A810F900F90CF91DF910895DF93CF93D4
:1012800000D0CDB7DEB79A83898389819A81909304
:10129000ED028093EC020F900F90CF91DF910895B3
:1012A0001F920F920FB60F9211242F933F934F93DB
:1012B0005F936F937F938F939F93AF93BF93EF93BE
:1012C000FF93DF93CF93CDB7DEB78091EC0290917F
:1012D000ED02009729F0E091EC02F091ED02099502
:1012E000CF91DF91FF91EF91BF91AF919F918F913E
:1012F0007F916F915F914F913F912F910F900FBE12
:101300000F901F901895DF93CF93CDB7DEB7AFE462
:10131000B0E0EFE4F0E0808188608C93AFE4B0E06F
:10132000EFE4F0E0808184608C93AFE4B0E0EFE420
:10133000F0E080818E7F8C93AFE4B0E0EFE4F0E0EA
:1013400080818D7F8C93AEE4B0E0EEE4F0E08081AC
:10135000877F8C93AEE4B0E0EEE4F0E080818F7E96
:101360008C9383E066E040E00E94520CAFE5B0E071
:10137000EFE5F0E0808180688C93A9E5B0E0E9E5D5
:10138000F0E0808180628C9380E090E00E94CB0945
:10139000CF91DF910895DF93CF9300D0CDB7DEB723
:1013A0009A838983ECE4F0E089819A819183808338
:1013B0000F900F90CF91DF910895DF93CF93CDB72A
:1013C000DEB7AEE4B0E0EEE4F0E08081887F8C939D
:1013D000CF91DF910895DF93CF93CDB7DEB7AEE421
:1013E000B0E0EEE4F0E08081982F987F80916A026F
:1013F000892B8C93CF91DF910895DF93CF930F9238
:10140000CDB7DEB78983AEE4B0E0EEE4F0E08081F2
:10141000282F2F7B8981882F90E00024969587952F
:101420000794969587950794982F802D822B8C93FF
:101430000F90CF91DF910895DF93CF93CDB7DEB7B3
:10144000E6E4F0E080819181CF91DF910895DF9310
:10145000CF93CDB7DEB70E94EB09CF91DF9108950E
:10146000DF93CF93CDB7DEB7A9E5B0E0E9E5F0E0D3
:1014700080818B7F8C93CF91DF910895DF93CF9301
:10148000CDB7DEB7A9E5B0E0E9E5F0E080818460A2
:101490008C93CF91DF910895DF93CF9300D0CDB798
:1014A000DEB79A83898389819A819093EF02809332
:1014B000EE020F900F90CF91DF9108951F920F923F
:1014C0000FB60F9211242F933F934F935F936F9317
:1014D0007F938F939F93AF93BF93EF93FF93DF938C
:1014E000CF93CDB7DEB78091EE029091EF020097D7
:1014F00029F0E091EE02F091EF020995CF91DF9192
:10150000FF91EF91BF91AF919F918F917F916F91DB
:101510005F914F913F912F910F900FBE0F901F90B1
:101520001895DF93CF93CDB7DEB7A3E5B0E0E3E541
:10153000F0E0808180648C93A3E5B0E0E3E5F0E027
:10154000808188608C93A3E5B0E0E3E5F0E08081E2
:10155000282F2F7C80916C02882F90E082959295A5
:10156000907F9827807F9827822B8C9380916C02A4
:10157000882329F081E063E042E00E94520CA3E559
:10158000B0E0E3E5F0E08081982F987F80916B02D6
:10159000892B8C9380E00E94D00ACF91DF9108952F
:1015A000DF93CF930F92CDB7DEB78983E2E5F0E00A
:1015B000898180830F90CF91DF910895DF93CF933E
:1015C000CDB7DEB7A3E5B0E0E3E5F0E08081887F4A
:1015D0008C93CF91DF910895DF93CF93CDB7DEB792
:1015E000A3E5B0E0E3E5F0E08081982F987F80915B
:1015F0006B02892B8C93CF91DF910895DF93CF936A
:101600000F92CDB7DEB78983ECE5F0E08981808366
:101610000F90CF91DF910895DF93CF930F92CDB7C5
:10162000DEB78983ECE5F0E08981482F50E0CA01FC
:101630009C01220F331FC9019695982F88279795F3
:101640008795821B930B840F951F24E630E0B90128
:101650000E940E3DCB0180830F90CF91DF910895C2
:10166000DF93CF93CDB7DEB7A9E5B0E0E9E5F0E0D1
:10167000808181608C93CF91DF910895DF93CF9328
:10168000CDB7DEB7A1E2B0E0E1E2F0E08081982FD3
:1016900080916D028370892B8C93E0E2F0E0809161
:1016A0006E028083A2E2B0E0E2E2F0E08081282FC7
:1016B00080916F02882F90E0880F991F822B8C9366
:1016C000A6E5B0E0E6E5F0E0808184608C93CF9100
:1016D000DF910895DF93CF93CDB7DEB7E6E5F0E075
:1016E00084EA8083E6E5F0E080818823DCF7CF910F
:1016F000DF910895DF93CF93CDB7DEB7A6E5B0E0D5
:10170000E6E5F0E0808184698C93CF91DF910895C4
:10171000DF93CF930F92CDB7DEB78983E3E2F0E09A
:1017200089818083E6E5F0E084E88083E6E5F0E007
:1017300080818823DCF70F90CF91DF910895DF93AC
:10174000CF93CDB7DEB7E6E5F0E084EC8083E6E545
:10175000F0E080818823DCF7E3E2F0E08081CF9144
:10176000DF910895DF93CF93CDB7DEB7E6E5F0E0E4
:1017700084E88083E6E5F0E080818823DCF7E3E21B
:10178000F0E08081CF91DF910895DF93CF93CDB7C3
:10179000DEB7E1E2F0E08081887FCF91DF910895AC
:1017A000DF93CF93CDB7DEB7A2E2B0E0E2E2F0E0A4
:1017B000808181608C93CF91DF910895DF93CF93E7
:1017C000CDB7DEB7A2E2B0E0E2E2F0E080818E7F4A
:1017D0008C93CF91DF910895DF93CF930F92CDB784
:1017E000DEB7198257C08981282F30E0C901880FE0
:1017F000991F820F931FFC01EF58FD4F80818830A5
:10180000E9F48981282F30E0C901880F991F820FE0
:10181000931FFC01E059FD4F40818981282F30E062
:10182000C901880F991F820F931FFC01EE58FD4FCD
:101830009081842F692F0E945A1029C08981282FF6
:1018400030E0C901880F991F820F931FFC01E059F6
:10185000FD4F50818981282F30E0C901880F991FE1
:10186000820F931FFC01EF58FD4F40818981282F83
:1018700030E0C901880F991F820F931FFC01EE58B9
:10188000FD4F9081852F642F492F0E94520C898132
:101890008F5F89838981882309F4A5CF0F90CF9129
:1018A000DF910895DF93CF9300D000D00F92CDB792
:1018B000DEB789836A834B838981843008F0D8C17D
:1018C0008A81883008F0D4C18981282F30E03D8397
:1018D0002C838C819D818130910509F484C02C81F9
:1018E0003D81223031052CF48C819D81009771F06F
:1018F000BFC12C813D812230310509F4E1C08C81CA
:101900009D818330910509F448C1B2C18B81882340
:1019100041F5AAE3B0E0EAE3F0E08081482F8A8154
:10192000282F30E081E090E002C0880F991F2A95AF
:10193000E2F7809584238C93ABE3B0E0EBE3F0E037
:101940008081482F8A81282F30E081E090E0022EAC
:1019500002C0880F991F0A94E2F7809584238C9324
:1019600087C18B81813039F5AAE3B0E0EAE3F0E08A
:101970008081482F8A81282F30E081E090E002C0EA
:10198000880F991F2A95E2F7809584238C93ABE307
:10199000B0E0EBE3F0E08081482F8A81282F30E02F
:1019A00081E090E0022E02C0880F991F0A94E2F7AE
:1019B000842B8C935DC18B81823009F059C1AAE3DD
:1019C000B0E0EAE3F0E08081482F8A81282F30E000
:1019D00081E090E0022E02C0880F991F0A94E2F77E
:1019E000842B8C9345C18B81882341F5A7E3B0E01C
:1019F000E7E3F0E08081482F8A81282F30E081E002
:101A000090E002C0880F991F2A95E2F78095842301
:101A10008C93A8E3B0E0E8E3F0E08081482F8A816E
:101A2000282F30E081E090E0022E02C0880F991F3D
:101A30000A94E2F7809584238C931AC18B818130BC
:101A400039F5A7E3B0E0E7E3F0E08081482F8A8131
:101A5000282F30E081E090E002C0880F991F2A957E
:101A6000E2F7809584238C93A8E3B0E0E8E3F0E00C
:101A70008081482F8A81282F30E081E090E0022E7B
:101A800002C0880F991F0A94E2F7842B8C93F0C050
:101A90008B81823009F0ECC0A7E3B0E0E7E3F0E02F
:101AA0008081482F8A81282F30E081E090E0022E4B
:101AB00002C0880F991F0A94E2F7842B8C93D8C038
:101AC0008B81882341F5A4E3B0E0E4E3F0E080817A
:101AD000482F8A81282F30E081E090E002C0880FF3
:101AE000991F2A95E2F7809584238C93A5E3B0E0B3
:101AF000E5E3F0E08081482F8A81282F30E081E003
:101B000090E0022E02C0880F991F0A94E2F7809598
:101B100084238C93ADC08B81813039F5A4E3B0E090
:101B2000E4E3F0E08081482F8A81282F30E081E0D3
:101B300090E002C0880F991F2A95E2F780958423D0
:101B40008C93A5E3B0E0E5E3F0E08081482F8A8143
:101B5000282F30E081E090E0022E02C0880F991F0C
:101B60000A94E2F7842B8C9383C08B81823009F036
:101B70007FC0A4E3B0E0E4E3F0E08081482F8A81F5
:101B8000282F30E081E090E0022E02C0880F991FDC
:101B90000A94E2F7842B8C936BC08B81882341F5E8
:101BA000A1E3B0E0E1E3F0E08081482F8A81282FB3
:101BB00030E081E090E002C0880F991F2A95E2F79B
:101BC000809584238C93A2E3B0E0E2E3F0E080818F
:101BD000482F8A81282F30E081E090E0022E02C059
:101BE000880F991F0A94E2F7809584238C9340C054
:101BF0008B81813039F5A1E3B0E0E1E3F0E0808151
:101C0000482F8A81282F30E081E090E002C0880FC1
:101C1000991F2A95E2F7809584238C93A2E3B0E084
:101C2000E2E3F0E08081482F8A81282F30E081E0D4
:101C300090E0022E02C0880F991F0A94E2F7842BCD
:101C40008C9316C08B81823099F4A1E3B0E0E1E37C
:101C5000F0E08081482F8A81282F30E081E090E0F9
:101C6000022E02C0880F991F0A94E2F7842B8C93EE
:101C70000F900F900F900F900F90CF91DF910895DC
:101C8000DF93CF9300D000D00F92CDB7DEB78A8319
:101C90006B8319828A81843008F084C08B818830FC
:101CA00008F080C08A81282F30E03D832C834C814E
:101CB0005D814130510579F18C819D8182309105A2
:101CC00034F42C813D812115310569F06BC04C81C4
:101CD0005D8142305105B9F18C819D818330910540
:101CE00009F449C05FC0E9E3F0E08081282F30E0CB
:101CF0008B81882F90E0A90102C0559547958A9560
:101D0000E2F7CA0181709070882319F081E089831D
:101D100049C0198247C0E6E3F0E08081282F30E017
:101D20008B81882F90E0A90102C0559547958A952F
:101D3000E2F7CA0181709070882319F081E08983ED
:101D400031C019822FC0E3E3F0E08081282F30E01A
:101D50008B81882F90E0A90102C0559547958A95FF
:101D6000E2F7CA0181709070882319F081E08983BD
:101D700019C0198217C0E0E3F0E08081282F30E01D
:101D80008B81882F90E0A90102C0559547958A95CF
:101D9000E2F7CA0181709070882319F081E089838D
:101DA00001C0198289810F900F900F900F900F90B2
:101DB000CF91DF910895DF93CF9300D000D00F92A1
:101DC000CDB7DEB789836A834B838981843008F07D
:101DD000E4C08A81883008F0E0C08981282F30E093
:101DE0003D832C838C819D818130910509F447C00E
:101DF0002C813D81223031052CF48C819D8100970E
:101E000071F0CBC02C813D812230310509F467C0CF
:101E10008C819D818330910509F491C0BEC08B8176
:101E20008130A1F4ABE3B0E0EBE3F0E08081482F38
:101E30008A81282F30E081E090E0022E02C0880FD6
:101E4000991F0A94E2F7842B8C93A7C08B81882377
:101E500009F0A3C0ABE3B0E0EBE3F0E08081482FF2
:101E60008A81282F30E081E090E0022E02C0880FA6
:101E7000991F0A94E2F7809584238C938EC08B81FE
:101E80008130A1F4A8E3B0E0E8E3F0E08081482FDE
:101E90008A81282F30E081E090E0022E02C0880F76
:101EA000991F0A94E2F7842B8C9377C08B81882347
:101EB00009F073C0A8E3B0E0E8E3F0E08081482FC8
:101EC0008A81282F30E081E090E0022E02C0880F46
:101ED000991F0A94E2F7809584238C935EC08B81CE
:101EE0008130A1F4A5E3B0E0E5E3F0E08081482F84
:101EF0008A81282F30E081E090E0022E02C0880F16
:101F0000991F0A94E2F7842B8C9347C08B81882316
:101F100009F043C0A5E3B0E0E5E3F0E08081482F9D
:101F20008A81282F30E081E090E0022E02C0880FE5
:101F3000991F0A94E2F7809584238C932EC08B819D
:101F40008130A1F4A2E3B0E0E2E3F0E08081482F29
:101F50008A81282F30E081E090E0022E02C0880FB5
:101F6000991F0A94E2F7842B8C9317C08B818823E6
:101F7000A1F4A2E3B0E0E2E3F0E08081482F8A819F
:101F8000282F30E081E090E0022E02C0880F991FD8
:101F90000A94E2F7809584238C930F900F900F9012
:101FA0000F900F90CF91DF910895DF93CF9300D0E2
:101FB00000D0CDB7DEB789836A838981843008F089
:101FC00072C08A81883008F06EC08981282F30E085
:101FD0003C832B838B819C818130910549F12B813E
:101FE0003C81223031052CF48B819C81009761F07B
:101FF0005AC02B813C812230310571F18B819C814B
:1020000083309105E9F14FC0ABE3B0E0EBE3F0E0E2
:102010008081482F8A81282F30E081E090E0022ED5
:1020200002C0880F991F0A94E2F784278C933BC063
:10203000A8E3B0E0E8E3F0E08081482F8A81282F10
:1020400030E081E090E0022E02C0880F991F0A94D0
:10205000E2F784278C9327C0A5E3B0E0E5E3F0E046
:102060008081482F8A81282F30E081E090E0022E85
:1020700002C0880F991F0A94E2F784278C9313C03B
:10208000A2E3B0E0E2E3F0E08081482F8A81282FCC
:1020900030E081E090E0022E02C0880F991F0A9480
:1020A000E2F784278C930F900F900F900F90CF91B1
:1020B000DF910895DF93CF9300D000D0CDB7DEB786
:1020C00089836A838981843008F096C08981282FAA
:1020D00030E03C832B838B819C8181309105A9F179
:1020E0002B813C81223031052CF48B819C8100971F
:1020F00071F082C02B813C812230310509F443C04C
:102100008B819C818330910509F45AC075C08A8106
:10211000882339F4EAE3F0E01082EBE3F0E0108288
:102120006BC08A81813041F4EAE3F0E01082EBE396
:10213000F0E08FEF808360C08A818F3F09F05CC040
:10214000EAE3F0E08FEF808357C08A81882339F477
:10215000E7E3F0E01082E8E3F0E010824DC08A810E
:10216000813041F4E7E3F0E01082E8E3F0E08FEF44
:10217000808342C08A818F3F09F03EC0E7E3F0E0F0
:102180008FEF808339C08A81882339F4E4E3F0E05B
:102190001082E5E3F0E010822FC08A81813041F4A3
:1021A000E4E3F0E01082E5E3F0E08FEF808324C009
:1021B0008A818F3F09F5E4E3F0E08FEF80831CC054
:1021C0008A81882339F4E1E3F0E01082E2E3F0E071
:1021D000108212C08A81813041F4E1E3F0E0108284
:1021E000E2E3F0E08FEF808307C08A818F3F21F424
:1021F000E1E3F0E08FEF80830F900F900F900F904E
:10220000CF91DF910895DF93CF9300D000D0CDB769
:10221000DEB78A8319828A81843090F58A81282FDB
:1022200030E03C832B838B819C8181309105D1F000
:102230002B813C81223031052CF48B819C810097CD
:1022400061F01EC02B813C812230310581F08B81F1
:102250009C818330910581F013C0E9E3F0E0808137
:1022600089830EC0E6E3F0E08081898309C0E3E35F
:10227000F0E08081898304C0E0E3F0E0808189831D
:1022800089810F900F900F900F90CF91DF9108955B
:10229000DF93CF9300D000D0CDB7DEB789836A83B8
:1022A0008981843090F58981282F30E03C832B830D
:1022B0008B819C8181309105D1F02B813C81223032
:1022C00031052CF48B819C81009761F01EC02B811D
:1022D0003C812230310581F08B819C8183309105D6
:1022E00081F013C0EBE3F0E08A8180830EC0E8E365
:1022F000F0E08A81808309C0E5E3F0E08A81808391
:1023000004C0E2E3F0E08A8180830F900F900F9089
:102310000F90CF91DF910895DF93CF9300D00F926C
:10232000CDB7DEB789838981843008F03EC08981CA
:10233000282F30E03B832A838A819B81813091055D
:10234000E9F02A813B81223031052CF48A819B817E
:10235000009761F02AC02A813B8122303105B1F01B
:102360008A819B8183309105C9F01FC0ABE3B0E047
:10237000EBE3F0E0808180958C9317C0A8E3B0E098
:10238000E8E3F0E0808180958C930FC0A5E3B0E096
:10239000E5E3F0E0808180958C9307C0A2E3B0E094
:1023A000E2E3F0E0808180958C930F900F900F9086
:1023B000CF91DF9108951F920F920FB60F921124C3
:1023C0002F933F934F935F936F937F938F939F933D
:1023D000AF93BF93EF93FF93DF93CF93CDB7DEB768
:1023E0008091F0029091F102009729F0E091F002C3
:1023F000F091F1020995CF91DF91FF91EF91BF919B
:10240000AF919F918F917F916F915F914F913F918C
:102410002F910F900FBE0F901F9018951F920F9243
:102420000FB60F9211242F933F934F935F936F93A7
:102430007F938F939F93AF93BF93EF93FF93DF931C
:10244000CF93CDB7DEB78091F2029091F30200975F
:1024500029F0E091F202F091F3020995CF91DF911A
:10246000FF91EF91BF91AF919F918F917F916F916C
:102470005F914F913F912F910F900FBE0F901F9042
:1024800018951F920F920FB60F9211242F933F931E
:102490004F935F936F937F938F939F93AF93BF936C
:1024A000EF93FF93DF93CF93CDB7DEB78091F40224
:1024B0009091F502009729F0E091F402F091F50275
:1024C0000995CF91DF91FF91EF91BF91AF919F91CE
:1024D0008F917F916F915F914F913F912F910F90CD
:1024E0000FBE0F901F901895DF93CF9300D0CDB7FC
:1024F000DEB79A83898389819A819093F1028093D0
:10250000F0020F900F90CF91DF910895DF93CF935A
:1025100000D0CDB7DEB79A83898389819A81909361
:10252000F3028093F2020F900F90CF91DF91089504
:10253000DF93CF9300D0CDB7DEB79A8389838981AB
:102540009A819093F5028093F4020F900F90CF91AF
:10255000DF910895DF93CF9300D0CDB7DEB78983A5
:102560006A8383E062E04A810E94520CA5E5B0E0F4
:10257000E5E5F0E08081982F9C7F8981892B8C9301
:10258000ABE5B0E0EBE5F0E0808180648C930F90E8
:102590000F90CF91DF910895DF93CF9300D0CDB707
:1025A000DEB789836A8383E063E04A810E94520C2C
:1025B000A5E5B0E0E5E5F0E08081282F237F898163
:1025C000882F90E0880F991F880F991F822B8C937A
:1025D000ABE5B0E0EBE5F0E0808180688C930F9094
:1025E0000F90CF91DF910895DF93CF9300D0CDB7B7
:1025F000DEB789836A8381E062E04A810E94520CDF
:102600008981823041F4A4E5B0E0E4E5F0E0808126
:102610008F7B8C930AC08981833039F4A4E5B0E0C4
:10262000E4E5F0E0808180648C93ABE5B0E0EBE51D
:10263000F0E0808180628C930F900F90CF91DF91BA
:102640000895DF93CF93CDB7DEB7ABE5B0E0EBE510
:10265000F0E080818F7B8C93CF91DF910895DF93A1
:10266000CF93CDB7DEB7ABE5B0E0EBE5F0E080812E
:102670008F778C93CF91DF910895DF93CF93CDB770
:10268000DEB7ABE5B0E0EBE5F0E080818F7D8C93C9
:10269000CF91DF910895DF93CF930F92CDB7DEB73F
:1026A0008983898187708983A7E2B0E0E7E2F0E05F
:1026B0008081982F907E8981892B8C93A6E2B0E04F
:1026C000E6E2F0E0808180648C930F90CF91DF91FF
:1026D0000895DF93CF93CDB7DEB7A7E2B0E0E7E28E
:1026E000F0E08081282F2F7380917402882F90E072
:1026F0000024969587950794969587950794982F2B
:10270000802D822B8C9380917502882341F4A7E25F
:10271000B0E0E7E2F0E080818F7D8C930BC0809188
:102720007502813039F4A7E2B0E0E7E2F0E08081A1
:1027300080628C93A6E2B0E0E6E2F0E080818068FF
:102740008C9380917302882399F180917302813078
:1027500079F4A6E2B0E0E6E2F0E0808180628C935A
:10276000A0E5B0E0E0E5F0E080818F708C9320C0C0
:10277000809173028230E1F4A6E2B0E0E6E2F0E09C
:10278000808180628C93A0E5B0E0E0E5F0E080819C
:10279000282F2F7080917702882F90E0880F991F43
:1027A00082959295907F9827807F9827822B8C9393
:1027B000A6E2B0E0E6E2F0E08081982F987F809179
:1027C00076028770892B8C93A6E2B0E0E6E2F0E017
:1027D0008081877F8C93CF91DF910895DF93CF9392
:1027E0000F92CDB7DEB7898389810E944B13E6E251
:1027F000F0E08081882F90E0807190700097B9F3AD
:102800000E9422149093F7028093F602A6E2B0E0B1
:10281000E6E2F0E0808180618C938091F6029091F5
:10282000F7020F90CF91DF910895DF93CF930F922E
:10283000CDB7DEB7898389810E944B130F90CF916A
:10284000DF910895DF93CF9300D0CDB7DEB71A8222
:102850001982809175028823B9F4E4E2F0E0808166
:10286000882F90E09A838983E5E2F0E08081882FC9
:1028700090E083709070382F222789819A81822B73
:10288000932B9A83898320C0809175028130E1F473
:10289000E4E2F0E080818295869586958370882FAA
:1028A00090E090709A838983E5E2F0E08081882F40
:1028B00090E09C01220F331F220F331F89819A81E0
:1028C000822B932B9A83898389819A810F900F9011
:1028D000CF91DF910895DF93CF93CDB7DEB70E94FC
:1028E000830981E00E94FD090E94EB0985E895E1DA
:1028F0000E943E0980E067E042E00E94520CCF91C6
:10290000DF910895DF93CF93CDB7DEB768970FB609
:10291000F894DEBF0FBECDBF80E067E041E00E94CB
:10292000DB0E80E090E0A0E2B1E48D8B9E8BAF8B5C
:10293000B88F6D897E898F89988D2BEA3AEA4AE2B1
:1029400050E40E941F02DC01CB01898B9A8BAB8B78
:10295000BC8B69897A898B899C8920E030E040E8CA
:102960005FE30E94250488231CF481E0888B91C0DA
:1029700069897A898B899C8920E030E04FE753E4AC
:102980000E94C50318160CF07BC06D897E898F8963
:10299000988D20E030E04AE754E40E941903DC01FE
:1029A000CB018C879D87AE87BF876C857D858E85A3
:1029B0009F8520E030E04AEF54E40E941F02DC01D2
:1029C000CB0188879987AA87BB87688579858A859F
:1029D0009B8520E030E040E85FE30E9425048823E7
:1029E0002CF481E090E09F838E833FC068857985D9
:1029F0008A859B8520E03FEF4FE757E40E94C5039F
:102A000018164CF56C857D858E859F8520E030E01D
:102A100040E251E40E941F02DC01CB01BC01CD0168
:102A20000E944900DC01CB019F838E830FC088EC9C
:102A300090E09D838C838C819D810197F1F79D832C
:102A40008C838E819F8101979F838E838E819F814E
:102A5000009769F724C0688579858A859B850E94DF
:102A60004900DC01CB019F838E838E819F819B83F4
:102A70008A838A819B810197F1F79B838A830FC0A8
:102A800069897A898B899C890E944900DC01CB0184
:102A9000888B8889898389818A95F1F7898380E089
:102AA00067E040E00E94DB0E68960FB6F894DEBF48
:102AB0000FBECDBFCF91DF910895DF93CF93CDB7F8
:102AC000DEB70E9482148091F8028230E1F7109202
:102AD000F80280912A0390912B03CC01A0E0B0E092
:102AE000BC01CD010E940705DC01CB01BC01CD0179
:102AF00023E333E34BE652E40E941903DC01CB01EC
:102B0000BC01CD01CF91DF910895DF93CF93CDB775
:102B1000DEB78091F8028F5F8093F8028091F8020F
:102B2000813041F480E090E00E94CB0980E00E9477
:102B3000FD090DC08091F802823049F40E941C0A00
:102B400090932B0380932A0381E00E94FD09CF918B
:102B5000DF910895DF93CF930F92CDB7DEB78983CE
:102B600080E0698140E00E94520C0F90CF91DF918C
:102B70000895DF93CF9300D00F92CDB7DEB789834E
:102B80000F900F900F90CF91DF910895DF93CF9327
:102B900000D0CDB7DEB789836A8389816A8142E03C
:102BA0000E94520C0F900F90CF91DF910895DF9308
:102BB000CF9300D00F92CDB7DEB789836A834B8362
:102BC0008B81882331F489816A8140E00E94DB0E89
:102BD00008C08B81813029F489816A8141E00E949B
:102BE000DB0E0F900F900F90CF91DF910895DF9340
:102BF000CF9300D00F92CDB7DEB789836A834B8322
:102C00008B81882331F489816A8141E00E94DB0E47
:102C100008C08B81813029F489816A8140E00E945B
:102C2000DB0E0F900F900F90CF91DF910895DF93FF
:102C3000CF9300D0CDB7DEB789836A8389816A815B
:102C40000E94D50F0F900F90CF91DF910895DF93E1
:102C5000CF93CDB7DEB780E063E042E00E94520C34
:102C600080E062E042E00E94520C81E060E042E0DD
:102C70000E94520C81E061E042E00E94520C81E02F
:102C800062E042E00E94520C81E064E042E00E9477
:102C9000520C82E00E94581688E20E9458168CE07E
:102CA0000E94581681E00E945816CF91DF91089536
:102CB0000F931F93DF93CF93CDB7DEB7C456D040A9
:102CC0000FB6F894DEBF0FBECDBFFE01EC59FF4F2B
:102CD000808380E063E040E00E94DB0EFE01E15A69
:102CE000FF4F80E090E0A0E8BFE380839183A28360
:102CF000B3838E01055A1F4FFE01E15AFF4F6081D9
:102D000071818281938120E030E04AE755E40E949E
:102D10001F02DC01CB01F80180839183A283B3837E
:102D2000FE01E55AFF4F608171818281938120E02D
:102D300030E040E85FE30E942504882344F4FE016C
:102D4000E75AFF4F81E090E09183808364C0FE01E9
:102D5000E55AFF4F608171818281938120E03FEFCE
:102D60004FE757E40E94C50318160CF043C0FE015C
:102D7000E15AFF4F608171818281938120E030E0D0
:102D800040E251E40E941F02DC01CB018E01075A90
:102D90001F4FBC01CD010E944900DC01CB01F801AD
:102DA000918380831FC0FE01E95AFF4F80E991E0C3
:102DB00091838083FE01E95AFF4F808191810197C1
:102DC000F1F7FE01E95AFF4F91838083DE01A75A94
:102DD000BF4FFE01E75AFF4F808191810197119605
:102DE0009C938E93FE01E75AFF4F8081918100975B
:102DF000D1F627C08E01075A1F4FFE01E55AFF4F3B
:102E000060817181828193810E944900DC01CB0144
:102E1000F80191838083DE01AB5ABF4FFE01E75A70
:102E2000FF4F808191818D939C93FE01EB5AFF4F60
:102E3000808191810197F1F7FE01EB5AFF4F918359
:102E4000808380E062E041E00E94DB0EFE01EF5AE9
:102E5000FF4F80E090E0A0E8BFE380839183A283EE
:102E6000B3838E01035B1F4FFE01EF5AFF4F60815A
:102E700071818281938120E030E04AE755E40E942D
:102E80001F02DC01CB01F80180839183A283B3830D
:102E9000FE01E35BFF4F608171818281938120E0BD
:102EA00030E040E85FE30E942504882344F4FE01FB
:102EB000E55BFF4F81E090E09183808364C0FE0179
:102EC000E35BFF4F608171818281938120E03FEF5E
:102ED0004FE757E40E94C50318160CF043C0FE01EB
:102EE000EF5AFF4F608171818281938120E030E051
:102EF00040E251E40E941F02DC01CB018E01055B20
:102F00001F4FBC01CD010E944900DC01CB01F8013B
:102F1000918380831FC0FE01E75BFF4F80E991E052
:102F200091838083FE01E75BFF4F80819181019750
:102F3000F1F7FE01E75BFF4F91838083DE01A55B24
:102F4000BF4FFE01E55BFF4F808191810197119694
:102F50009C938E93FE01E55BFF4F808191810097EA
:102F6000D1F627C08E01055B1F4FFE01E35BFF4FCB
:102F700060817181828193810E944900DC01CB01D3
:102F8000F80191838083DE01A95BBF4FFE01E55B01
:102F9000FF4F808191818D939C93FE01E95BFF4FF0
:102FA000808191810197F1F7FE01E95BFF4F9183E9
:102FB0008083DE01AD59BF4FFE01EC59FF4F808188
:102FC00082958F708C93FE01ED59FF4F8081982F71
:102FD000917081E060E0492F0E94DB0EFE01ED5907
:102FE000FF4F80818695982F917081E061E0492F95
:102FF0000E94DB0EFE01ED59FF4F8081869586957C
:10300000982F917081E062E0492F0E94DB0EFE0153
:10301000ED59FF4F8081869586958695982F917002
:1030200081E064E0492F0E94DB0EFE01ED5BFF4F63
:1030300080E090E0A0E8BFE380839183A283B38324
:103040008E01015C1F4FFE01ED5BFF4F60817181BE
:103050008281938120E030E04AE755E40E941F021C
:10306000DC01CB01F80180839183A283B383FE014D
:10307000FF96608171818281938120E030E040E899
:103080005FE30E94250488232CF481E090E09EAF4A
:103090008DAF46C0FE01FF96608171818281938170
:1030A00020E03FEF4FE757E40E94C503181664F590
:1030B000FE01ED5BFF4F608171818281938120E091
:1030C00030E040E251E40E941F02DC01CB01BC0170
:1030D000CD010E944900DC01CB019EAF8DAF0FC036
:1030E00080E991E09CAF8BAF8BAD9CAD0197F1F780
:1030F0009CAF8BAF8DAD9EAD01979EAF8DAF8DAD6B
:103100009EAD009769F716C0FE01FF966081718140
:10311000828193810E944900DC01CB019EAF8DAF7B
:103120008DAD9EAD9AAF89AF89AD9AAD0197F1F79C
:103130009AAF89AF80E062E040E00E94DB0E80E061
:1031400090E0A0E8BFE38DAB9EABAFABB8AF6DA98D
:103150007EA98FA998AD20E030E04AE755E40E94AF
:103160001F02DC01CB0189AB9AABABABBCAB69A94D
:103170007AA98BA99CA920E030E040E85FE30E9497
:10318000250488232CF481E090E098AB8FA73FC002
:1031900069A97AA98BA99CA920E03FEF4FE757E4E2
:1031A0000E94C50318164CF56DA97EA98FA998AD8C
:1031B00020E030E040E251E40E941F02DC01CB013C
:1031C000BC01CD010E944900DC01CB0198AB8FA767
:1031D0000FC080E991E09EA78DA78DA59EA50197C0
:1031E000F1F79EA78DA78FA598A9019798AB8FA7F8
:1031F0008FA598A9009769F714C069A97AA98BA926
:103200009CA90E944900DC01CB0198AB8FA78FA538
:1032100098A99CA78BA78BA59CA50197F1F79CA7C4
:103220008BA780E062E041E00E94DB0E80E090E04E
:10323000A0E8BFE38FA398A7A9A7BAA76FA178A515
:1032400089A59AA520E030E04AE755E40E941F02D4
:10325000DC01CB018BA39CA3ADA3BEA36BA17CA17E
:103260008DA19EA120E030E040E85FE30E942504AC
:1032700088232CF481E090E09AA389A33FC06BA13E
:103280007CA18DA19EA120E03FEF4FE757E40E9473
:10329000C50318164CF56FA178A589A59AA520E05D
:1032A00030E040E251E40E941F02DC01CB01BC018E
:1032B000CD010E944900DC01CB019AA389A30FC074
:1032C00080E991E098A38F8F8F8D98A10197F1F7F6
:1032D00098A38F8F89A19AA101979AA389A389A105
:1032E0009AA1009769F714C06BA17CA18DA19EA142
:1032F0000E944900DC01CB019AA389A389A19AA16C
:103300009E8F8D8F8D8D9E8D0197F1F79E8F8D8F66
:10331000DE01AD59BF4FFE01EC59FF4F80818F7028
:103320008C93FE01ED59FF4F8081982F917081E0C1
:1033300060E0492F0E94DB0EFE01ED59FF4F8081B6
:103340008695982F917081E061E0492F0E94DB0EF5
:10335000FE01ED59FF4F808186958695982F9170DB
:1033600081E062E0492F0E94DB0EFE01ED59FF4F24
:103370008081869586958695982F917081E064E08E
:10338000492F0E94DB0E80E090E0A0E8BFE3898F28
:103390009A8FAB8FBC8F698D7A8D8B8D9C8D20E041
:1033A00030E04AE755E40E941F02DC01CB018D8B1F
:1033B0009E8BAF8BB88F6D897E898F89988D20E029
:1033C00030E040E85FE30E94250488232CF481E08C
:1033D00090E09C8B8B8B3FC06D897E898F89988D07
:1033E00020E03FEF4FE757E40E94C50318164CF565
:1033F000698D7A8D8B8D9C8D20E030E040E251E428
:103400000E941F02DC01CB01BC01CD010E944900DA
:10341000DC01CB019C8B8B8B0FC080E991E09A8BF8
:10342000898B89899A890197F1F79A8B898B8B8986
:103430009C8901979C8B8B8B8B899C89009769F762
:1034400014C06D897E898F89988D0E944900DC01A6
:10345000CB019C8B8B8B8B899C89988B8F878F85DD
:1034600098890197F1F7988B8F8780E062E040E0C0
:103470000E94DB0E80E090E0A0E8BFE38B879C8792
:10348000AD87BE876B857C858D859E8520E030E08D
:103490004AE755E40E941F02DC01CB018F83988725
:1034A000A987BA876F81788589859A8520E030E081
:1034B00040E85FE30E94250488232CF481E090E03B
:1034C0009E838D833FC06F81788589859A8520E0B2
:1034D0003FEF4FE757E40E94C50318164CF56B8584
:1034E0007C858D859E8520E030E040E251E40E949D
:1034F0001F02DC01CB01BC01CD010E944900DC01AF
:10350000CB019E838D830FC080E991E09C838B83E8
:103510008B819C810197F1F79C838B838D819E81A8
:1035200001979E838D838D819E81009769F714C0DA
:103530006F81788589859A850E944900DC01CB01DD
:103540009E838D838D819E819A83898389819A81CF
:103550000197F1F79A838983CC59DF4F0FB6F8941E
:10356000DEBF0FBECDBFCF91DF911F910F910895A8
:103570000F931F93DF93CF93CDB7DEB7C456D040E0
:103580000FB6F894DEBF0FBECDBFFE01EC59FF4F62
:10359000808380E063E041E00E94DB0EFE01E15A9F
:1035A000FF4F80E090E0A0E8BFE380839183A28397
:1035B000B3838E01055A1F4FFE01E15AFF4F608110
:1035C00071818281938120E030E04AE755E40E94D6
:1035D0001F02DC01CB01F80180839183A283B383B6
:1035E000FE01E55AFF4F608171818281938120E065
:1035F00030E040E85FE30E942504882344F4FE01A4
:10360000E75AFF4F81E090E09183808364C0FE0120
:10361000E55AFF4F608171818281938120E03FEF05
:103620004FE757E40E94C50318160CF043C0FE0193
:10363000E15AFF4F608171818281938120E030E007
:1036400040E251E40E941F02DC01CB018E01075AC7
:103650001F4FBC01CD010E944900DC01CB01F801E4
:10366000918380831FC0FE01E95AFF4F80E991E0FA
:1036700091838083FE01E95AFF4F808191810197F8
:10368000F1F7FE01E95AFF4F91838083DE01A75ACB
:10369000BF4FFE01E75AFF4F80819181019711963C
:1036A0009C938E93FE01E75AFF4F80819181009792
:1036B000D1F627C08E01075A1F4FFE01E55AFF4F72
:1036C00060817181828193810E944900DC01CB017C
:1036D000F80191838083DE01AB5ABF4FFE01E75AA8
:1036E000FF4F808191818D939C93FE01EB5AFF4F98
:1036F000808191810197F1F7FE01EB5AFF4F918391
:10370000808380E062E041E00E94DB0EFE01EF5A20
:10371000FF4F80E090E0A0E8BFE380839183A28325
:10372000B3838E01035B1F4FFE01EF5AFF4F608191
:1037300071818281938120E030E04AE755E40E9464
:103740001F02DC01CB01F80180839183A283B38344
:10375000FE01E35BFF4F608171818281938120E0F4
:1037600030E040E85FE30E942504882344F4FE0132
:10377000E55BFF4F81E090E09183808364C0FE01B0
:10378000E35BFF4F608171818281938120E03FEF95
:103790004FE757E40E94C50318160CF043C0FE0122
:1037A000EF5AFF4F608171818281938120E030E088
:1037B00040E251E40E941F02DC01CB018E01055B57
:1037C0001F4FBC01CD010E944900DC01CB01F80173
:1037D000918380831FC0FE01E75BFF4F80E991E08A
:1037E00091838083FE01E75BFF4F80819181019788
:1037F000F1F7FE01E75BFF4F91838083DE01A55B5C
:10380000BF4FFE01E55BFF4F8081918101971196CB
:103810009C938E93FE01E55BFF4F80819181009721
:10382000D1F627C08E01055B1F4FFE01E35BFF4F02
:1038300060817181828193810E944900DC01CB010A
:10384000F80191838083DE01A95BBF4FFE01E55B38
:10385000FF4F808191818D939C93FE01E95BFF4F27
:10386000808191810197F1F7FE01E95BFF4F918320
:103870008083DE01AD59BF4FFE01EC59FF4F8081BF
:1038800082958F708C93FE01ED59FF4F8081982FA8
:10389000917081E060E0492F0E94DB0EFE01ED593E
:1038A000FF4F80818695982F917081E061E0492FCC
:1038B0000E94DB0EFE01ED59FF4F808186958695B3
:1038C000982F917081E062E0492F0E94DB0EFE018B
:1038D000ED59FF4F8081869586958695982F91703A
:1038E00081E064E0492F0E94DB0EFE01ED5BFF4F9B
:1038F00080E090E0A0E8BFE380839183A283B3835C
:103900008E01015C1F4FFE01ED5BFF4F60817181F5
:103910008281938120E030E04AE755E40E941F0253
:10392000DC01CB01F80180839183A283B383FE0184
:10393000FF96608171818281938120E030E040E8D0
:103940005FE30E94250488232CF481E090E09EAF81
:103950008DAF46C0FE01FF966081718182819381A7
:1039600020E03FEF4FE757E40E94C503181664F5C7
:10397000FE01ED5BFF4F608171818281938120E0C8
:1039800030E040E251E40E941F02DC01CB01BC01A7
:10399000CD010E944900DC01CB019EAF8DAF0FC06D
:1039A00080E991E09CAF8BAF8BAD9CAD0197F1F7B7
:1039B0009CAF8BAF8DAD9EAD01979EAF8DAF8DADA2
:1039C0009EAD009769F716C0FE01FF966081718178
:1039D000828193810E944900DC01CB019EAF8DAFB3
:1039E0008DAD9EAD9AAF89AF89AD9AAD0197F1F7D4
:1039F0009AAF89AF80E062E040E00E94DB0E80E099
:103A000090E0A0E8BFE38DAB9EABAFABB8AF6DA9C4
:103A10007EA98FA998AD20E030E04AE755E40E94E6
:103A20001F02DC01CB0189AB9AABABABBCAB69A984
:103A30007AA98BA99CA920E030E040E85FE30E94CE
:103A4000250488232CF481E090E098AB8FA73FC039
:103A500069A97AA98BA99CA920E03FEF4FE757E419
:103A60000E94C50318164CF56DA97EA98FA998ADC3
:103A700020E030E040E251E40E941F02DC01CB0173
:103A8000BC01CD010E944900DC01CB0198AB8FA79E
:103A90000FC080E991E09EA78DA78DA59EA50197F7
:103AA000F1F79EA78DA78FA598A9019798AB8FA72F
:103AB0008FA598A9009769F714C069A97AA98BA95D
:103AC0009CA90E944900DC01CB0198AB8FA78FA570
:103AD00098A99CA78BA78BA59CA50197F1F79CA7FC
:103AE0008BA780E062E041E00E94DB0E80E090E086
:103AF000A0E8BFE38FA398A7A9A7BAA76FA178A54D
:103B000089A59AA520E030E04AE755E40E941F020B
:103B1000DC01CB018BA39CA3ADA3BEA36BA17CA1B5
:103B20008DA19EA120E030E040E85FE30E942504E3
:103B300088232CF481E090E09AA389A33FC06BA175
:103B40007CA18DA19EA120E03FEF4FE757E40E94AA
:103B5000C50318164CF56FA178A589A59AA520E094
:103B600030E040E251E40E941F02DC01CB01BC01C5
:103B7000CD010E944900DC01CB019AA389A30FC0AB
:103B800080E991E098A38F8F8F8D98A10197F1F72D
:103B900098A38F8F89A19AA101979AA389A389A13C
:103BA0009AA1009769F714C06BA17CA18DA19EA179
:103BB0000E944900DC01CB019AA389A389A19AA1A3
:103BC0009E8F8D8F8D8D9E8D0197F1F79E8F8D8F9E
:103BD000DE01AD59BF4FFE01EC59FF4F80818F7060
:103BE0008C93FE01ED59FF4F8081982F917081E0F9
:103BF00060E0492F0E94DB0EFE01ED59FF4F8081EE
:103C00008695982F917081E061E0492F0E94DB0E2C
:103C1000FE01ED59FF4F808186958695982F917012
:103C200081E062E0492F0E94DB0EFE01ED59FF4F5B
:103C30008081869586958695982F917081E064E0C5
:103C4000492F0E94DB0E80E090E0A0E8BFE3898F5F
:103C50009A8FAB8FBC8F698D7A8D8B8D9C8D20E078
:103C600030E04AE755E40E941F02DC01CB018D8B56
:103C70009E8BAF8BB88F6D897E898F89988D20E060
:103C800030E040E85FE30E94250488232CF481E0C3
:103C900090E09C8B8B8B3FC06D897E898F89988D3E
:103CA00020E03FEF4FE757E40E94C50318164CF59C
:103CB000698D7A8D8B8D9C8D20E030E040E251E45F
:103CC0000E941F02DC01CB01BC01CD010E94490012
:103CD000DC01CB019C8B8B8B0FC080E991E09A8B30
:103CE000898B89899A890197F1F79A8B898B8B89BE
:103CF0009C8901979C8B8B8B8B899C89009769F79A
:103D000014C06D897E898F89988D0E944900DC01DD
:103D1000CB019C8B8B8B8B899C89988B8F878F8514
:103D200098890197F1F7988B8F8780E062E040E0F7
:103D30000E94DB0E80E090E0A0E8BFE38B879C87C9
:103D4000AD87BE876B857C858D859E8520E030E0C4
:103D50004AE755E40E941F02DC01CB018F8398875C
:103D6000A987BA876F81788589859A8520E030E0B8
:103D700040E85FE30E94250488232CF481E090E072
:103D80009E838D833FC06F81788589859A8520E0E9
:103D90003FEF4FE757E40E94C50318164CF56B85BB
:103DA0007C858D859E8520E030E040E251E40E94D4
:103DB0001F02DC01CB01BC01CD010E944900DC01E6
:103DC000CB019E838D830FC080E991E09C838B8320
:103DD0008B819C810197F1F79C838B838D819E81E0
:103DE00001979E838D838D819E81009769F714C012
:103DF0006F81788589859A850E944900DC01CB0115
:103E00009E838D838D819E819A83898389819A8106
:103E10000197F1F79A8389838091FA028F5F8093EB
:103E2000FA028091FA02843169F48091F9028F5F7D
:103E30008093F9021092FA028091F902843111F410
:103E40001092F902CC59DF4F0FB6F894DEBF0FBEC7
:103E5000CDBFCF91DF911F910F910895DF93CF9345
:103E600000D00F92CDB7DEB79B838A8319820EC034
:103E70008981282F30E08A819B81FC01E20FF31FAA
:103E800080810E94B81A89818F5F89838981282F58
:103E900030E08A819B81FC01E20FF31F808188233F
:103EA00039F70F900F900F90CF91DF910895DF9326
:103EB000CF9300D000D00F92CDB7DEB78A836B834B
:103EC0008A81282F30E03D832C838C819D81813035
:103ED0009105E9F02C813D81223031052CF48C8153
:103EE0009D81009761F030C02C813D8122303105E9
:103EF000C1F08C819D8183309105E9F025C08B81D3
:103F000089838B818093FA021092F9021DC08B8104
:103F1000805C89838B818093FA0281E08093F9022F
:103F200013C08B818C5E89838B818093FA0282E03F
:103F30008093F90209C08B818C5A89838B8180938D
:103F4000FA0283E08093F902898180680E94581602
:103F50000F900F900F900F900F90CF91DF910895D9
:103F6000DF93CF9300D000D0CDB7DEB79A8389839B
:103F70006B834C838B816C810E94571F89819A814E
:103F80000E942E1F0F900F900F900F90CF91DF91F6
:103F90000895DF93CF93CDB7DEB71092FA02109257
:103FA000F90281E00E945816CF91DF910895DF93C6
:103FB000CF93CDB7DEB78091FA02833189F4809137
:103FC000F902882369F41092FA0281E08093F902E1
:103FD0008091F9029091FA02692F0E94571F46C002
:103FE0008091FA02833189F48091F902813069F479
:103FF0001092FA0282E08093F9028091F902909186
:10400000FA02692F0E94571F31C08091FA02833152
:1040100089F48091F902823069F41092FA0283E007
:104020008093F9028091F9029091FA02692F0E941F
:10403000571F1CC08091FA02833181F48091F902EC
:10404000833061F41092FA021092F9028091F90221
:104050009091FA02692F0E94571F08C084E10E94C4
:1040600058168091FA028F5F8093FA02CF91DF9108
:104070000895DF93CF93CDB7DEB78091FA028823FE
:1040800091F48091F902882371F483E18093FA021C
:1040900083E08093F9028091F9029091FA02692FEE
:1040A0000E94571F49C08091FA02882389F48091A9
:1040B000F902813069F483E18093FA021092F902E7
:1040C0008091F9029091FA02692F0E94571F34C023
:1040D0008091FA02882391F48091F902823071F480
:1040E00083E18093FA0281E08093F9028091F902E2
:1040F0009091FA02692F0E94571F1EC08091FA0208
:10410000882391F48091F902833071F483E18093E4
:10411000FA0282E08093F9028091F9029091FA020A
:10412000692F0E94571F08C080E10E945816809195
:10413000FA0281508093FA02CF91DF910895DF93C4
:10414000CF93CDB7DEB78CE10E945816CF91DF91A7
:104150000895DF93CF93CDB7DEB788E10E9458165C
:10416000CF91DF910895DF93CF9300D000D0CDB7EA
:10417000DEB79B838A836C838C81882F90E00896BE
:10418000880F991F880F991F880F991F0E94581632
:1041900019820EC08981282F30E08A819B81FC0121
:1041A000E20FF31F80810E94B81A89818F5F898393
:1041B0008981883078F30F900F900F900F90CF91F6
:1041C000DF910895DF93CF930F92CDB7DEB7898348
:1041D00089810E94B81A0F90CF91DF910895DF93E3
:1041E000CF9300D00F92CDB7DEB789836A834B831C
:1041F0008A816B810E94571F89810E94B81A0F9093
:104200000F900F90CF91DF910895DF93CF93CDB7AB
:10421000DEB765970FB6F894DEBF0FBECDBF6A8BD1
:104220007B8B8C8B9D8B8A899B899E012F5F3F4F57
:10423000B9014AE050E00E948E3DCE0101960E94F5
:104240002E1F65960FB6F894DEBF0FBECDBFCF917F
:10425000DF910895DF93CF93CDB7DEB7A9970FB65F
:10426000F894DEBF0FBECDBF68A379A38AA39BA33A
:104270001F8A68A179A18AA19BA10E94B304DC01D5
:10428000CB019E8B8D8B8D899E89AA2797FDA0954A
:10429000BA2FBC01CD010E9455049B01AC0168A15D
:1042A00079A18AA19BA10E94C101DC01CB01898B6C
:1042B0009A8BAB8BBC8B188A1F8635C08D899E89E3
:1042C0002AE030E0B9010E94223D9D838C838F85D6
:1042D000988999A788A78C819D818A3091052CF0B7
:1042E0008C81982F995A9FA304C08C81982F905D40
:1042F0009FA3CE014896E8A5F9A5E80FF91F8FA165
:1043000080838F8598890196988B8F878D899E8968
:104310002AE030E0B9010E94223DCB019E8B8D8BBB
:104320008F898F5F8F8B8D899E89009739F61E86C6
:104330001D868F85988901979C878B872CC02D853A
:104340003E85CE014896FC01E20FF31F80818B83EE
:104350004D855E852B853C85CE014896FC01E20F9C
:10436000F31F2081CE014896FC01E40FF51F208346
:104370002B853C85CE014896FC01E20FF31F8B8113
:1043800080838D859E8501969E878D878B859C85F4
:1043900001979C878B872D853E858B859C8528176B
:1043A00039076CF22F853889CE014896FC01E20F5F
:1043B000F31F8EE280838F898F5F8F8B69897A8963
:1043C0008B899C8920E030E048EC52E40E941F0277
:1043D000DC01CB01898B9A8BAB8BBC8B69897A8989
:1043E0008B899C890E94B304DC01CB019A87898761
:1043F0008F859889019698878F831E8238C08E8119
:104400008F5F8E8389859A852AE030E0B9010E940A
:10441000223D9A8389838F8198859EA38DA389816C
:104420009A818A3091052CF08981982F995A9CA302
:1044300004C08981982F905D9CA3CE014896EDA180
:10444000FEA1E80FF91F8CA180838F8198850196CA
:1044500098878F8389859A852AE030E0B9010E9488
:10446000223DCB019A8789878F898F5F8F8B8985C2
:104470009A85009721F62F813885CE014896FC0158
:10448000E20FF31F1082CE0148960E942E1F8E81EC
:10449000813021F480E690E00E942E1F8F89A9963A
:1044A0000FB6F894DEBF0FBECDBFCF91DF91089558
:1044B000DF93CF9300D000D0CDB7DEB78A831982C7
:1044C0008A81282F30E03C832B838B819C818A302A
:1044D000910581F02B813C812A3031059CF08B8144
:1044E0009C818B30910549F02B813C812C3031052A
:1044F00031F008C08AE2898307C0198205C083E2CF
:10450000898302C08A81898389810F900F900F90DF
:104510000F90CF91DF910895DF93CF9300D0CDB767
:10452000DEB71A820FC08A81882F90E0FC01ED531C
:10453000FD4F908182E0692F41E00E94520C8A81F8
:104540008F5F8A838A81843070F319821BC08981CE
:10455000882F90E0FC01E054FD4F908183E0692FAB
:1045600042E00E94520C8981882F90E0FC01E054C7
:10457000FD4F908183E0692F41E00E94DB0E89812D
:104580008F5F89838981833010F30F900F90CF91D3
:10459000DF910895DF93CF9300D000D000D0CDB746
:1045A000DEB71D820FC08D81882F90E0FC01E054A2
:1045B000FD4F908183E0692F41E00E94DB0E8D81E9
:1045C0008F5F8D838D81833070F38FEF9FEF9A83A0
:1045D00089831C8245C08C81882F90E0FC01E054C7
:1045E000FD4F908183E0692F40E00E94DB0E1B822B
:1045F00025C08B81882F90E0FC01ED53FD4F908109
:1046000082E0692F0E94400E8823A9F48B81282F15
:1046100030E0C901880F991F820F931F982F8C815A
:10462000890F8F5F0E945822882F90E09A83898398
:1046300089818E831BC08B818F5F8B838B818430BC
:10464000C0F28C81882F90E0FC01E054FD4F9081F6
:1046500083E0692F41E00E94DB0E8C818F5F8C83A9
:104660008C81833008F4B7CF89818E838E81269622
:104670000FB6F894DEBF0FBECDBFCF91DF91089586
:10468000DF93CF9300D00F92CDB7DEB789836A83D3
:104690000E946A0B0E94C50B883011F01B821FC05C
:1046A00084EA0E94880B0E94C50B883111F01B829E
:1046B00016C089810E94880B0E94C50B883211F0B8
:1046C0001B820DC08A810E94880B0E94C50B883214
:1046D00011F01B8204C00E947A0B81E08B838B81D6
:1046E0000F900F900F90CF91DF910895DF93CF93AC
:1046F00000D000D0CDB7DEB789837B836A830E9468
:104700006A0B0E94C50B883011F01C8232C084EA0B
:104710000E94880B0E94C50B883111F01C8229C0B1
:1047200089810E94880B0E94C50B883211F01C827F
:1047300020C00E946A0B0E94C50B803111F01C82C0
:1047400018C085EA0E94880B0E94C50B803411F0C6
:104750001C820FC00E94B20BEA81FB8180830E9401
:10476000C50B883511F01C8204C00E947A0B81E0D1
:104770008C838C810F900F900F900F90CF91DF91D1
:104780000895DF93CF9300D0CDB7DEB79A838983A6
:10479000E981FA818081E981FA819181692F42E082
:1047A0000E94520CE981FA818281E981FA81938128
:1047B000692F42E00E94520CE981FA818081E981EF
:1047C000FA819181692F40E00E94DB0EE981FA8134
:1047D0008281E981FA819381692F40E00E94DB0E9A
:1047E0000E94910A0F900F90CF91DF910895DF936F
:1047F000CF9300D000D000D0CDB7DEB79A838983A5
:104800006B834C838B81282F30E03E832D838D81F9
:104810009E8181309105F9F02D813E812230310554
:1048200079F18D819E81009709F03EC0E981FA817E
:104830008081E981FA819181692F40E00E94DB0E3D
:10484000E981FA818281E981FA819381692F41E0CE
:104850000E94DB0E29C0E981FA818081E981FA8119
:104860009181692F41E00E94DB0EE981FA8182810A
:10487000E981FA819381692F40E00E94DB0E14C028
:10488000E981FA818081E981FA819181692F40E093
:104890000E94DB0EE981FA818281E981FA819381AC
:1048A000692F40E00E94DB0E8C81843618F083E68D
:1048B0008C8305C08C81882311F481E08C838C81EA
:1048C0000E940C0B26960FB6F894DEBF0FBECDBF2C
:1048D000CF91DF910895DF93CF9300D0CDB7DEB7AE
:1048E00089836A8389816A8142E00E94520C0F9019
:1048F0000F90CF91DF910895DF93CF9300D00F9267
:10490000CDB7DEB789836A834B838B81882331F4EB
:1049100089816A8140E00E94DB0E08C08B81813072
:1049200029F489816A8141E00E94DB0E0F900F908B
:104930000F90CF91DF910895DF93CF9300D00F9226
:10494000CDB7DEB789836A834B838B81882331F4AB
:1049500089816A8141E00E94DB0E08C08B81813031
:1049600029F489816A8140E00E94DB0E0F900F904C
:104970000F90CF91DF910895DF93CF9300D0CDB703
:10498000DEB789836A8389816A810E94D50F0F907F
:104990000F90CF91DF9108950F931F93DF93CF93E3
:1049A000CDB7DEB780910403082F10E00E941709ED
:1049B000F801E550FD4F8083809104038F5F809361
:1049C000040380910403883011F410920403CF9102
:1049D000DF911F910F910895DF93CF93CDB7DEB78D
:1049E0000E94A8070E94E5088CEC94E20E94F3085C
:1049F000CF91DF910895DF93CF9300D0CDB7DEB78D
:104A00009A83898389819A810E9477080F900F90F9
:104A1000CF91DF910895DF93CF9300D00F92CDB760
:104A2000DEB789836A834B8389816A814B810E94C7
:104A3000520C0F900F900F90CF91DF910895DF935C
:104A4000CF9300D0CDB7DEB789836A8389816A812D
:104A50000E94400E0F900F90CF91DF910895DF9349
:104A6000CF93CDB7DEB70E9461250E9476250E94C4
:104A7000702B0E94F4360E94003A0E9496290E94F0
:104A80003D2A0E9491370E94C93C809109038130E0
:104A900041F480910603813021F40E9404380E9481
:104AA0007B380E94A127CF91DF910895DF93CF93A8
:104AB0000F92CDB7DEB7809107030F90CF91DF91B2
:104AC0000895DF93CF93CDB7DEB780910603882397
:104AD00051F480910703813031F4109207038091E3
:104AE00007030E940429CF91DF910895DF93CF93AC
:104AF000CDB7DEB76C970FB6F894DEBF0FBECDBF53
:104B000080910603823009F00CC180910703813047
:104B100031F410920703809107030E9404298091C9
:104B20000A03813009F07CC010920A0380910A03C5
:104B30000E94032A82E690E00E94FB2480E090E03D
:104B4000A0E2B1E4898F9A8FAB8FBC8F698D7A8D8B
:104B50008B8D9C8D20E030E04AEF54E40E941F02D0
:104B6000DC01CB018D8B9E8BAF8BB88F6D897E89DD
:104B70008F89988D20E030E040E85FE30E942504B3
:104B800088232CF481E090E09C8B8B8B3FC06D8957
:104B90007E898F89988D20E03FEF4FE757E40E9490
:104BA000C50318164CF5698D7A8D8B8D9C8D20E090
:104BB00030E040E251E40E941F02DC01CB01BC0165
:104BC000CD010E944900DC01CB019C8B8B8B0FC077
:104BD00088EC90E09A8B898B89899A890197F1F703
:104BE0009A8B898B8B899C8901979C8B8B8B8B896A
:104BF0009C89009769F714C06D897E898F89988D8B
:104C00000E944900DC01CB019C8B8B8B8B899C899A
:104C1000988B8F878F8598890197F1F7988B8F876D
:104C200080910803813009F07CC0109208038091C4
:104C300008030E945D2985E690E00E94FB2480E045
:104C400090E0A0E2B1E48B879C87AD87BE876B853F
:104C50007C858D859E8520E030E04AEF54E40E94FB
:104C60001F02DC01CB018F839887A987BA876F81E8
:104C7000788589859A8520E030E040E85FE30E94EE
:104C8000250488232CF481E090E09E838D833FC02F
:104C90006F81788589859A8520E03FEF4FE757E45B
:104CA0000E94C50318164CF56B857C858D859E8505
:104CB00020E030E040E251E40E941F02DC01CB0121
:104CC000BC01CD010E944900DC01CB019E838D8394
:104CD0000FC088EC90E09C838B838B819C81019733
:104CE000F1F79C838B838D819E8101979E838D83B9
:104CF0008D819E81009769F714C06F8178858985C1
:104D00009A850E944900DC01CB019E838D838D81B1
:104D10009E819A83898389819A810197F1F79A8389
:104D200089836C960FB6F894DEBF0FBECDBFCF91CE
:104D3000DF910895DF93CF93CDB7DEB72E970FB6EF
:104D4000F894DEBF0FBECDBF78940E94271688E886
:104D500092E060E00E94B32080E992E061E00E946E
:104D6000B32088E992E062E00E94B32080EA92E0FA
:104D700063E00E94B32088EA92E064E00E94B320DE
:104D800080EB92E065E00E94B32088EB92E066E061
:104D90000E94B32082E066E00E946B2482E060E023
:104DA0000E94CC128CE995E30E94861282E060E0BA
:104DB0000E94AA128FEF9FE20E94741281E067E0C6
:104DC0000E94C61580E066E00E94C61582E067E09A
:104DD00042E00E94520C81E065E042E00E94520CE9
:104DE00081E066E042E00E94520C8AEC92E00E9470
:104DF000C12381E067E040E00E94D71580E066E0D3
:104E000040E00E94D7150E94910A84E29CE30E9430
:104E10004C0A0E94300B0E946B140E94691380E0C0
:104E20000E94AA150E948C220E943E0B80E090E016
:104E3000A8E4B2E48B879C87AD87BE876B857C85B1
:104E40008D859E8520E030E04AEF54E40E941F02E9
:104E5000DC01CB018F839887A987BA876F8178851A
:104E600089859A8520E030E040E85FE30E942504D0
:104E700088232CF481E090E09E838D833FC06F8176
:104E8000788589859A8520E03FEF4FE757E40E94B7
:104E9000C50318164CF56B857C858D859E8520E0B5
:104EA00030E040E251E40E941F02DC01CB01BC0172
:104EB000CD010E944900DC01CB019E838D830FC090
:104EC00088EC90E09C838B838B819C810197F1F728
:104ED0009C838B838D819E8101979E838D838D81A1
:104EE0009E81009769F714C06F81788589859A85BE
:104EF0000E944900DC01CB019E838D838D819E81C0
:104F00009A83898389819A810197F1F79A838983AA
:104F10000E94EC2481E065E00E94571F88E690E043
:104F20000E942E1F809119038823E1F30E945D28BF
:104F30002E960FB6F894DEBF0FBECDBFCF91DF9196
:104F40000895DF93CF93CDB7DEB7F89483E060E0A8
:104F50000E94571F80910403882F90E0A0E0B0E0EA
:104F6000BC01CD010E94052180910403833009F02A
:104F7000A1C08BEF92E00E942E1F78948091FB02DB
:104F8000813221F58091FC02803339F410920603BE
:104F9000809106030E94BF288BC08091FC02813360
:104FA00041F481E080930603809106030E94BF28AC
:104FB0007FC08091FC02823309F07AC082E0809346
:104FC0000603809106030E94BF2872C08091FB02F5
:104FD0008432C1F48091FC02803339F410920703CB
:104FE000809107030E94042963C08091FC028133F1
:104FF00009F05EC081E080930703809107030E945F
:10500000042956C08091FB028532E9F48091FC02AC
:10501000803339F410920903809109030E941F29FB
:105020000BC08091FC02813339F481E08093090345
:10503000809109030E941F298091C7028823C1F52E
:105040000E94CE2A35C08091FB028632B9F480914D
:10505000FC02803339F410920803809108030E9407
:105060005D2926C08091FC02813311F581E0809397
:105070000803809108030E945D291AC08091FB02F9
:105080008A32B1F48091FC02803339F410920A0321
:1050900080910A030E94032A0BC08091FC02813395
:1050A00039F481E080930A0380910A030E94032A65
:1050B00010920403CF91DF910895DF93CF93CDB782
:1050C000DEB7F8940E94C91F0E94CE2A80E06EE0ED
:1050D0000E94571F85E790E00E942E1F80E063E149
:1050E0000E94571F80910603882321F48EE40E94BA
:1050F000B81A15C080910603813021F484E40E941F
:10510000B81A0DC080910603823021F482E50E9416
:10511000B81A05C08EE40E94B81A1092060381E006
:105120006BE00E94571F8BE790E00E942E1F0E94A9
:10513000003A82E060E00E94571F8FE790E00E94F3
:105140002E1F83E00E94B81A83E890E00E942E1F71
:1051500083E00E94B81A88E890E00E942E1F83E046
:105160000E94B81A8DE890E00E942E1F83E00E94F2
:10517000B81A0E944A2A7894CF91DF910895DF935C
:10518000CF93CDB7DEB729970FB6F894DEBF0FBE29
:10519000CDBF8C83F894CE0101969E838D83E7ED7D
:1051A000F2E0F887EF83F3E0F987EF81F88500807C
:1051B0008F819885019698878F83ED81FE8100828B
:1051C0008D819E8101969E838D83998591509987CB
:1051D000E985EE2351F780E063E10E94571F8C813F
:1051E000282F30E0CE010196FC01E20FF31F8081F1
:1051F0000E94B81A789429960FB6F894DEBF0FBEB5
:10520000CDBFCF91DF910895DF93CF930F92CDB7AC
:10521000DEB78983F89482E063E00E94571F809193
:105220000703813021F482E00E94B81A03C083E0B2
:105230000E94B81A78940F90CF91DF910895DF9370
:10524000CF930F92CDB7DEB78983F89482E068E000
:105250000E94571F8981813021F482E00E94B81A90
:1052600003C083E00E94B81A78940F90CF91DF9129
:105270000895DF93CF93CDB7DEB78091C70288231F
:10528000C9F4F89480E06BE00E94571F80910903F5
:10529000813061F48091CF02813021F484E00E945A
:1052A000B81A07C086E00E94B81A03C084E40E94BE
:1052B000B81A7894CF91DF910895DF93CF930F922E
:1052C000CDB7DEB78983F89482E06DE00E94571F66
:1052D0008981813021F482E00E94B81A03C083E002
:1052E0000E94B81A78940F90CF91DF910895DF93C0
:1052F000CF93CDB7DEB78091C7028230A1F4F89486
:1053000080E067E00E94571F8091C902882F90E0DB
:10531000A0E0B0E0BC01CD010E94052182E990E04F
:105320000E942E1F7894CF91DF910895DF93CF9341
:10533000CDB7DEB78091C902282F30E080910B03F2
:1053400090910C03281739071CF41092CE020EC05E
:105350008091C902282F30E080910B0390910C03BB
:10536000281739071CF081E08093CE028091C70294
:10537000823019F40E94DA291AC080910803813022
:1053800051F48091CE02813031F482E067E040E058
:105390000E94DB0E0CC080910803813041F48091A3
:1053A000CE02882321F482E067E00E94D50FCF91DE
:1053B000DF910895DF93CF93CDB7DEB7F89481E006
:1053C00069E00E94571F809108038130A9F4809101
:1053D000CE02813049F484E00E94B81A82E067E08E
:1053E00040E00E94DB0E0BC086E00E94B81A82E00B
:1053F00067E00E94D50F03C084E40E94B81A789435
:10540000CF91DF910895DF93CF930F92CDB7DEB7A1
:105410008983F89482E062E10E94571F898181307C
:1054200021F482E00E94B81A03C083E00E94B81AF7
:1054300078940F90CF91DF910895DF93CF93CDB7FC
:10544000DEB7F89480E06AE00E94571F80910A035B
:10545000813061F48091D002813021F484E00E9497
:10546000B81A07C086E00E94B81A03C084E40E94FC
:10547000B81A7894CF91DF910895DF93CF93CDB789
:10548000DEB78091C702813011F40E941D2ACF91AE
:10549000DF910895DF93CF93CDB7DEB765970FB651
:1054A000F894DEBF0FBECDBFCE0101969A8B898BDB
:1054B000EAEDF2E0FC8BEB8BF0E1FD8BEB89FC89F4
:1054C00000808B899C8901969C8B8B8BE989FA895A
:1054D000008289899A8901969A8B898B9D8991503E
:1054E0009D8BED89EE2351F7F89483E068E00E94EC
:1054F000571F8091C702992787FD90959C01220F25
:10550000331F220F331FCE010196FC01E20FF31F60
:1055100080810E94B81A8091C702992787FD9095D3
:105520009C01220F331F220F331FCE010196820FE1
:10553000931FFC01319680810E94B81A8091C702A6
:10554000992787FD9095880F991F01969C01220F3E
:10555000331FCE010196FC01E20FF31F80810E94F0
:10556000B81A8091C702992787FD90959C01220F58
:10557000331F220F331FCE010196820F931FFC01B0
:10558000339680810E94B81A789465960FB6F89485
:10559000DEBF0FBECDBFCF91DF910895DF93CF93D4
:1055A000CDB7DEB7F89480E060E00E94571F87E92E
:1055B00090E00E942E1F81E060E00E94571F8091C2
:1055C0001703813049F41092170382E066E040E04F
:1055D0000E947C241092180386EA90E00E942E1FFD
:1055E0008091C7028130F9F480E060E00E94571F8B
:1055F00082EB90E00E942E1F0E941D2A81E060E055
:105600000E94571F8DEB90E00E942E1F8091100387
:1056100090911103A0911203B0911303BC01CD012D
:105620000E942A2159C08091C702882311F580E089
:1056300060E00E94571F82EC90E00E942E1F0E94A3
:10564000392980910903813059F481E060E00E949A
:10565000571F8FEC90E00E942E1F0E9404383CC020
:1056600081E060E00E94571F84ED90E00E942E1FB1
:1056700033C08091C702823009F580E060E00E946B
:10568000571F8FED90E00E942E1F8091C902882F36
:1056900090E0A0E0B0E0BC01CD010E94052182E9CC
:1056A00090E00E942E1F81E060E00E94571F87EE6D
:1056B00090E00E942E1F0E94DA290EC08091C7023E
:1056C000833051F480E060E00E94571F81EF90E04A
:1056D0000E942E1F0E9491377894CF91DF910895F8
:1056E0000F931F93DF93CF93CDB7DEB7C754D0404E
:1056F0000FB6F894DEBF0FBECDBF0E94CA22FE01D6
:10570000E95BFF4F8083FE01E95BFF4F80818230C0
:1057100009F0CFC08091C802882309F0CAC08091E7
:105720000B0390910C03009709F0C3C0109216036D
:105730001092150381E08093D00280912503882385
:1057400009F0B9C081E08093250381E080931703BD
:10575000809106038F5F8093060380910603833058
:1057600011F410920603F89480910603882329F41B
:105770008DEF90E00E94FB2411C0809106038130E0
:1057800029F480E091E00E94FB2408C08091060388
:10579000823021F483E091E00E94FB24FE01ED5B66
:1057A000FF4F80E090E0A0E2B1E480839183A28388
:1057B000B3838E01015C1F4FFE01ED5BFF4F6081E3
:1057C00071818281938120E030E04AEF54E40E94AD
:1057D0001F02DC01CB01F80180839183A283B38394
:1057E000FE01FF96608171818281938120E030E02B
:1057F00040E85FE30E94250488232CF481E090E0D8
:105800009EAF8DAF46C0FE01FF966081718182819F
:10581000938120E03FEF4FE757E40E94C50318163D
:1058200064F5FE01ED5BFF4F6081718182819381A0
:1058300020E030E040E251E40E941F02DC01CB0195
:10584000BC01CD010E944900DC01CB019EAF8DAFB0
:105850000FC088EC90E09CAF8BAF8BAD9CAD0197F7
:10586000F1F79CAF8BAF8DAD9EAD01979EAF8DAF25
:105870008DAD9EAD009769F716C0FE01FF96608161
:105880007181828193810E944900DC01CB019EAF2E
:105890008DAF8DAD9EAD9AAF89AF89AD9AAD0197B1
:1058A000F1F79AAF89AF7894809106030E94BF28E0
:1058B00002C01092250380910603813009F0D4C202
:1058C000FE01E95BFF4F8081882309F0AAC0109296
:1058D00016031092150381E08093D0028091240377
:1058E000882309F0A0C081E08093240381E08093A5
:1058F000170380910703882341F481E08093070315
:10590000809107030E94042906C01092070380912A
:1059100007030E940429F89480910703813029F439
:1059200086E091E00E94FB2408C080910703882351
:1059300021F489E091E00E94FB2480E090E0A0E265
:10594000B1E48DAB9EABAFABB8AF6DA97EA98FA90B
:1059500098AD20E030E04AEF54E40E941F02DC01E1
:10596000CB0189AB9AABABABBCAB69A97AA98BA9CC
:105970009CA920E030E040E85FE30E9425048823F2
:105980002CF481E090E098AB8FA73FC069A97AA979
:105990008BA99CA920E03FEF4FE757E40E94C50385
:1059A00018164CF56DA97EA98FA998AD20E030E0BE
:1059B00040E251E40E941F02DC01CB01BC01CD0199
:1059C0000E944900DC01CB0198AB8FA70FC088EC87
:1059D00090E09EA78DA78DA59EA50197F1F79EA7A4
:1059E0008DA78FA598A9019798AB8FA78FA598A988
:1059F000009769F714C069A97AA98BA99CA90E948C
:105A00004900DC01CB0198AB8FA78FA598A99CA773
:105A10008BA78BA59CA50197F1F79CA78BA77894E2
:105A200002C010922403FE01E95BFF4F80818830A1
:105A300009F0AFC0109216031092150381E0809315
:105A4000D00280912103882309F0A5C081E08093D2
:105A5000210381E08093170380910803882341F498
:105A600081E080930803809108030E945D290BC0A8
:105A700010920803809108030E945D2982E067E08C
:105A800040E00E94DB0EF89480910803813029F4F5
:105A90008CE091E00E94FB2408C0809108038823D9
:105AA00021F485E690E00E94FB2480E090E0A0E2F3
:105AB000B1E48FA398A7A9A7BAA76FA178A589A5D4
:105AC0009AA520E030E04AEF54E40E941F02DC0176
:105AD000CB018BA39CA3ADA3BEA36BA17CA18DA185
