:100000000C942A000C94350F0C94680F0C949B0FE1
:100010000C9447000C9447000C9447000C94470044
:100020000C9447000C9487070C9447000C946608C6
:100030000C9447000C9447000C9447000C94470024
:100040000C9447000C9447000C9447000C94470014
:100050000C94470011241FBECFE5D4E0DEBFCDBF16
:1000600012E0A0E6B0E0E4EFFFE402C005900D92DC
:10007000A037B107D9F712E0A0E7B2E001C01D92A6
:10008000A63AB107E1F70E9426270C94F8270C94B2
:100090000000EF92FF920F931F937B018C0120E0F1
:1000A00030E040E05FE40E94F50388238CF0C80153
:1000B000B70120E030E040E05FE40E94C1010E940F
:1000C000B3049B01AC01205030404040504806C072
:1000D000C801B7010E94B3049B01AC01B901CA0178
:1000E0001F910F91FF90EF900895A0E0B0E0EBE733
:1000F000F0E00C949027DC012B01FA019C919230E6
:1001000008F439C1EB018881823008F433C194309E
:1001100069F4843009F02FC111969C91119789815F
:10012000981709F428C1A0EFB0E025C1843009F484
:1001300021C18230A9F4923009F01DC19A01AD01AC
:1001400088E0EA010990AE01E90109929E0181501F
:10015000C1F7E201898111969C918923818308C1AD
:10016000923009F407C112962D903C901397EB0141
:100170008A819B811496AD90BD90CD90DC901797AD
:10018000EC80FD800E811F819101281B390BB90184
:1001900037FF04C066277727621B730B6032710537
:1001A0000CF061C0121613066CF537014801062EDB
:1001B00004C096948794779467940A94D2F721E0C8
:1001C00030E040E050E004C0220F331F441F551FB1
:1001D0006A95D2F721503040404050402E213F21B7
:1001E00040235123211531054105510521F021E01E
:1001F00030E040E050E079018A01E628F72808293C
:1002000019293CC0232BD1F1260E371E350146019A
:10021000062E04C096948794779467940A94D2F734
:1002200021E030E040E050E004C0220F331F441FC3
:10023000551F6A95D2F721503040404050402A2146
:100240003B214C215D21211531054105510521F04E
:1002500021E030E040E050E059016A01A628B728CB
:10026000C828D9280BC0821593052CF01C01AA249C
:10027000BB24650103C0EE24FF24870111969C91E5
:10028000D20111968C91981709F445C0992339F041
:10029000A80197012A193B094C095D0906C0A6016E
:1002A00095012E193F09400B510B57FD08C01182D3
:1002B0003382228224833583468357831DC081E0A5
:1002C00081833382228288279927DC01821B930B4A
:1002D000A40BB50B84839583A683B7830DC0220F2F
:1002E000331F441F551F24833583468357838281E0
:1002F000938101979383828324813581468157813D
:10030000DA01C9010197A109B1098F5F9F4FAF4F72
:10031000BF4328F30BC0918333822282EA0CFB1C7B
:100320000C1D1D1DE482F5820683178383E0808304
:10033000248135814681578157FF1AC0C901AA27F8
:1003400097FDA095BA2F81709070A070B0705695EF
:10035000479537952795822B932BA42BB52B848318
:100360009583A683B7838281938101969383828349
:10037000DF0101C0D201CD01CDB7DEB7E2E10C94BF
:10038000AC27A0E2B0E0E7ECF1E00C949C27698395
:100390007A838B839C832D833E834F835887E9E048
:1003A000EE2EF12CEC0EFD1ECE010196B7010E943F
:1003B000A4068E010F5E1F4FCE010596B8010E9464
:1003C000A4068A8991E089278A8BC701B801AE010A
:1003D000475E5F4F0E9475000E94CF05A096E6E041
:1003E0000C94B827A0E2B0E0E8EFF1E00C949C2771
:1003F00069837A838B839C832D833E834F835887C5
:10040000F9E0EF2EF12CEC0EFD1ECE010196B701A6
:100410000E94A4068E010F5E1F4FCE010596B80103
:100420000E94A406C701B801AE01475E5F4F0E945B
:1004300075000E94CF05A096E6E00C94B827A0E2D4
:10044000B0E0E5E2F2E00C94902769837A838B8335
:100450009C832D833E834F835887CE010196BE0136
:10046000675F7F4F0E94A406CE010596BE016F5EB6
:100470007F4F0E94A4069985923088F08989823046
:10048000C8F0943019F4823051F404C0843029F457
:10049000923081F480EF90E0C6C0923049F420E0C1
:1004A0009A858A89981321E02A87CE010996BBC0D4
:1004B000823049F420E09A858A89981321E02A8BBA
:1004C000CE014196B0C02D843E844F8458886D88FB
:1004D0007E888F88988CEE24FF248701AA24BB2471
:1004E000650140E050E060E070E0E0E0F0E0C10174
:1004F00081709070892BE9F0E60CF71C081D191D1E
:100500009A01AB012A0D3B1D4C1D5D1D80E090E062
:10051000A0E0B0E0E614F7040805190520F481E036
:1005200090E0A0E0B0E0BA01A901480F591F6A1F8E
:100530007B1FAA0CBB1CCC1CDD1C97FE08C081E0F5
:1005400090E0A0E0B0E0A82AB92ACA2ADB2A3196B6
:10055000E032F10549F0660C771C881C991C569412
:10056000479437942794C3CFFA85EA892B893C892D
:100570008B859C85280F391F2E5F3F4F17C0CA01FE
:1005800081709070892B61F016950795F794E79428
:1005900080E090E0A0E0B0E8E82AF92A0A2B1B2BC3
:1005A00076956795579547952F5F3F4F77FDE7CF36
:1005B0000CC0440F551F661F771F17FD4160EE0CDE
:1005C000FF1C001F111F21503040403090E05907A0
:1005D00090E0690790E4790760F32B8F3C8FDB0193
:1005E000CA018F779070A070B07080349105A1051A
:1005F000B10561F447FD0AC0E114F10401051105DC
:1006000029F0405C5F4F6F4F7F4F40781A8EFE1786
:1006100011F081E08A8F4D8F5E8F6F8F78A383E01A
:10062000898FCE0149960E94CF05A096E2E10C94F5
:10063000AC27A8E1B0E0EFE1F3E00C9498276983E0
:100640007A838B839C832D833E834F835887B9E0C5
:10065000EB2EF12CEC0EFD1ECE010196B7010E948F
:10066000A4068E010F5E1F4FCE010596B8010E94B1
:10067000A4062985223008F47EC03989323010F46E
:10068000B8017CC08A859A8989278A87243011F02D
:10069000223031F4231709F06EC060EF70E06EC0B5
:1006A000343039F41D861E861F86188A1C861B86E8
:1006B00004C0323021F484E08987B7015FC02B8504
:1006C0003C858B899C89281B390B3C872B87ED84C3
:1006D000FE840F851889AD88BE88CF88D88CEA142F
:1006E000FB040C051D0540F4EE0CFF1C001F111F40
:1006F000215030403C872B8720E030E040E050E044
:1007000080E090E0A0E0B0E460E070E0EA14FB0478
:100710000C051D0540F0282B392B4A2B5B2BEA18C2
:10072000FB080C091D09B695A79597958795EE0CC2
:10073000FF1C001F111F6F5F7F4F6F31710531F775
:10074000DA01C9018F779070A070B0708034910584
:10075000A105B10561F427FD0AC0E114F10401050A
:10076000110529F0205C3F4F4F4F5F4F20782D87B8
:100770003E874F87588BBE01675F7F4FCB010E943A
:10078000CF056896EAE00C94B427A8E1B0E0EBEC62
:10079000F3E00C949C2769837A838B839C832D835D
:1007A0003E834F83588789E0E82EF12CEC0EFD1E26
:1007B000CE010196B7010E94A4068E010F5E1F4F65
:1007C000CE010596B8010E94A4068985823040F0CA
:1007D0008989823028F0C701B8010E941C0701C036
:1007E0008FEF6896E6E00C94B827A8E1B0E0EBEF55
:1007F000F3E00C949C2769837A838B839C832D83FD
:100800003E834F83588789E0E82EF12CEC0EFD1EC5
:10081000CE010196B7010E94A4068E010F5E1F4F04
:10082000CE010596B8010E94A4068985823040F069
:100830008989823028F0C701B8010E941C0701C0D5
:100840008FEF6896E6E00C94B827A8E1B0E0EBE201
:10085000F4E00C949C2769837A838B839C832D839B
:100860003E834F83588789E0E82EF12CEC0EFD1E65
:10087000CE010196B7010E94A4068E010F5E1F4FA4
:10088000CE010596B8010E94A4068985823040F009
:100890008989823028F0C701B8010E941C0701C075
:1008A00081E06896E6E00C94B827A8E0B0E0EBE5BC
:1008B000F4E00C9499279B01AC0183E08983DA0171
:1008C000C9018827B7FD83959927AA27BB27B82E8A
:1008D000211531054105510519F482E089833AC09B
:1008E0008823A9F0203080E0380780E0480780E8BE
:1008F000580729F460E070E080E09FEC30C0EE24FF
:10090000FF248701E21AF30A040B150B02C07901D8
:100910008A018EE1C82ED12CDC82CB82ED82FE8250
:100920000F831887C801B7010E9480050197181628
:10093000190684F4082E04C0EE0CFF1C001F111FC2
:100940000A94D2F7ED82FE820F831887C81AD90A5B
:10095000DC82CB82BA82CE0101960E94CF05289616
:10096000E9E00C94B527ACE0B0E0E9EBF4E00C94DE
:10097000A02769837A838B839C83CE010196BE0175
:100980006B5F7F4F0E94A4068D81823061F18230BF
:1009900050F1843021F48E81882351F12EC02F81B3
:1009A000388537FD20C06E812F3131051CF066235C
:1009B000F9F023C08EE190E0821B930B29853A85E4
:1009C0004B855C8504C056954795379527958A9544
:1009D000D2F76623B1F050954095309521953F4F61
:1009E0004F4F5F4F0EC020E030E040E050E009C0C4
:1009F0002FEF3FEF4FEF5FE704C020E030E040E033
:100A000050E8B901CA012C96E2E00C94BC27A8E09A
:100A1000B0E0EDE0F5E00C9498277B018C016115C6
:100A200071058105910519F482E0898360C083E036
:100A300089838EE1C82ED12CDC82CB82ED82FE82AE
:100A40000F831887C801B7010E948005FC01319708
:100A5000F7FF3BC0222733272E1B3F0B57016801AE
:100A6000022E04C0D694C794B794A7940A94D2F7E0
:100A700040E050E060E070E081E090E0A0E0B0E0B5
:100A800004C0880F991FAA1FBB1F2A95D2F7019790
:100A9000A109B1098E219F21A023B1230097A105AF
:100AA000B10521F041E050E060E070E04A295B29A7
:100AB0006C297D294D835E836F8378878EE190E07A
:100AC0008E1B9F0B9C838B8312C0309781F00E2E60
:100AD00004C0EE0CFF1C001F111F0A94D2F7ED8218
:100AE000FE820F831887CE1ADF0ADC82CB821A823D
:100AF000CE0101960E94CF052896EAE00C94B42717
:100B0000EF92FF920F931F937B018C0180E0E81618
:100B100080E0F80681E0080780E0180788F48FEF8E
:100B2000E816F1040105110531F028F088E090E0A5
:100B3000A0E0B0E017C080E090E0A0E0B0E012C01C
:100B400080E0E81680E0F80680E0080781E01807FA
:100B500028F088E190E0A0E0B0E004C080E190E0FF
:100B6000A0E0B0E020E230E040E050E0281B390B8C
:100B70004A0B5B0B04C016950795F794E7948A958A
:100B8000D2F7F701E850FF4F8081281B3109410956
:100B90005109C9011F910F91FF90EF900895DF92C5
:100BA000EF92FF920F931F93FC01E480F580068182
:100BB0001781D1808081823048F480E090E0A0E10C
:100BC000B0E0E82AF92A0A2B1B2BA5C0843009F4CF
:100BD0009FC0823021F4EE24FF24870105C0E11478
:100BE000F1040105110519F4E0E0F0E096C062811E
:100BF00073819FEF623879070CF05BC022E83FEF0A
:100C0000261B370B2A3131052CF020E030E040E084
:100C100050E02AC0B801A701022E04C0769567955E
:100C2000579547950A94D2F781E090E0A0E0B0E0B4
:100C300004C0880F991FAA1FBB1F2A95D2F70197DE
:100C4000A109B1098E219F21A023B1230097A105FD
:100C5000B10521F081E090E0A0E0B0E09A01AB01A5
:100C6000282B392B4A2B5B2BDA01C9018F77907027
:100C7000A070B07080349105A105B10539F427FF4B
:100C800009C0205C3F4F4F4F5F4F04C0215C3F4F76
:100C90004F4F5F4FE0E0F0E02030A0E03A07A0E0E7
:100CA0004A07A0E45A0710F0E1E0F0E079018A0178
:100CB00027C06038710564F5FB01E158FF4FD8018A
:100CC000C7018F779070A070B07080349105A10536
:100CD000B10539F4E7FE0DC080E490E0A0E0B0E09B
:100CE00004C08FE390E0A0E0B0E0E80EF91E0A1F18
:100CF0001B1F17FF05C016950795F794E7943196CB
:100D000087E016950795F794E7948A95D1F705C083
:100D1000EE24FF248701EFEFF0E06E2F6795662742
:100D20006795902F9F77D794DD24D7948E2F869543
:100D3000492F462B582F5D29B701CA011F910F91EA
:100D4000FF90EF90DF900895FC01DB01408151811D
:100D50002281622F6F7770E0221F2227221F93814A
:100D6000892F880F822B282F30E0991F9927991FF0
:100D700011969C93119721153105A9F5411551053F
:100D80006105710511F482E037C082E89FEF139688
:100D90009C938E9312979A01AB0167E0220F331F49
:100DA000441F551F6A95D1F783E08C930DC0220F25
:100DB000331F441F551F12968D919C9113970197D5
:100DC00013969C938E931297203080E0380780E032
:100DD000480780E4580758F314962D933D934D939C
:100DE0005C93179708952F3F310579F4411551050C
:100DF0006105710519F484E08C93089564FF03C0C4
:100E000081E08C9312C01C9210C02F573040139673
:100E10003C932E93129783E08C9387E0440F551FE9
:100E2000661F771F8A95D1F7706414964D935D9372
:100E30006D937C93179708951F93DC01FB019C91A0
:100E4000923008F447C08081823008F443C0943067
:100E500051F411961C91843099F58181682F70E0CE
:100E6000611B71093FC0843021F0923031F482302F
:100E7000B9F18181882389F12DC011961C911197B8
:100E80008230F1F081811817D9F412962D913C919E
:100E90001397828193818217930794F0281739075B
:100EA000BCF014968D919D910D90BC91A02D248144
:100EB000358146815781281739074A075B0718F49F
:100EC000112341F00AC082179307A407B50740F425
:100ED000112319F061E070E005C06FEF7FEF02C0F1
:100EE00060E070E0CB011F910895DF93CF9300D0B5
:100EF000CDB7DEB79A83898389819A8190937102F5
:100F0000809370020F900F90CF91DF9108951F9200
:100F10000F920FB60F9211242F933F934F935F932D
:100F20006F937F938F939F93AF93BF93EF93FF93B1
:100F3000DF93CF93CDB7DEB78091700290917102AD
:100F4000009729F0E0917002F09171020995CF911C
:100F5000DF91FF91EF91BF91AF919F918F917F9121
:100F60006F915F914F913F912F910F900FBE0F9016
:100F70001F901895DF93CF93CDB7DEB7AFE4B0E005
:100F8000EFE4F0E0808188608C93AFE4B0E0EFE4C0
:100F9000F0E0808184608C93AFE4B0E0EFE4F0E0B7
:100FA00080818E7F8C93AFE4B0E0EFE4F0E080814D
:100FB0008D7F8C93AEE4B0E0EEE4F0E08081877F3B
:100FC0008C93AEE4B0E0EEE4F0E080818F7E8C9311
:100FD000AFE5B0E0EFE5F0E0808180688C93A9E5B3
:100FE000B0E0E9E5F0E0808184608C9380E090E0FF
:100FF0000E94FD07CF91DF910895DF93CF9300D03A
:10100000CDB7DEB79A838983ECE4F0E089819A81D9
:10101000918380830F900F90CF91DF910895DF939C
:10102000CF93CDB7DEB7AEE4B0E0EEE4F0E0808180
:10103000887F8C93CF91DF910895DF93CF93CDB7C5
:10104000DEB7AEE4B0E0EEE4F0E08081982F987F68
:101050008091F801892B8C93CF91DF910895DF93D4
:10106000CF93CDB7DEB70E941D08CF91DF910895D1
:10107000DF93CF93CDB7DEB7A9E5B0E0E9E5F0E0C7
:1010800080818B7F8C93CF91DF910895DF93CF93F5
:10109000CDB7DEB7A9E5B0E0E9E5F0E08081846096
:1010A0008C93CF91DF910895DF93CF9300D0CDB78C
:1010B000DEB79A83898389819A81909373028093A2
:1010C00072020F900F90CF91DF9108951F920F92AF
:1010D0000FB60F9211242F933F934F935F936F930B
:1010E0007F938F939F93AF93BF93EF93FF93DF9380
:1010F000CF93CDB7DEB780917202909173020097C3
:1011000029F0E0917202F09173020995CF91DF917D
:10111000FF91EF91BF91AF919F918F917F916F91CF
:101120005F914F913F912F910F900FBE0F901F90A5
:101130001895DF93CF93CDB7DEB7A3E5B0E0E3E535
:10114000F0E0808180648C93A3E5B0E0E3E5F0E01B
:10115000808188608C93A3E5B0E0E3E5F0E08081D6
:10116000282F2F7C8091FA01882F90E0829592950C
:10117000907F9827807F9827822B8C938091FA010B
:10118000882329F081E063E042E00E94AC09A3E5F6
:10119000B0E0E3E5F0E08081982F987F8091F9013D
:1011A000892B8C9380E00E94D808CF91DF9108951D
:1011B000DF93CF930F92CDB7DEB78983E2E5F0E0FE
:1011C000898180830F90CF91DF910895DF93CF9332
:1011D000CDB7DEB7A3E5B0E0E3E5F0E08081887F3E
:1011E0008C93CF91DF910895DF93CF93CDB7DEB786
:1011F000A3E5B0E0E3E5F0E08081982F987F80914F
:10120000F901892B8C93CF91DF910895DF93CF93D0
:101210000F92CDB7DEB78983ECE5F0E0898180835A
:101220000F90CF91DF910895DF93CF930F92CDB7B9
:10123000DEB78983ECE5F0E08981482F50E0CA01F0
:101240009C01220F331FC9019695982F88279795E7
:101250008795821B930B840F951F24E630E0B9011C
:101260000E945A27CB0180830F90CF91DF91089580
:10127000DF93CF93CDB7DEB7A9E5B0E0E9E5F0E0C5
:10128000808181608C93CF91DF910895DF93CF931C
:101290000F92CDB7DEB7198257C08981282F30E071
:1012A000C901880F991F820F931FFC01E450FE4F64
:1012B00080818830E9F48981282F30E0C901880FC6
:1012C000991F820F931FFC01E550FE4F40818981D9
:1012D000282F30E0C901880F991F820F931FFC014E
:1012E000E350FE4F9081842F692F0E94B40D29C0D6
:1012F0008981282F30E0C901880F991F820F931F21
:10130000FC01E550FE4F50818981282F30E0C90152
:10131000880F991F820F931FFC01E450FE4F4081FC
:101320008981282F30E0C901880F991F820F931FF0
:10133000FC01E350FE4F9081852F642F492F0E94BE
:10134000AC0989818F5F89838981882309F4A5CFBE
:101350000F90CF91DF910895DF93CF9300D000D00D
:101360000F92CDB7DEB789836A834B83898184303E
:1013700008F0D8C18A81883008F0D4C18981282F2B
:1013800030E03D832C838C819D818130910509F46F
:1013900084C02C813D81223031052CF48C819D81CB
:1013A000009771F0BFC12C813D812230310509F4D5
:1013B000E1C08C819D818330910509F448C1B2C19F
:1013C0008B81882341F5AAE3B0E0EAE3F0E0808175
:1013D000482F8A81282F30E081E090E002C0880FFA
:1013E000991F2A95E2F7809584238C93ABE3B0E0B4
:1013F000EBE3F0E08081482F8A81282F30E081E004
:1014000090E0022E02C0880F991F0A94E2F780959F
:1014100084238C9387C18B81813039F5AAE3B0E0B6
:10142000EAE3F0E08081482F8A81282F30E081E0D4
:1014300090E002C0880F991F2A95E2F780958423D7
:101440008C93ABE3B0E0EBE3F0E08081482F8A813E
:10145000282F30E081E090E0022E02C0880F991F13
:101460000A94E2F7842B8C935DC18B81823009F062
:1014700059C1AAE3B0E0EAE3F0E08081482F8A8115
:10148000282F30E081E090E0022E02C0880F991FE3
:101490000A94E2F7842B8C9345C18B81882341F514
:1014A000A7E3B0E0E7E3F0E08081482F8A81282FAE
:1014B00030E081E090E002C0880F991F2A95E2F7A2
:1014C000809584238C93A8E3B0E0E8E3F0E080818A
:1014D000482F8A81282F30E081E090E0022E02C060
:1014E000880F991F0A94E2F7809584238C931AC180
:1014F0008B81813039F5A7E3B0E0E7E3F0E080814C
:10150000482F8A81282F30E081E090E002C0880FC8
:10151000991F2A95E2F7809584238C93A8E3B0E085
:10152000E8E3F0E08081482F8A81282F30E081E0D5
:1015300090E0022E02C0880F991F0A94E2F7842BD4
:101540008C93F0C08B81823009F0ECC0A7E3B0E04F
:10155000E7E3F0E08081482F8A81282F30E081E0A6
:1015600090E0022E02C0880F991F0A94E2F7842BA4
:101570008C93D8C08B81882341F5A4E3B0E0E4E3E9
:10158000F0E08081482F8A81282F30E081E090E0D0
:1015900002C0880F991F2A95E2F7809584238C93C7
:1015A000A5E3B0E0E5E3F0E08081482F8A81282FB1
:1015B00030E081E090E0022E02C0880F991F0A946B
:1015C000E2F7809584238C93ADC08B81813039F50F
:1015D000A4E3B0E0E4E3F0E08081482F8A81282F83
:1015E00030E081E090E002C0880F991F2A95E2F771
:1015F000809584238C93A5E3B0E0E5E3F0E080815F
:10160000482F8A81282F30E081E090E0022E02C02E
:10161000880F991F0A94E2F7842B8C9383C08B81E7
:10162000823009F07FC0A4E3B0E0E4E3F0E0808121
:10163000482F8A81282F30E081E090E0022E02C0FE
:10164000880F991F0A94E2F7842B8C936BC08B81CF
:10165000882341F5A1E3B0E0E1E3F0E08081482F89
:101660008A81282F30E081E090E002C0880F991F26
:101670002A95E2F7809584238C93A2E3B0E0E2E31D
:10168000F0E08081482F8A81282F30E081E090E0CF
:10169000022E02C0880F991F0A94E2F780958423D6
:1016A0008C9340C08B81813039F5A1E3B0E0E1E358
:1016B000F0E08081482F8A81282F30E081E090E09F
:1016C00002C0880F991F2A95E2F7809584238C9396
:1016D000A2E3B0E0E2E3F0E08081482F8A81282F86
:1016E00030E081E090E0022E02C0880F991F0A943A
:1016F000E2F7842B8C9316C08B81823099F4A1E39E
:10170000B0E0E1E3F0E08081482F8A81282F30E0CB
:1017100081E090E0022E02C0880F991F0A94E2F740
:10172000842B8C930F900F900F900F900F90CF9170
:10173000DF910895DF93CF9300D000D00F92CDB703
:10174000DEB78A836B8319828A81843008F084C073
:101750008B81883008F080C08A81282F30E03D835B
:101760002C834C815D814130510579F18C819D81C3
:101770008230910534F42C813D812115310569F0C9
:101780006BC04C815D8142305105B9F18C819D81E6
:101790008330910509F449C05FC0E9E3F0E080813E
:1017A000282F30E08B81882F90E0A90102C0559549
:1017B00047958A95E2F7CA0181709070882319F0E5
:1017C00081E0898349C0198247C0E6E3F0E0808167
:1017D000282F30E08B81882F90E0A90102C0559519
:1017E00047958A95E2F7CA0181709070882319F0B5
:1017F00081E0898331C019822FC0E3E3F0E080816A
:10180000282F30E08B81882F90E0A90102C05595E8
:1018100047958A95E2F7CA0181709070882319F084
:1018200081E0898319C0198217C0E0E3F0E080816C
:10183000282F30E08B81882F90E0A90102C05595B8
:1018400047958A95E2F7CA0181709070882319F054
:1018500081E0898301C0198289810F900F900F90D8
:101860000F900F90CF91DF910895DF93CF9300D029
:1018700000D00F92CDB7DEB789836A834B8389810D
:10188000843008F0E4C08A81883008F0E0C08981A3
:10189000282F30E03D832C838C819D818130910500
:1018A00009F447C02C813D81223031052CF48C8114
:1018B0009D81009771F0CBC02C813D812230310594
:1018C00009F467C08C819D818330910509F491C032
:1018D000BEC08B818130A1F4ABE3B0E0EBE3F0E07C
:1018E0008081482F8A81282F30E081E090E0022E0D
:1018F00002C0880F991F0A94E2F7842B8C93A7C02B
:101900008B81882309F0A3C0ABE3B0E0EBE3F0E008
:101910008081482F8A81282F30E081E090E0022EDC
:1019200002C0880F991F0A94E2F7809584238C9354
:101930008EC08B818130A1F4A8E3B0E0E8E3F0E051
:101940008081482F8A81282F30E081E090E0022EAC
:1019500002C0880F991F0A94E2F7842B8C9377C0FA
:101960008B81882309F073C0A8E3B0E0E8E3F0E0DE
:101970008081482F8A81282F30E081E090E0022E7C
:1019800002C0880F991F0A94E2F7809584238C93F4
:101990005EC08B818130A1F4A5E3B0E0E5E3F0E027
:1019A0008081482F8A81282F30E081E090E0022E4C
:1019B00002C0880F991F0A94E2F7842B8C9347C0CA
:1019C0008B81882309F043C0A5E3B0E0E5E3F0E0B4
:1019D0008081482F8A81282F30E081E090E0022E1C
:1019E00002C0880F991F0A94E2F7809584238C9394
:1019F0002EC08B818130A1F4A2E3B0E0E2E3F0E0FD
:101A00008081482F8A81282F30E081E090E0022EEB
:101A100002C0880F991F0A94E2F7842B8C9317C099
:101A20008B818823A1F4A2E3B0E0E2E3F0E08081BF
:101A3000482F8A81282F30E081E090E0022E02C0FA
:101A4000880F991F0A94E2F7809584238C930F9056
:101A50000F900F900F900F90CF91DF910895DF932B
:101A6000CF9300D000D0CDB7DEB789836A83898158
:101A7000843008F072C08A81883008F06EC0898195
:101A8000282F30E03C832B838B819C818130910512
:101A900049F12B813C81223031052CF48B819C81D2
:101AA000009761F05AC02B813C812230310571F1E1
:101AB0008B819C8183309105E9F14FC0ABE3B0E0AD
:101AC000EBE3F0E08081482F8A81282F30E081E02D
:101AD00090E0022E02C0880F991F0A94E2F7842733
:101AE0008C933BC0A8E3B0E0E8E3F0E08081482FAE
:101AF0008A81282F30E081E090E0022E02C0880F1A
:101B0000991F0A94E2F784278C9327C0A5E3B0E0DD
:101B1000E5E3F0E08081482F8A81282F30E081E0E2
:101B200090E0022E02C0880F991F0A94E2F78427E2
:101B30008C9313C0A2E3B0E0E2E3F0E08081482F91
:101B40008A81282F30E081E090E0022E02C0880FC9
:101B5000991F0A94E2F784278C930F900F900F90AF
:101B60000F90CF91DF910895DF93CF9300D000D0F5
:101B7000CDB7DEB789836A838981843008F096C047
:101B80008981282F30E03C832B838B819C8181309D
:101B90009105A9F12B813C81223031052CF48B81F8
:101BA0009C81009771F082C02B813C8122303105ED
:101BB00009F443C08B819C818330910509F45AC09C
:101BC00075C08A81882339F4EAE3F0E01082EBE300
:101BD000F0E010826BC08A81813041F4EAE3F0E0EA
:101BE0001082EBE3F0E08FEF808360C08A818F3F4B
:101BF00009F05CC0EAE3F0E08FEF808357C08A8190
:101C0000882339F4E7E3F0E01082E8E3F0E01082A3
:101C10004DC08A81813041F4E7E3F0E01082E8E3CF
:101C2000F0E08FEF808342C08A818F3F09F03EC091
:101C3000E7E3F0E08FEF808339C08A81882339F4AD
:101C4000E4E3F0E01082E5E3F0E010822FC08A8147
:101C5000813041F4E4E3F0E01082E5E3F0E08FEF5F
:101C6000808324C08A818F3F09F5E4E3F0E08FEFA1
:101C700080831CC08A81882339F4E1E3F0E010827C
:101C8000E2E3F0E0108212C08A81813041F4E1E3A6
:101C9000F0E01082E2E3F0E08FEF808307C08A81FA
:101CA0008F3F21F4E1E3F0E08FEF80830F900F90FE
:101CB0000F900F90CF91DF910895DF93CF9300D0D5
:101CC00000D0CDB7DEB78A8319828A81843090F53F
:101CD0008A81282F30E03C832B838B819C8181304B
:101CE0009105D1F02B813C81223031052CF48B8180
:101CF0009C81009761F01EC02B813C812230310510
:101D000081F08B819C818330910581F013C0E9E3E0
:101D1000F0E0808189830EC0E6E3F0E08081898372
:101D200009C0E3E3F0E08081898304C0E0E3F0E0F0
:101D30008081898389810F900F900F900F90CF91B0
:101D4000DF910895DF93CF9300D000D0CDB7DEB7F9
:101D500089836A838981843090F58981282F30E0D6
:101D60003C832B838B819C8181309105D1F02B8129
:101D70003C81223031052CF48B819C81009761F0ED
:101D80001EC02B813C812230310581F08B819C81EA
:101D90008330910581F013C0EBE3F0E08A8180830A
:101DA0000EC0E8E3F0E08A81808309C0E5E3F0E05B
:101DB0008A81808304C0E2E3F0E08A8180830F900F
:101DC0000F900F900F90CF91DF910895DF93CF93F5
:101DD00000D00F92CDB7DEB789838981843008F0B7
:101DE0003EC08981282F30E03B832A838A819B81F2
:101DF00081309105E9F02A813B81223031052CF4B4
:101E00008A819B81009761F02AC02A813B81223020
:101E10003105B1F08A819B8183309105C9F01FC0E3
:101E2000ABE3B0E0EBE3F0E0808180958C9317C0EA
:101E3000A8E3B0E0E8E3F0E0808180958C930FC0E8
:101E4000A5E3B0E0E5E3F0E0808180958C9307C0E6
:101E5000A2E3B0E0E2E3F0E0808180958C930F9004
:101E60000F900F90CF91DF9108951F920F920FB6B0
:101E70000F9211242F933F934F935F936F937F9310
:101E80008F939F93AF93BF93EF93FF93DF93CF9382
:101E9000CDB7DEB78091740290917502009729F05A
:101EA000E0917402F09175020995CF91DF91FF9155
:101EB000EF91BF91AF919F918F917F916F915F91C2
:101EC0004F913F912F910F900FBE0F901F9018953B
:101ED0001F920F920FB60F9211242F933F934F939F
:101EE0005F936F937F938F939F93AF93BF93EF9382
:101EF000FF93DF93CF93CDB7DEB7809176029091B9
:101F00007702009729F0E0917602F0917702099527
:101F1000CF91DF91FF91EF91BF91AF919F918F9101
:101F20007F916F915F914F913F912F910F900FBED5
:101F30000F901F9018951F920F920FB60F921124B9
:101F40002F933F934F935F936F937F938F939F93C1
:101F5000AF93BF93EF93FF93DF93CF93CDB7DEB7EC
:101F60008091780290917902009729F0E0917802AF
:101F7000F09179020995CF91DF91FF91EF91BF9197
:101F8000AF919F918F917F916F915F914F913F9111
:101F90002F910F900FBE0F901F901895DF93CF9346
:101FA00000D0CDB7DEB79A83898389819A819093D7
:101FB0007502809374020F900F90CF91DF91089576
:101FC000DF93CF9300D0CDB7DEB79A838983898121
:101FD0009A8190937702809376020F900F90CF9121
:101FE000DF910895DF93CF9300D0CDB7DEB79A830A
:101FF000898389819A8190937902809378020F90E6
:102000000F90CF91DF910895DF93CF9300D0CDB79C
:10201000DEB789836A8383E062E04A810E94AC096B
:10202000A5E5B0E0E5E5F0E08081982F9C7F89810F
:10203000892B8C93ABE5B0E0EBE5F0E08081806428
:102040008C930F900F90CF91DF910895DF93CF93F2
:1020500000D0CDB7DEB789836A8383E063E04A812D
:102060000E94AC09A5E5B0E0E5E5F0E08081282F0D
:10207000237F8981882F90E0880F991F880F991FEF
:10208000822B8C93ABE5B0E0EBE5F0E080818068DB
:102090008C930F900F90CF91DF910895DF93CF93A2
:1020A00000D0CDB7DEB789836A8381E062E04A81E0
:1020B0000E94AC098981823041F4A4E5B0E0E4E5F6
:1020C000F0E080818F7B8C930AC08981833039F462
:1020D000A4E5B0E0E4E5F0E0808180648C93ABE5BA
:1020E000B0E0EBE5F0E0808180628C930F900F9080
:1020F000CF91DF910895DF93CF93CDB7DEB7ABE5F6
:10210000B0E0EBE5F0E080818F7B8C93CF91DF91A5
:102110000895DF93CF93CDB7DEB7ABE5B0E0EBE545
:10212000F0E080818F778C93CF91DF910895DF93DA
:10213000CF93CDB7DEB7ABE5B0E0EBE5F0E0808163
:102140008F7D8C93CF91DF910895DF93CF930F9282
:10215000CDB7DEB78983898187708983A7E2B0E034
:10216000E7E2F0E08081982F907E8981892B8C9323
:10217000A6E2B0E0E6E2F0E0808180648C930F900C
:10218000CF91DF910895DF93CF93CDB7DEB7A7E26C
:10219000B0E0E7E2F0E08081282F2F738091FF010B
:1021A000882F90E0002496958795079496958795BB
:1021B0000794982F802D822B8C9380910002882386
:1021C00041F4A7E2B0E0E7E2F0E080818F7D8C93FC
:1021D0000BC080910002813039F4A7E2B0E0E7E261
:1021E000F0E0808180628C93A6E2B0E0E6E2F0E06D
:1021F000808180688C938091FE01882399F1809181
:10220000FE01813079F4A6E2B0E0E6E2F0E0808100
:1022100080628C93A0E5B0E0E0E5F0E080818F7013
:102220008C9320C08091FE018230E1F4A6E2B0E000
:10223000E6E2F0E0808180628C93A0E5B0E0E0E52A
:10224000F0E08081282F2F7080910202882F90E08B
:10225000880F991F82959295907F9827807F982765
:10226000822B8C93A6E2B0E0E6E2F0E08081982F2A
:10227000987F809101028770892B8C93A6E2B0E051
:10228000E6E2F0E08081877F8C93CF91DF91089523
:10229000DF93CF930F92CDB7DEB7898389810E94F8
:1022A000A510E6E2F0E08081882F90E080719070C8
:1022B0000097B9F30E947C1190937B0280937A027D
:1022C000A6E2B0E0E6E2F0E0808180618C9380914C
:1022D0007A0290917B020F90CF91DF910895DF9366
:1022E000CF930F92CDB7DEB7898389810E94A51065
:1022F0000F90CF91DF910895DF93CF9300D0CDB7AA
:10230000DEB71A821982809100028823B9F4E4E2D0
:10231000F0E08081882F90E09A838983E5E2F0E005
:102320008081882F90E083709070382F22278981D8
:102330009A81822B932B9A83898320C080910002FB
:102340008130E1F4E4E2F0E0808182958695869523
:102350008370882F90E090709A838983E5E2F0E0A3
:102360008081882F90E09C01220F331F220F331FA2
:1023700089819A81822B932B9A83898389819A817F
:102380000F900F90CF91DF910895DF93CF930F922D
:10239000CDB7DEB7898380E0698140E00E94AC0957
:1023A0000F90CF91DF910895DF93CF9300D00F92DC
:1023B000CDB7DEB789830F900F900F90CF91DF914B
:1023C0000895DF93CF9300D0CDB7DEB789836A83BA
:1023D00089816A8142E00E94AC090F900F90CF91F1
:1023E000DF910895DF93CF9300D00F92CDB7DEB782
:1023F00089836A834B838B81882331F489816A8145
:1024000040E00E94350C08C08B81813029F489811D
:102410006A8141E00E94350C0F900F900F90CF9190
:10242000DF910895DF93CF9300D00F92CDB7DEB741
:1024300089836A834B838B81882331F489816A8104
:1024400041E00E94350C08C08B81813029F48981DC
:102450006A8140E00E94350C0F900F900F90CF9151
:10246000DF910895DF93CF9300D0CDB7DEB7898396
:102470006A8389816A810E942F0D0F900F90CF91FE
:10248000DF910895DF93CF93CDB7DEB780E063E0AF
:1024900042E00E94AC0980E062E042E00E94AC09A8
:1024A00081E060E042E00E94AC0981E061E042E04E
:1024B0000E94AC0981E062E042E00E94AC0981E048
:1024C00064E042E00E94AC0982E00E94731288E25C
:1024D0000E9473128CE00E94731281E00E947312BA
:1024E000CF91DF9108950F931F93DF93CF93CDB7D3
:1024F000DEB7C456D0400FB6F894DEBF0FBECDBFD6
:10250000FE01EC59FF4F808380E063E040E00E94D1
:10251000350CFE01E15AFF4F80E090E0A0E8BFE3F8
:1025200080839183A283B3838E01055A1F4FFE01DE
:10253000E15AFF4F608171818281938120E030E018
:102540004AE755E40E941F02DC01CB01F8018083B9
:102550009183A283B383FE01E55AFF4F60817181AD
:102560008281938120E030E040E85FE30E9425040F
:10257000882344F4FE01E75AFF4F81E090E0918305
:10258000808364C0FE01E55AFF4F608171818281C2
:10259000938120E03FEF4FE757E40E94C5031816F0
:1025A0000CF043C0FE01E15AFF4F608171818281CE
:1025B000938120E030E040E251E40E941F02DC0100
:1025C000CB018E01075A1F4FBC01CD010E9449006B
:1025D000DC01CB01F801918380831FC0FE01E95A21
:1025E000FF4F80E991E091838083FE01E95AFF4F1C
:1025F000808191810197F1F7FE01E95AFF4F9183A4
:102600008083DE01A75ABF4FFE01E75AFF4F80814A
:102610009181019711969C938E93FE01E75AFF4F8B
:10262000808191810097D1F627C08E01075A1F4FF4
:10263000FE01E55AFF4F60817181828193810E9482
:102640004900DC01CB01F80191838083DE01AB5AA4
:10265000BF4FFE01E75AFF4F808191818D939C937C
:10266000FE01EB5AFF4F808191810197F1F7FE0146
:10267000EB5AFF4F9183808380E062E041E00E944B
:10268000350CFE01EF5AFF4F80E090E0A0E8BFE379
:1026900080839183A283B3838E01035B1F4FFE016E
:1026A000EF5AFF4F608171818281938120E030E099
:1026B0004AE755E40E941F02DC01CB01F801808348
:1026C0009183A283B383FE01E35BFF4F608171813D
:1026D0008281938120E030E040E85FE30E9425049E
:1026E000882344F4FE01E55BFF4F81E090E0918395
:1026F000808364C0FE01E35BFF4F60817181828152
:10270000938120E03FEF4FE757E40E94C50318167E
:102710000CF043C0FE01EF5AFF4F6081718182814E
:10272000938120E030E040E251E40E941F02DC018E
:10273000CB018E01055B1F4FBC01CD010E944900FA
:10274000DC01CB01F801918380831FC0FE01E75BB0
:10275000FF4F80E991E091838083FE01E75BFF4FAB
:10276000808191810197F1F7FE01E75BFF4F918333
:102770008083DE01A55BBF4FFE01E55BFF4F8081DB
:102780009181019711969C938E93FE01E55BFF4F1B
:10279000808191810097D1F627C08E01055B1F4F84
:1027A000FE01E35BFF4F60817181828193810E9412
:1027B0004900DC01CB01F80191838083DE01A95B34
:1027C000BF4FFE01E55BFF4F808191818D939C930C
:1027D000FE01E95BFF4F808191810197F1F7FE01D6
:1027E000E95BFF4F91838083DE01AD59BF4FFE014E
:1027F000EC59FF4F808182958F708C93FE01ED59CB
:10280000FF4F8081982F917081E060E0492F0E94F6
:10281000350CFE01ED59FF4F80818695982F917000
:1028200081E061E0492F0E94350CFE01ED59FF4F18
:10283000808186958695982F917081E062E0492F7E
:102840000E94350CFE01ED59FF4F808186958695DB
:102850008695982F917081E064E0492F0E94350C95
:10286000FE01ED5BFF4F80E090E0A0E8BFE38083D6
:102870009183A283B3838E01015C1F4FFE01ED5B48
:10288000FF4F608171818281938120E030E04AE7CF
:1028900055E40E941F02DC01CB01F8018083918383
:1028A000A283B383FE01FF9660817181828193814F
:1028B00020E030E040E85FE30E94250488232CF408
:1028C00081E090E09EAF8DAF46C0FE01FF96608133
:1028D00071818281938120E03FEF4FE757E40E94AE
:1028E000C503181664F5FE01ED5BFF4F6081718131
:1028F0008281938120E030E040E251E40E941F0297
:10290000DC01CB01BC01CD010E944900DC01CB01FF
:102910009EAF8DAF0FC080E991E09CAF8BAF8BADC8
:102920009CAD0197F1F79CAF8BAF8DAD9EAD01973C
:102930009EAF8DAF8DAD9EAD009769F716C0FE01BD
:10294000FF9660817181828193810E944900DC0140
:10295000CB019EAF8DAF8DAD9EAD9AAF89AF89ADE6
:102960009AAD0197F1F79AAF89AF80E062E040E05D
:102970000E94350C80E090E0A0E8BFE38DAB9EABF9
:10298000AFABB8AF6DA97EA98FA998AD20E030E0BC
:102990004AE755E40E941F02DC01CB0189AB9AABE8
:1029A000ABABBCAB69A97AA98BA99CA920E030E0AC
:1029B00040E85FE30E94250488232CF481E090E046
:1029C00098AB8FA73FC069A97AA98BA99CA920E0E1
:1029D0003FEF4FE757E40E94C50318164CF56DA969
:1029E0007EA98FA998AD20E030E040E251E40E943A
:1029F0001F02DC01CB01BC01CD010E944900DC01BA
:102A0000CB0198AB8FA70FC080E991E09EA78DA75F
:102A10008DA59EA50197F1F79EA78DA78FA598A9D3
:102A2000019798AB8FA78FA598A9009769F714C055
:102A300069A97AA98BA99CA90E944900DC01CB0154
:102A400098AB8FA78FA598A99CA78BA78BA59CA5B2
:102A50000197F1F79CA78BA780E062E041E00E941C
:102A6000350C80E090E0A0E8BFE38FA398A7A9A76A
:102A7000BAA76FA178A589A59AA520E030E04AE71A
:102A800055E40E941F02DC01CB018BA39CA3ADA3E4
:102A9000BEA36BA17CA18DA19EA120E030E040E807
:102AA0005FE30E94250488232CF481E090E09AA340
:102AB00089A33FC06BA17CA18DA19EA120E03FEF27
:102AC0004FE757E40E94C50318164CF56FA178A58F
:102AD00089A59AA520E030E040E251E40E941F025F
:102AE000DC01CB01BC01CD010E944900DC01CB011E
:102AF0009AA389A30FC080E991E098A38F8F8F8D4F
:102B000098A10197F1F798A38F8F89A19AA10197B6
:102B10009AA389A389A19AA1009769F714C06BA110
:102B20007CA18DA19EA10E944900DC01CB019AA34A
:102B300089A389A19AA19E8F8D8F8D8D9E8D0197DE
:102B4000F1F79E8F8D8FDE01AD59BF4FFE01EC591D
:102B5000FF4F80818F708C93FE01ED59FF4F808174
:102B6000982F917081E060E0492F0E94350CFE01A2
:102B7000ED59FF4F80818695982F917081E061E03B
:102B8000492F0E94350CFE01ED59FF4F808186953B
:102B90008695982F917081E062E0492F0E94350C54
:102BA000FE01ED59FF4F8081869586958695982F79
:102BB000917081E064E0492F0E94350C80E090E044
:102BC000A0E8BFE3898F9A8FAB8FBC8F698D7A8D18
:102BD0008B8D9C8D20E030E04AE755E40E941F0277
:102BE000DC01CB018D8B9E8BAF8BB88F6D897E897D
:102BF0008F89988D20E030E040E85FE30E94250453
:102C000088232CF481E090E09C8B8B8B3FC06D89F6
:102C10007E898F89988D20E03FEF4FE757E40E942F
:102C2000C50318164CF5698D7A8D8B8D9C8D20E02F
:102C300030E040E251E40E941F02DC01CB01BC0104
:102C4000CD010E944900DC01CB019C8B8B8B0FC016
:102C500080E991E09A8B898B89899A890197F1F7AC
:102C60009A8B898B8B899C8901979C8B8B8B8B8909
:102C70009C89009769F714C06D897E898F89988D2A
:102C80000E944900DC01CB019C8B8B8B8B899C893A
:102C9000988B8F878F8598890197F1F7988B8F870D
:102CA00080E062E040E00E94350C80E090E0A0E827
:102CB000BFE38B879C87AD87BE876B857C858D85C1
:102CC0009E8520E030E04AE755E40E941F02DC01C7
:102CD000CB018F839887A987BA876F81788589858B
:102CE0009A8520E030E040E85FE30E9425048823D5
:102CF0002CF481E090E09E838D833FC06F817885C6
:102D000089859A8520E03FEF4FE757E40E94C5038D
:102D100018164CF56B857C858D859E8520E030E00E
:102D200040E251E40E941F02DC01CB01BC01CD0155
:102D30000E944900DC01CB019E838D830FC080E996
:102D400091E09C838B838B819C810197F1F79C831D
:102D50008B838D819E8101979E838D838D819E8142
:102D6000009769F714C06F81788589859A850E94DC
:102D70004900DC01CB019E838D838D819E819A83E6
:102D8000898389819A810197F1F79A838983CC5944
:102D9000DF4F0FB6F894DEBF0FBECDBFCF91DF91EE
:102DA0001F910F9108950F931F93DF93CF93CDB78A
:102DB000DEB7C456D0400FB6F894DEBF0FBECDBF0D
:102DC000FE01EC59FF4F808380E063E041E00E9408
:102DD000350CFE01E15AFF4F80E090E0A0E8BFE330
:102DE00080839183A283B3838E01055A1F4FFE0116
:102DF000E15AFF4F608171818281938120E030E050
:102E00004AE755E40E941F02DC01CB01F8018083F0
:102E10009183A283B383FE01E55AFF4F60817181E4
:102E20008281938120E030E040E85FE30E94250446
:102E3000882344F4FE01E75AFF4F81E090E091833C
:102E4000808364C0FE01E55AFF4F608171818281F9
:102E5000938120E03FEF4FE757E40E94C503181627
:102E60000CF043C0FE01E15AFF4F60817181828105
:102E7000938120E030E040E251E40E941F02DC0137
:102E8000CB018E01075A1F4FBC01CD010E944900A2
:102E9000DC01CB01F801918380831FC0FE01E95A58
:102EA000FF4F80E991E091838083FE01E95AFF4F53
:102EB000808191810197F1F7FE01E95AFF4F9183DB
:102EC0008083DE01A75ABF4FFE01E75AFF4F808182
:102ED0009181019711969C938E93FE01E75AFF4FC3
:102EE000808191810097D1F627C08E01075A1F4F2C
:102EF000FE01E55AFF4F60817181828193810E94BA
:102F00004900DC01CB01F80191838083DE01AB5ADB
:102F1000BF4FFE01E75AFF4F808191818D939C93B3
:102F2000FE01EB5AFF4F808191810197F1F7FE017D
:102F3000EB5AFF4F9183808380E062E041E00E9482
:102F4000350CFE01EF5AFF4F80E090E0A0E8BFE3B0
:102F500080839183A283B3838E01035B1F4FFE01A5
:102F6000EF5AFF4F608171818281938120E030E0D0
:102F70004AE755E40E941F02DC01CB01F80180837F
:102F80009183A283B383FE01E35BFF4F6081718174
:102F90008281938120E030E040E85FE30E942504D5
:102FA000882344F4FE01E55BFF4F81E090E09183CC
:102FB000808364C0FE01E35BFF4F60817181828189
:102FC000938120E03FEF4FE757E40E94C5031816B6
:102FD0000CF043C0FE01EF5AFF4F60817181828186
:102FE000938120E030E040E251E40E941F02DC01C6
:102FF000CB018E01055B1F4FBC01CD010E94490032
:10300000DC01CB01F801918380831FC0FE01E75BE7
:10301000FF4F80E991E091838083FE01E75BFF4FE2
:10302000808191810197F1F7FE01E75BFF4F91836A
:103030008083DE01A55BBF4FFE01E55BFF4F808112
:103040009181019711969C938E93FE01E55BFF4F52
:10305000808191810097D1F627C08E01055B1F4FBB
:10306000FE01E35BFF4F60817181828193810E9449
:103070004900DC01CB01F80191838083DE01A95B6B
:10308000BF4FFE01E55BFF4F808191818D939C9343
:10309000FE01E95BFF4F808191810197F1F7FE010D
:1030A000E95BFF4F91838083DE01AD59BF4FFE0185
:1030B000EC59FF4F808182958F708C93FE01ED5902
:1030C000FF4F8081982F917081E060E0492F0E942E
:1030D000350CFE01ED59FF4F80818695982F917038
:1030E00081E061E0492F0E94350CFE01ED59FF4F50
:1030F000808186958695982F917081E062E0492FB6
:103100000E94350CFE01ED59FF4F80818695869512
:103110008695982F917081E064E0492F0E94350CCC
:10312000FE01ED5BFF4F80E090E0A0E8BFE380830D
:103130009183A283B3838E01015C1F4FFE01ED5B7F
:10314000FF4F608171818281938120E030E04AE706
:1031500055E40E941F02DC01CB01F80180839183BA
:10316000A283B383FE01FF96608171818281938186
:1031700020E030E040E85FE30E94250488232CF43F
:1031800081E090E09EAF8DAF46C0FE01FF9660816A
:1031900071818281938120E03FEF4FE757E40E94E5
:1031A000C503181664F5FE01ED5BFF4F6081718168
:1031B0008281938120E030E040E251E40E941F02CE
:1031C000DC01CB01BC01CD010E944900DC01CB0137
:1031D0009EAF8DAF0FC080E991E09CAF8BAF8BAD00
:1031E0009CAD0197F1F79CAF8BAF8DAD9EAD019774
:1031F0009EAF8DAF8DAD9EAD009769F716C0FE01F5
:10320000FF9660817181828193810E944900DC0177
:10321000CB019EAF8DAF8DAD9EAD9AAF89AF89AD1D
:103220009AAD0197F1F79AAF89AF80E062E040E094
:103230000E94350C80E090E0A0E8BFE38DAB9EAB30
:10324000AFABB8AF6DA97EA98FA998AD20E030E0F3
:103250004AE755E40E941F02DC01CB0189AB9AAB1F
:10326000ABABBCAB69A97AA98BA99CA920E030E0E3
:1032700040E85FE30E94250488232CF481E090E07D
:1032800098AB8FA73FC069A97AA98BA99CA920E018
:103290003FEF4FE757E40E94C50318164CF56DA9A0
:1032A0007EA98FA998AD20E030E040E251E40E9471
:1032B0001F02DC01CB01BC01CD010E944900DC01F1
:1032C000CB0198AB8FA70FC080E991E09EA78DA797
:1032D0008DA59EA50197F1F79EA78DA78FA598A90B
:1032E000019798AB8FA78FA598A9009769F714C08D
:1032F00069A97AA98BA99CA90E944900DC01CB018C
:1033000098AB8FA78FA598A99CA78BA78BA59CA5E9
:103310000197F1F79CA78BA780E062E041E00E9453
:10332000350C80E090E0A0E8BFE38FA398A7A9A7A1
:10333000BAA76FA178A589A59AA520E030E04AE751
:1033400055E40E941F02DC01CB018BA39CA3ADA31B
:10335000BEA36BA17CA18DA19EA120E030E040E83E
:103360005FE30E94250488232CF481E090E09AA377
:1033700089A33FC06BA17CA18DA19EA120E03FEF5E
:103380004FE757E40E94C50318164CF56FA178A5C6
:1033900089A59AA520E030E040E251E40E941F0296
:1033A000DC01CB01BC01CD010E944900DC01CB0155
:1033B0009AA389A30FC080E991E098A38F8F8F8D86
:1033C00098A10197F1F798A38F8F89A19AA10197EE
:1033D0009AA389A389A19AA1009769F714C06BA148
:1033E0007CA18DA19EA10E944900DC01CB019AA382
:1033F00089A389A19AA19E8F8D8F8D8D9E8D019716
:10340000F1F79E8F8D8FDE01AD59BF4FFE01EC5954
:10341000FF4F80818F708C93FE01ED59FF4F8081AB
:10342000982F917081E060E0492F0E94350CFE01D9
:10343000ED59FF4F80818695982F917081E061E072
:10344000492F0E94350CFE01ED59FF4F8081869572
:103450008695982F917081E062E0492F0E94350C8B
:10346000FE01ED59FF4F8081869586958695982FB0
:10347000917081E064E0492F0E94350C80E090E07B
:10348000A0E8BFE3898F9A8FAB8FBC8F698D7A8D4F
:103490008B8D9C8D20E030E04AE755E40E941F02AE
:1034A000DC01CB018D8B9E8BAF8BB88F6D897E89B4
:1034B0008F89988D20E030E040E85FE30E9425048A
:1034C00088232CF481E090E09C8B8B8B3FC06D892E
:1034D0007E898F89988D20E03FEF4FE757E40E9467
:1034E000C50318164CF5698D7A8D8B8D9C8D20E067
:1034F00030E040E251E40E941F02DC01CB01BC013C
:10350000CD010E944900DC01CB019C8B8B8B0FC04D
:1035100080E991E09A8B898B89899A890197F1F7E3
:103520009A8B898B8B899C8901979C8B8B8B8B8940
:103530009C89009769F714C06D897E898F89988D61
:103540000E944900DC01CB019C8B8B8B8B899C8971
:10355000988B8F878F8598890197F1F7988B8F8744
:1035600080E062E040E00E94350C80E090E0A0E85E
:10357000BFE38B879C87AD87BE876B857C858D85F8
:103580009E8520E030E04AE755E40E941F02DC01FE
:10359000CB018F839887A987BA876F8178858985C2
:1035A0009A8520E030E040E85FE30E94250488230C
:1035B0002CF481E090E09E838D833FC06F817885FD
:1035C00089859A8520E03FEF4FE757E40E94C503C5
:1035D00018164CF56B857C858D859E8520E030E046
:1035E00040E251E40E941F02DC01CB01BC01CD018D
:1035F0000E944900DC01CB019E838D830FC080E9CE
:1036000091E09C838B838B819C810197F1F79C8354
:103610008B838D819E8101979E838D838D819E8179
:10362000009769F714C06F81788589859A850E9413
:103630004900DC01CB019E838D838D819E819A831D
:10364000898389819A810197F1F79A83898380918F
:103650007D028F5F80937D0280917D02843169F4C9
:1036600080917C028F5F80937C0210927D0280911A
:103670007C02843111F410927C02CC59DF4F0FB6DA
:10368000F894DEBF0FBECDBFCF91DF911F910F9198
:103690000895DF93CF9300D00F92CDB7DEB79B8311
:1036A0008A8319820EC08981282F30E08A819B810C
:1036B000FC01E20FF31F80810E94D31689818F5F86
:1036C00089838981282F30E08A819B81FC01E20F68
:1036D000F31F8081882339F70F900F900F90CF91BF
:1036E000DF910895DF93CF9300D000D00F92CDB734
:1036F000DEB78A836B838A81282F30E03D832C8359
:103700008C819D8181309105E9F02C813D812230B1
:1037100031052CF48C819D81009761F030C02C81A3
:103720003D8122303105C1F08C819D81833091052E
:10373000E9F025C08B8189838B8180937D02109273
:103740007C021DC08B81805C89838B8180937D028C
:1037500081E080937C0213C08B818C5E89838B8196
:1037600080937D0282E080937C0209C08B818C5A19
:1037700089838B8180937D0283E080937C028981A1
:1037800080680E9473120F900F900F900F900F900F
:10379000CF91DF910895DF93CF9300D000D0CDB7C4
:1037A000DEB79A8389836B834C838B816C810E9403
:1037B000721B89819A810E94491B0F900F900F9074
:1037C0000F90CF91DF910895DF93CF93CDB7DEB700
:1037D00010927D0210927C0281E00E947312CF91C0
:1037E000DF910895DF93CF93CDB7DEB780917D024F
:1037F000833189F480917C02882369F410927D02E0
:1038000081E080937C0280917C0290917D02692FFF
:103810000E94721B46C080917D02833189F48091A1
:103820007C02813069F410927D0282E080937C02F8
:1038300080917C0290917D02692F0E94721B31C0A1
:1038400080917D02833189F480917C02823069F419
:1038500010927D0283E080937C0280917C029091A3
:103860007D02692F0E94721B1CC080917D028331F2
:1038700081F480917C02833061F410927D02109279
:103880007C0280917C0290917D02692F0E94721BC4
:1038900008C084E10E94731280917D028F5F809343
:1038A0007D02CF91DF910895DF93CF93CDB7DEB73F
:1038B00080917D02882391F480917C02882371F4A9
:1038C00083E180937D0283E080937C0280917C027F
:1038D00090917D02692F0E94721B49C080917D02E8
:1038E000882389F480917C02813069F483E180939C
:1038F0007D0210927C0280917C0290917D02692F62
:103900000E94721B34C080917D02882391F48091C3
:103910007C02823071F483E180937D0281E08093A8
:103920007C0280917C0290917D02692F0E94721B23
:103930001EC080917D02882391F480917C028330A7
:1039400071F483E180937D0282E080937C02809118
:103950007C0290917D02692F0E94721B08C080E159
:103960000E94731280917D02815080937D02CF91DD
:10397000DF910895DF93CF93CDB7DEB78CE10E943E
:103980007312CF91DF910895DF93CF93CDB7DEB758
:1039900088E10E947312CF91DF910895DF93CF9356
:1039A00000D000D0CDB7DEB79B838A836C838C8137
:1039B000882F90E00896880F991F880F991F880F0D
:1039C000991F0E94731219820EC08981282F30E03E
:1039D0008A819B81FC01E20FF31F80810E94D31634
:1039E00089818F5F89838981883078F30F900F9068
:1039F0000F900F90CF91DF910895DF93CF930F92A7
:103A0000CDB7DEB7898389810E94D3160F90CF91FD
:103A1000DF910895DF93CF9300D00F92CDB7DEB73B
:103A200089836A834B838A816B810E94721B89819F
:103A30000E94D3160F900F900F90CF91DF910895B1
:103A4000DF93CF93CDB7DEB765970FB6F894DEBF9F
:103A50000FBECDBF6A8B7B8B8C8B9D8B8A899B899C
:103A60009E012F5F3F4FB9014AE050E00E94C727F7
:103A7000CE0101960E94491B65960FB6F894DEBFF1
:103A80000FBECDBFCF91DF910895DF93CF9300D0CC
:103A900000D0CDB7DEB78A8319828A81282F30E023
:103AA0003C832B838B819C818A30910581F02B8113
:103AB0003C812A3031059CF08B819C818B309105B3
:103AC00049F02B813C812C30310531F008C08AE26D
:103AD000898307C0198205C083E2898302C08A8175
:103AE000898389810F900F900F900F90CF91DF9174
:103AF0000895DF93CF9300D0CDB7DEB71A820FC001
:103B00008A81882F90E0FC01E25BFD4F908182E08A
:103B1000692F41E00E94AC098A818F5F8A838A8184
:103B2000843070F319821BC08981882F90E0FC01DA
:103B3000E55BFD4F908183E0692F42E00E94AC0974
:103B40008981882F90E0FC01E55BFD4F908183E047
:103B5000692F41E00E94350C89818F5F89838981BB
:103B6000833010F30F900F90CF91DF910895DF9382
:103B7000CF9300D000D000D0CDB7DEB71D820FC0EC
:103B80008D81882F90E0FC01E55BFD4F908183E003
:103B9000692F41E00E94350C8D818F5F8D838D816F
:103BA000833070F38FEF9FEF9A8389831C8245C027
:103BB0008C81882F90E0FC01E55BFD4F908183E0D4
:103BC000692F40E00E94350C1B8225C08B81882F15
:103BD00090E0FC01E25BFD4F908182E0692F0E9442
:103BE0009A0B8823A9F48B81282F30E0C901880F14
:103BF000991F820F931F982F8C81890F8F5F0E94CE
:103C0000451D882F90E09A83898389818E831BC00C
:103C10008B818F5F8B838B818430C0F28C81882F66
:103C200090E0FC01E55BFD4F908183E0692F41E06E
:103C30000E94350C8C818F5F8C838C81833008F4DB
:103C4000B7CF89818E838E8126960FB6F894DEBF1A
:103C50000FBECDBFCF91DF910895DF93CF9300D0FA
:103C6000CDB7DEB789836A8389816A8142E00E9489
:103C7000AC090F900F90CF91DF910895DF93CF9310
:103C800000D00F92CDB7DEB789836A834B838B81D7
:103C9000882331F489816A8140E00E94350C08C094
:103CA0008B81813029F489816A8141E00E94350C41
:103CB0000F900F900F90CF91DF910895DF93CF93E6
:103CC00000D00F92CDB7DEB789836A834B838B8197
:103CD000882331F489816A8141E00E94350C08C053
:103CE0008B81813029F489816A8140E00E94350C02
:103CF0000F900F900F90CF91DF910895DF93CF93A6
:103D000000D0CDB7DEB789836A8389816A810E943A
:103D10002F0D0F900F90CF91DF910895DF93CF93E8
:103D200000D00F92CDB7DEB789836A834B83898138
:103D30006A814B810E94AC090F900F900F90CF9138
:103D4000DF910895DF93CF9300D0CDB7DEB789839D
:103D50006A8389816A810E949A0B0F900F90CF919C
:103D6000DF910895DF93CF93CDB7DEB70E94D41EC5
:103D70000E94E91E0E942E220E942C240E94D5251A
:103D80000E9479200E9420210E944524CF91DF913A
:103D90000895DF93CF930F92CDB7DEB780917F0266
:103DA0000F90CF91DF910895DF93CF93CDB7DEB71A
:103DB00080917E02882351F480917F02813031F41A
:103DC00010927F0280917F020E940B20CF91DF91A1
:103DD0000895DF93CF93CDB7DEB780917E02823016
:103DE000F1F480917F02813031F410927F02809152
:103DF0007F020E940B2080918202813031F4109268
:103E00008202809182020E94E620809180028130AD
:103E100031F410928002809180020E944020CF9164
:103E2000DF910895DF93CF93CDB7DEB778940E94EA
:103E3000421283E192E060E00E94CE1C8BE192E0AE
:103E400061E00E94CE1C83E292E062E00E94CE1C00
:103E50008BE292E063E00E94CE1C83E392E064E098
:103E60000E94CE1C8BE392E065E00E94CE1C83E4AE
:103E700092E066E00E94CE1C82E066E00E942D1E69
:103E800082E060E00E94261081ED93E20E94E00F44
:103E900081E067E00E94E11180E066E00E94E111AC
:103EA00082E067E042E00E94AC0981E065E042E028
:103EB0000E94AC0981E066E042E00E94AC0981E02A
:103EC00067E040E00E94F21180E066E040E00E947E
:103ED000F2110E9499088AEB96E20E9454080E940F
:103EE00038090E941D080E94C31080E00E94C5117D
:103EF0000E94791D0E947F1FCF91DF910895DF936B
:103F0000CF93CDB7DEB7F89480E060E00E94721BDB
:103F100080E690E00E94491B0E94002180E06EE054
:103F20000E94721B8BE690E00E94491B81E06BE0CF
:103F30000E94721B82E790E00E94491B0E94D525D7
:103F400082E060E00E94721B86E790E00E94491BBD
:103F500083E00E94D3168AE790E00E94491B83E029
:103F60000E94D3168FE790E00E94491B83E00E94D5
:103F7000D31684E890E00E94491B83E00E94D31688
:103F80000E942D217894CF91DF910895DF93CF93F4
:103F9000CDB7DEB729970FB6F894DEBF0FBECDBF01
:103FA0008C83F894CE0101969E838D83ECE5F2E03C
:103FB000F887EF83F3E0F987EF81F88500808F8140
:103FC0009885019698878F83ED81FE8100828D818F
:103FD0009E8101969E838D83998591509987E9856D
:103FE000EE2351F780E063E10E94721B8C81282F41
:103FF00030E0CE010196FC01E20FF31F80810E94A8
:10400000D316789429960FB6F894DEBF0FBECDBFB5
:10401000CF91DF910895DF93CF930F92CDB7DEB7A5
:104020008983F89482E063E00E94721B80917F0292
:10403000813021F482E00E94D31603C083E00E9405
:10404000D31678940F90CF91DF910895DF93CF939B
:104050000F92CDB7DEB78983F89482E068E00E94C2
:10406000721B8981813021F482E00E94D31603C043
:1040700083E00E94D31678940F90CF91DF9108953A
:10408000DF93CF930F92CDB7DEB78983F89482E0A8
:104090006DE00E94721B8981813021F482E00E94D0
:1040A000D31603C083E00E94D31678940F90CF916B
:1040B000DF910895DF93CF93CDB7DEB780915202A1
:1040C0008230A1F4F89480E067E00E94721B809136
:1040D0005402882F90E0A0E0B0E0BC01CD010E9426
:1040E000201D89E890E00E94491B7894CF91DF91D0
:1040F0000895DF93CF93CDB7DEB780915402282F78
:1041000030E08091830290918402281739071CF4D3
:10411000109289020EC080915402282F30E08091C5
:10412000830290918402281739071CF081E0809364
:10413000890280915202823019F40E94BD201AC077
:1041400080918002813051F480918902813031F474
:1041500082E067E040E00E94350C0CC08091800254
:10416000813041F480918902882321F482E067E064
:104170000E942F0DCF91DF910895DF93CF93CDB79C
:10418000DEB7F89481E069E00E94721B80918002A2
:104190008130A9F480918902813049F484E00E9441
:1041A000D31682E067E040E00E94350C0BC086E049
:1041B0000E94D31682E067E00E942F0D03C084E4C2
:1041C0000E94D3167894CF91DF910895DF93CF9317
:1041D0000F92CDB7DEB78983F89482E062E10E9446
:1041E000721B8981813021F482E00E94D31603C0C2
:1041F00083E00E94D31678940F90CF91DF910895B9
:10420000DF93CF93CDB7DEB7F89480E06AE00E94E9
:10421000721B80918202813061F48091550281305D
:1042200021F484E00E94D31607C086E00E94D316D2
:1042300003C084E40E94D3167894CF91DF9108954F
:10424000DF93CF93CDB7DEB780915202813011F466
:104250000E940021CF91DF910895DF93CF93CDB7D6
:10426000DEB765970FB6F894DEBF0FBECDBFCE01A7
:1042700001969A8B898BEFE5F2E0FC8BEB8BF0E1FA
:10428000FD8BEB89FC8900808B899C8901969C8B36
:104290008B8BE989FA89008289899A8901969A8BA0
:1042A000898B9D8991509D8BED89EE2351F7F89470
:1042B00083E068E00E94721B80915202992787FD7B
:1042C00090959C01220F331F220F331FCE010196C0
:1042D000FC01E20FF31F80810E94D31680915202ED
:1042E000992787FD90959C01220F331F220F331FC2
:1042F000CE010196820F931FFC01319680810E94AE
:10430000D31680915202992787FD9095880F991FA7
:1043100001969C01220F331FCE010196FC01E20F92
:10432000F31F80810E94D31680915202992787FD46
:1043300090959C01220F331F220F331FCE0101964F
:10434000820F931FFC01339680810E94D3167894CC
:1043500065960FB6F894DEBF0FBECDBFCF91DF914B
:104360000895DF93CF93CDB7DEB7F89480E060E097
:104370000E94721B8EE890E00E94491B81E060E081
:104380000E94721B8DE990E00E94491B80915202AD
:10439000813059F480E060E00E94721B80E690E07A
:1043A0000E94491B0E94002155C08091520288231F
:1043B000F1F480918102813089F480E060E00E9414
:1043C000721B89EA90E00E94491B81E060E00E9434
:1043D000721B80EB90E00E94491B3CC080E060E0D3
:1043E0000E94721B8AEB90E00E94491B33C08091AF
:1043F0005202823009F580E060E00E94721B83EC7B
:1044000090E00E94491B80915402882F90E0A0E028
:10441000B0E0BC01CD010E94201D89E890E00E941F
:10442000491B81E060E00E94721B80EB90E00E94DB
:10443000491B0E94BD200EC080915202833051F46E
:1044400080E060E00E94721B8BEC90E00E94491BB0
:104450000E9445247894CF91DF910895DF93CF9304
:104460000F92CDB7DEB70E94B71D89838981823054
:1044700029F580915302882309F510929202109237
:10448000910281E08093550280919F028823C1F4BC
:1044900081E080939F0281E08093930280917E026D
:1044A0008F5F80937E0280917E02833011F41092A0
:1044B0007E0280917E020E94C61F02C010929F025F
:1044C00080917E02813009F0B5C08981882321F571
:1044D000109292021092910281E080935502809195
:1044E0009E028823D9F481E080939E0281E080932C
:1044F000930280917F02882341F481E080937F02C0
:1045000080917F020E940B2009C010927F0280914F
:104510007F020E940B2002C010929E028981883087
:1045200049F5109292021092910281E08093550217
:1045300080919B02882301F581E080939B0281E0BA
:104540008093930280918002882341F481E08093DC
:104550008002809180020E9440200EC01092800252
:10456000809180020E94402082E067E040E00E944B
:10457000350C02C010929B0289818A3251F510924B
:1045800092021092910281E08093550280919802EC
:10459000882309F581E08093980281E0809393025B
:1045A00080918102882341F481E08093810280918F
:1045B00081020E94262006C0109281028091810211
:1045C0000E94262080915202882329F40E94B12162
:1045D00002C0109298028981833251F5809197022E
:1045E000882341F581E08093970281E080939302D4
:1045F000809182028823A9F481E0809382028091D5
:1046000082020E94E6200E941D088BE791EE0E9424
:10461000FD07109292021092910281E08093550260
:1046200009C010928202809182020E94E62002C09C
:104630001092970289818330F1F4109292021092C5
:10464000910281E08093550280919D028823A9F414
:1046500081E080939D02809152028F5F809352028D
:1046600080915202843011F4109252020E94B121C2
:104670000E942D2102C010929D0289818130F9F49F
:10468000109292021092910281E0809355028091E3
:104690009C028823B1F481E080939C0280915202B5
:1046A000815080935202809152028F3F19F483E02F
:1046B000809352020E94B1210E942D2102C01092CB
:1046C0009C028981893071F51092920210929102B8
:1046D00081E08093550280915A02813061F480918B
:1046E0005402883728F4809154028B5F80935402DF
:1046F00010925A0214C0809196028F5F80939602A6
:1047000080919602833059F410929602809154025F
:10471000883728F4809154028B5F809354020E9462
:104720005A2005C081E080935A0210929602898136
:10473000873071F5109292021092910281E080937D
:10474000550280915902813061F480915402853183
:1047500028F080915402855080935402109259029F
:1047600014C0809195028F5F80939502809195028D
:10477000833059F41092950280915402853128F0CB
:10478000809154028550809354020E945A2005C0A3
:1047900081E080935902109295020F90CF91DF91A2
:1047A0000895DF93CF93CDB7DEB780915B02813060
:1047B000A9F483E060E00E94261081E080939302D8
:1047C00010925B0280915B028093530281E067E06C
:1047D00041E00E94F2110E94052414C080915B0206
:1047E000882381F482E060E00E94261081E08093BB
:1047F0005B0280915B028093530281E067E040E0BE
:104800000E94F211CF91DF910895DF93CF93CDB73E
:10481000DEB780917E028130E1F4789480917F024E
:10482000813031F410927F0280917F020E940B2030
:1048300080918102813031F4109281028091810255
:104840000E942620109292021092910281E08093A1
:104850005502CF91DF910895DF93CF93CDB7DEB7A7
:1048600080915302882371F480917F02813031F46A
:1048700010927F0280917F020E940B201092920280
:1048800010929102CF91DF910895DF93CF93CDB72E
:10489000DEB780915202833009F065C081E060E0AC
:1048A0000E94721B87ED90E00E94491B8091580284
:1048B0008A3070F480E20E94D31680915802882FCB
:1048C00090E0A0E0B0E0BC01CD010E94201D0AC034
:1048D00080915802882F90E0A0E0B0E0BC01CD01AB
:1048E0000E94201D8AE30E94D316809157028A30CD
:1048F00070F480E20E94D31680915702882F90E0D6
:10490000A0E0B0E0BC01CD010E94201D0AC0809152
:104910005702882F90E0A0E0B0E0BC01CD010E94DA
:10492000201D8AE30E94D316809156028A3070F4CB
:1049300080E20E94D31680915602882F90E0A0E07A
:10494000B0E0BC01CD010E94201D0AC0809156023A
:10495000882F90E0A0E0B0E0BC01CD010E94201DB6
:1049600080E20E94D316CF91DF910895DF93CF9319
:1049700000D00F92CDB7DEB7F89480E00E944811C6
:104980009A83898389819A819C01220F331FC901EF
:10499000880F991F880F991F820F931FCC01A0E0E9
:1049A000B0E0BC01CD010E940705DC01CB01BC01D8
:1049B000CD0120E030EC4FE754E40E941903DC0104
:1049C000CB018093850290938602A0938702B093D7
:1049D00088028091850290918602A0918702B09111
:1049E0008802BC01CD0120E030E040E251E40E94A9
:1049F0001F02DC01CB01BC01CD010E944900DC019A
:104A0000CB019AE0692F0E944E27892F8B8383E088
:104A10006BE00E94721B8091850290918602A091AA
:104A20008702B0918802BC01CD010E944900DC01DF
:104A3000CB01882F90E0A0E0B0E0BC01CD010E9446
:104A4000201D8EE20E94D3168B81882F90E0A0E07B
:104A5000B0E0BC01CD010E94201D8AED90E00E94D3
:104A6000491B78940F900F900F90CF91DF9108958C
:104A7000DF93CF9300D000D0CDB7DEB780917F0217
:104A8000813009F08BC080917E02813009F086C0B0
:104A9000F8948091850290918602A0918702B0914E
:104AA0008802BC01CD010E944900DC01CB018830A5
:104AB00058F080E066E040E00E94F21181E067E09B
:104AC00040E00E94F21169C08091850290918602B7
:104AD000A0918702B0918802BC01CD010E944900DB
:104AE000DC01CB01863058F080E066E041E00E94B6
:104AF000F21181E067E040E00E94F2114EC0809127
:104B0000850290918602A0918702B0918802BC0133
:104B1000CD010E944900DC01CB01843058F080E0D7
:104B200066E041E00E94F21181E067E041E00E940E
:104B3000F21133C08091850290918602A091870284
:104B4000B0918802BC01CD010E944900DC01CB017B
:104B5000823050F080E066E041E00E94F21181E096
:104B600067E00E94321219C08091850290918602FE
:104B7000A0918702B091880281E067E040E00E9446
:104B8000F21180E066E040E00E94F2110E94E41B16
:104B90008DED90E00E94491BFFCF78940F900F900D
:104BA0000F900F90CF91DF910895DF93CF9300D0B6
:104BB000CDB7DEB780E00E9448119A83898389814E
:104BC0009A81CC01A0E0B0E028EC30E040E050E079
:104BD000BC01CD010E942F27DC01CB012FEF33E078
:104BE00040E050E0BC01CD010E946E27DA01C9010E
:104BF0008093A3028091A0029091A1029C018981DF
:104C00009A81A901481B590BCA019093A502809370
:104C1000A4028091A4029091A5028431910544F4EC
:104C20008091A4029091A5025FEF8D3E9507D4F488
:104C30008091A302882F90E0909384028093830256
:104C4000109292021092910280917F02813051F471
:104C500080917E02813031F410927F0280917F0238
:104C60000E940B20F89481E06EE00E94721B8091FC
:104C7000830290918402882F90E0A0E0B0E0BC0114
:104C8000CD010E94201D8CEE90E00E94491B78947B
:104C900089819A819093A1028093A0020F900F9036
:104CA000CF91DF910895DF93CF93CDB7DEB7809199
:104CB0008B028F5F80938B028BE791EE0E94FD0742
:104CC00080918202882311F410928B0280918B02D2
:104CD000853021F410928B02109255028091560279
:104CE0008F5F80935602809156028C3339F4109274
:104CF0005602809157028F5F80935702809157022E
:104D00008C3339F410925702809158028F5F809350
:104D100058028091830290918402AA2797FDA09562
:104D2000BA2FBC01CD010E945504DC01CB01BC01AE
:104D3000CD0120E030E048EC52E40E941903DC0190
:104D4000CB0120918C0230918D0240918E025091C6
:104D50008F02BC01CD010E94F201DC01CB018093E6
:104D60008C0290938D02A0938E02B0938F02CF910C
:104D7000DF910895DF93CF93CDB7DEB78091910295
:104D80009091920201969093920280939102809169
:104D90008202882329F410929202109291020DC08F
:104DA00080919102909192028535910531F4109293
:104DB00092021092910210925502809193028130DA
:104DC000B1F4809194028F5F8093940282E066E058
:104DD00041E00E943E1E80919402833071F4109253
:104DE000930282E066E040E00E943E1E06C0809191
:104DF0009302882311F410929402809190028F5FA5
:104E000080939002809190028436E9F4109290028F
:104E1000809156028F5F80935602809156028C33A8
:104E200039F410925602809157028F5F8093570297
:104E3000809157028C3339F41092570280915802B6
:104E40008F5F80935802CF91DF910895DF93CF93C6
:104E5000CDB7DEB70E94121F0E94B21EFDCF629F27
:104E6000D001739FF001829FE00DF11D649FE00D62
:104E7000F11D929FF00D839FF00D749FF00D659FC3
:104E8000F00D9927729FB00DE11DF91F639FB00DC2
:104E9000E11DF91FBD01CF0111240895991B79E08F
:104EA00004C0991F961708F0961B881F7A95C9F7BA
:104EB00080950895AA1BBB1B51E107C0AA1FBB1F09
:104EC000A617B70710F0A61BB70B881F991F5A9596
:104ED000A9F780959095BC01CD010895A1E21A2E05
:104EE000AA1BBB1BFD010DC0AA1FBB1FEE1FFF1F8E
:104EF000A217B307E407F50720F0A21BB30BE40BDE
:104F0000F50B661F771F881F991F1A9469F7609524
:104F10007095809590959B01AC01BD01CF010895DE
:104F20002F923F924F925F926F927F928F929F92B9
:104F3000AF92BF92CF92DF92EF92FF920F931F93A7
:104F4000CF93DF93CDB7DEB7CA1BDB0B0FB6F89458
:104F5000DEBF0FBECDBF09942A88398848885F8498
:104F60006E847D848C849B84AA84B984C884DF8009
:104F7000EE80FD800C811B81AA81B981CE0FD11DED
:104F80000FB6F894DEBF0FBECDBFED010895FB0153
:104F90009F01E8944230C4F04532B4F44A3029F419
:104FA00097FB1EF4909581959F4F642F77270E9461
:104FB0005A27805D8A330CF0895D8193CB0100977D
:104FC000A1F716F45DE251931082C9010C94E82711
:104FD000DC01FC01672F71917723E1F7329704C060
:104FE0007C916D9370836291AE17BF07C8F30895EB
:044FF000F894FFCF63
:104FF400444D205374617475733A004742203A203B
:105004004E0053503A0043433A002042413A0020B4
:10501400534C3A0020444D3A004B4D482000202088
:10502400202020202020202020202020002020209C
:10503400202020202020202000444953203A200012
:10504400537461747573203A200044697361626C0F
:10505400656400534C494D203A2000443D31382FBB
:10506400332F3230323400543D004D2000437275EA
:10507400736865642063617220293A004B4D2000F7
:10508400000000000000000000010202030303030B
:1050940004040404040404040505050505050505C4
:1050A40005050505050505050606060606060606A4
:1050B400060606060606060606060606060606068C
:1050C4000606060606060606070707070707070774
:1050D400070707070707070707070707070707075C
:1050E400070707070707070707070707070707074C
:1050F400070707070707070707070707070707073C
:105104000707070707070707080808080808080823
:10511400080808080808080808080808080808080B
:1051240008080808080808080808080808080808FB
:1051340008080808080808080808080808080808EB
:1051440008080808080808080808080808080808DB
:1051540008080808080808080808080808080808CB
:1051640008080808080808080808080808080808BB
:1051740008080808080808080808080808080808AB
:1051840008080808080808080504020308FF0001C5
:1051940000060000000A1F1F0E04000E1111111F4B
:1051A4001F1F0000000E1115110E0000000E1F1F1E
:1051B4001F0E00000103161C08000000110A040A57
:1051C40011000000081D1A1D0800000E151B0E0E0C
:1051D400000000040E0E0E0E1F0400070605050451
:1051E4000302010128010C1E020101014E44520177
:1051F40000000000010000000001000000000100A8
:00000001FF
